:100000000C949B000C94C3000C94C3000C94FB0252
:100010000C94FB020C94FB020C94C3000C94C300E0
:100020000C94C3000C94C3000C94C3000C94C30044
:100030000C94C3000C94C3000C94C3000C94C30034
:100040000C94A9080C94C3000C9468020C9442020E
:100050000C94C3000C94C3000C94C3000C94C30014
:100060000C9405030C94C30000000008000201007A
:100070000003040700000000000000005246323474
:100080002F6578616D706C65732F47657474696E48
:1000900067537461727465645F43616C6C5265731D
:1000A000706F6E736500476F7420726573706F6E4A
:1000B0007365200000000000250028002B000000D0
:1000C0000000240027002A0004040404040404049B
:1000D00002020202020203030303030301020408F3
:1000E00010204080010204081020010204081020A2
:1000F0001112131415160A0B0C0D0E0F000102033A
:1001000004054C6F61646564206E657874207265C7
:1001100073706F6E73650053656E64696E672066F9
:1001200061696C65642E004E6F772073656E64693B
:100130006E672000150C11241FBECFEFD8E0DEBF84
:10014000CDBF23E0AAEAB1E001C01D92AB30B207F7
:10015000E1F711E0A0E0B1E0E6EBFEE102C00590BE
:100160000D92AA3AB107D9F710E0CBE9D0E004C06C
:100170002197FE010E94470DCA39D107C9F70E9495
:100180007D090C94590F0C940000089508958FEF89
:100190009FEF08958FEF9FEF08958091180290E0F0
:1001A0009195819591090895089580E090E00895D2
:1001B00085ED8093BC008091BC0084FDFCCF109243
:1001C000F20108954091CC01262F30E0240F311D1B
:1001D00021323105DCF42091F2012430C9F4FC0114
:1001E00080E090E0861758F43091CC012191DC0139
:1001F000A655BE4FA30FB11D2C930196F3CF80914E
:10020000CC01680F6093CC0180E0089581E00895EF
:1002100082E00895CF93DF9300D0CDB7DEB7CB0156
:10022000642F49835A830E94E2004981842F5A81B6
:10023000952F0F900F90DF91CF910895CF93DF937B
:100240001F92CDB7DEB7698361E0CE0101960E94AF
:10025000E20081E090E00F90DF91CF9108958DE171
:1002600092E00E94D00621E0892B09F420E0822F41
:1002700008950E94440F0F931F93CF93DF93EC01D7
:1002800088819981009729F02A813B8126173707B9
:1002900088F48B016F5F7F4F0E947A0E009761F0A8
:1002A000998388831B830A832C813D81232B11F43E
:1002B000FC01108281E001C080E0DF91CF911F91AD
:1002C0000F910895EF92FF920F931F93CF93DF93B7
:1002D000FB0124813581E080F180FC0104811581DE
:1002E000E114F10411F480E017C02115310599F0F3
:1002F000EC01020F131FB8010E943B01882399F300
:10030000288139818C819D81B701820F931F0E94C2
:10031000520F1D830C8381E0DF91CF911F910F91CC
:10032000FF90EF900895EF92FF920F931F93CF935A
:10033000DF9300D0CDB7DEB78C0169831A82FC0150
:10034000E480F580FFEFEF1AFF0AB7010E943B013E
:10035000882381F0F8012081318184819581BE015B
:100360006F5F7F4F820F931F0E94520FF801F5823B
:10037000E48281E00F900F90DF91CF911F910F9158
:10038000FF90EF900895CF93DF93EC0188819981DE
:10039000009711F00E94E20D198218821D821C82C2
:1003A0001B821A82DF91CF910895EF92FF920F93F3
:1003B0001F93CF93DF93EC017B018A01BA010E9466
:1003C0003B01811104C0CE010E94C30107C01D83FF
:1003D0000C83B701888199810E94520FCE01DF9171
:1003E000CF911F910F91FF90EF90089590E0FC0145
:1003F000E859FF4F3491FC01E452FF4F2491FC0176
:10040000E853FF4FE491EE2309F43BC0332339F165
:10041000333091F038F43130A9F0323001F584B541
:100420008F7D12C0373091F03830A1F03430B9F4FC
:10043000809180008F7D03C0809180008F778093B2
:1004400080000DC084B58F7784BD09C08091B00055
:100450008F7703C08091B0008F7D8093B000F0E073
:10046000EE0FFF1FEC54FF4FA591B4918FB7F89496
:10047000EC91611103C020952E2301C02E2B2C93EB
:100480008FBF08951F920F920FB60F9211242F93D2
:100490003F934F935F936F937F938F939F93AF930C
:1004A000BF93EF93FF938DE192E00E94F308FF91D9
:1004B000EF91BF91AF919F918F917F916F915F91DC
:1004C0004F913F912F910F900FBE0F901F90189555
:1004D0001F920F920FB60F9211242F938F939F9319
:1004E000EF93FF93E0912D02F0912E028081E09135
:1004F0003302F091340282FD12C090818091360265
:100500008F5F8F7320913702821751F0E09136028E
:10051000F0E0E35EFD4F958F8093360201C080814D
:10052000FF91EF919F918F912F910F900FBE0F90A0
:100530001F901895FC01248135816217730720F400
:1005400080819181009729F410921B028BE192E047
:100550000895860F971F0895CF93DF93EC016115DF
:10056000710559F0FB0101900020E9F73197AF01C7
:10057000461B570B0E94D50102C00E94C301CE0149
:10058000DF91CF910895CF93DF93EC01FB018617A4
:10059000970761F0608171816115710529F04481CF
:1005A00055810E94D50102C00E94C301CE01DF9196
:1005B000CF910895FC01808191810C94E20DFC01A2
:1005C00011821082138212821582148261157105C4
:1005D00051F0FB0101900020E9F73197AF01461B74
:1005E000570B0C94D50108958EBD00000DB407FE85
:1005F000FDCF8EB508951F920F920FB60F92112462
:100600000F900FBE0F901F9018951F920F920FB66C
:100610000F9211242F933F934F935F936F937F9388
:100620008F939F93AF93BF93EF93FF938091B90004
:10063000887F803609F49CC068F5883209F45BC075
:1006400090F4803109F454C038F4882309F4F6C0DA
:10065000883009F44DC0F6C0883109F44CC08032AE
:1006600009F45DC0EFC0803409F468C048F48033F9
:1006700009F455C0883309F0E5C08093F101D8C072
:10068000803509F44FC0883509F45DC0883409F01D
:10069000D9C0D6C0883909F4C7C0A8F4883709F48E
:1006A00067C038F4883609F463C0803709F460C045
:1006B000C9C0883809F4B8C0803909F45FC08038EF
:1006C00009F0C0C05BC0803B09F486C038F4803AB2
:1006D00009F466C0883A09F47FC0B4C0803C09F4CC
:1006E000A7C0883C09F4A4C0883B09F48AC0AAC00A
:1006F0008091170210C090911602809115029817F0
:1007000070F5E091160281E08E0F80931602F0E002
:10071000EB50FE4F80818093BB0085EC86C08093B8
:10072000F1018EC0E091160281E08E0F80931602D7
:100730008091BB00F0E0EB50FE4F80839091160259
:10074000809115026EC0E091160281E08E0F8093B9
:1007500016028091BB00F0E0EB50FE4F8083809149
:10076000F40181116DC081E08093F30184EA61C0DE
:1007700083E08093F2011092F001CFCF8091F001DD
:10078000803208F051C0E091F00181E08E0F80933B
:10079000F0018091BB00F0E0E053FE4F8083BDCFBD
:1007A00085EC8093BC001092F2018091F0018032C0
:1007B00030F4E091F001F0E0E053FE4F10826091E0
:1007C000F00170E0E091CE01F091CF0180ED91E079
:1007D00009951092F00136C084E08093F2011092E6
:1007E000CD011092CC01E091CA01F091CB010995A5
:1007F0008091CC01811105C081E08093CC011092E1
:10080000AA01E091CD0181E08E0F8093CD01F0E04F
:10081000E655FE4F80818093BB009091CD01809181
:10082000CC01981708F479CF85E88093BC000AC002
:1008300085EC8093BC001092F20104C01092F1018B
:100840000E94D800FF91EF91BF91AF919F918F913E
:100850007F916F915F914F913F912F910F900FBEBC
:100860000F901F901895009769F0FC0101900020EF
:10087000E9F73197AF01481B590BBC018DE192E0BC
:100880000C94E60680E090E00895CF93DF930E94F9
:100890003304EC018FE291E00E9433048C0F9D1F22
:1008A000DF91CF9108959F92AF92BF92CF92DF9246
:1008B000EF92FF920F931F93CF93DF9300D000D05E
:1008C00000D0CDB7DEB78C011A8219821C821B8240
:1008D0001E821D82BC01CE0101960E94C302ED80E2
:1008E000FE80CE0101960E94DA0280E2E816F10451
:1008F00009F0A1C060E070E0C8010E949A02DC012A
:10090000BC9061E070E0C8010E949A0262E070E071
:10091000C8010E949A02FC01A080D8011496ED90B3
:10092000FC901597B2E0EB16F10428F4670192E011
:10093000E92EF12C03C082E0C82ED12C61E371E0D6
:10094000CE0101960E94DF02F80184819581C816CC
:10095000D906D8F48E159F0508F47C01D801ED91D5
:10096000FC911197EE0DFF1D908010826D917C918E
:100970006C0D7D1DCE0101960E94AC02F8018081B4
:100980009181FC01EE0DFF1D9082D8018D919C910B
:1009900011970097D1F069817A816115710599F0FD
:1009A00012964D915C9113972D813E81421753070A
:1009B00050F00E94520F8D819E81D80115969C9314
:1009C0008E93149713C00E94E20D89819A81F801D9
:1009D000918380838B819C81938382838D819E818F
:1009E000958384831A8219821C821B821E821D8237
:1009F000CE0101960E94DA022B2DBB0C330B8091A5
:100A0000E5029091E6022817390719F085E891E090
:100A100014C0A11014C01A8219821C821B821E826B
:100A20001D82B801CE0101960E94C302CE0101963B
:100A30000E94DA0204C086E991E00E9445042696ED
:100A40000FB6F894DEBF0FBECDBFDF91CF911F91DF
:100A50000F91FF90EF90DF90CF90BF90AF909F905D
:100A60000895CF93DF939CB59F7D9CBD9CB5937FEC
:100A70009CBD9CB59C7F9CBD9DB591609DBDCAEB06
:100A8000D2E0682F8A810E94F6018C899D89DF91CE
:100A9000CF910C949B0781E00C94310580E00C947D
:100AA0003105EF92FF920F931F93CF93DF9300D006
:100AB0001F92CDB7DEB7162F4A837B8389830E94AE
:100AC0004E0589818F7180620E94F402082FE12E09
:100AD0007B81F72E4A81140F1E1531F0F7018191A9
:100AE0007F010E94F402F8CF0E944B05802F0F90E7
:100AF0000F900F90DF91CF911F910F91FF90EF908A
:100B00000895CF93DF931F92CDB7DEB789830E94FC
:100B10004E0589810E94F40289830E944B058981D8
:100B20000F90DF91CF91089581EE0C948105CF93C2
:100B3000DF931F92CDB7DEB789830E944E0589816E
:100B40008F710E94F4028FEF0E94F40289830E9449
:100B50004B0589810F90DF91CF9108951F93CF931B
:100B6000DF9300D0CDB7DEB76A8389830E944E053C
:100B700089818F7180620E94F402182F6A81862F0A
:100B80000E94F4020E944B05812F0F900F90DF917D
:100B9000CF911F9108952091BA023091BB024091EC
:100BA000BC025091BD022417350721F0682F822F17
:100BB0000C94F601089580E00E94970581FD0BC01A
:100BC000682F626080E00E94AE0565E070E080E022
:100BD00090E00C946F0808950E94DB0580E00E946D
:100BE0009705682F616080E00E94AE0560E787E0AE
:100BF0000E94AE0581E00E94CB058091C30288234C
:100C000041F04091C80263EC72E08AE00E94510515
:100C100012C082E00E949705ECEFF0E0E49121E041
:100C200030E001C0220FEA95EAF72095622F682391
:100C300082E00E94AE058DE10E94970581FD0C9433
:100C400094050895CF93DF93E7EFF0E0E491CAEBCA
:100C5000D2E04E85BC018E2F0E945105E1EFF0E0FD
:100C600084916F810E94AE0582E00E949705EDEFAE
:100C7000F0E0E49161E070E001C0660FEA95EAF708
:100C8000682B82E0DF91CF910C94AE050F931F93F8
:100C9000CF93DF938C01CAEBD2E04E85BC018AE092
:100CA0000E9451054E85B80180E10E9451056F8177
:100CB00081E1DF91CF911F910F910C94AE0590E0EF
:100CC000FC01E452FF4F2491FC01E853FF4F849153
:100CD000882399F090E0880F991FFC01E254FF4FA0
:100CE000A591B491FC01EC54FF4F859194918FB77D
:100CF000F894EC91E22BEC938FBF08950F931F9320
:100D0000CF93DF938C01C0E0D0E0F801EC0FFD1F22
:100D10006491662371F0E0911D02F0911E02019032
:100D2000F081E02D8DE192E00995892B11F021965B
:100D3000ECCFCE01DF91CF911F910F910895FC016F
:100D4000538D448D252F30E0842F90E0821B930B30
:100D5000541710F0CF96089501970895FC01918DD6
:100D6000828D981761F0828DDF01A80FB11D5D960D
:100D70008C91928D9F5F9F73928F90E008958FEF7B
:100D80009FEF0895FC01918D828D981731F0828D2F
:100D9000E80FF11D858D90E008958FEF9FEF089586
:100DA000FC01918D228D892F90E0805C9F4F821BEA
:100DB00091098F739927089580E090E0892B29F09D
:100DC0000E942F0181110C9400000895CF92DF92B0
:100DD000EF92FF920F931F93CF93DF936C017A01F1
:100DE0008B01C0E0D0E0CE15DF0589F0D8016D9110
:100DF0008D01D601ED91FC910190F081E02DC601AD
:100E00000995892B11F47E0102C02196ECCFC70110
:100E1000DF91CF911F910F91FF90EF90DF90CF90D6
:100E20000895CF92DF92EF92FF920F931F93CF938B
:100E3000DF931F92CDB7DEB7F82E2091C102C62EE8
:100E4000261708F4C22E8091C202811103C0D22E4F
:100E5000DC1801C0D12C99830E944E0581E60E94C6
:100E6000F402E82E0F2D9981192FFC0CF01639F0A1
:100E70008FEF0E94F402F80181938F01F7CFDD20FC
:100E800029F08FEF0E94F402DA94F9CF0E944B050B
:100E90008E2D0F90DF91CF911F910F91FF90EF90CA
:100EA000DF90CF9008950F931F93CF93DF93CDB72B
:100EB000DEB7A0970FB6F894DEBF0FBECDBF8C0192
:100EC00080E390E0A0E0B0E089839A83AB83BC83A9
:100ED000FE0135968CE1DF011D928A95E9F787E1E5
:100EE0000E94970580FD15C08FEF0E94810560E28A
:100EF000CE0101960E94110760E787E00E94AE05CF
:100F000082E091E00E947E06CE0101960E94450497
:100F1000E6CFBE016F5F7F4FC8010E94DF02C801AC
:100F2000A0960FB6F894DEBF0FBECDBFDF91CF9174
:100F30001F910F9108958230910538F0880F991F05
:100F4000880F991F05970197F1F70895DF92EF92A7
:100F5000FF920F931F93CF93DF931F92CDB7DEB70E
:100F60008C0180E00E94CB058091CA029091CB0257
:100F70000E949B078DE10E94970581FF08C0809128
:100F8000CA029091CB020E949B070E94940580E0C8
:100F90000E949705682F6E7F80E00E94AE0582E078
:100FA0000E949705ECEFF0E0E49161E070E001C091
:100FB000660FEA95EAF7682B82E00E94AE0587E2A9
:100FC00091E00E947E0660E070E0C8010E949A02F3
:100FD0000E94450460E070E0C8010E949A02F82E69
:100FE0002091C102D22E273010F086E0D82E8091B9
:100FF000C202811103C0E22EED1801C0E12C9983D9
:101000000E944E0580EA0E94F4020F2D9981192F4B
:10101000DA94FFEFDF1631F0F80181918F010E9421
:10102000F402F6CFEE2029F080E00E94F402EA9468
:10103000F9CF0E944B0581E00E94CB058FEF0E9403
:1010400081058073D9F380E00E94CB0560E787E0DB
:101050000E94AE0584FF18C00E94940587E191E0CC
:101060000E947E068FE291E00E94330480E0898333
:101070000E94EC0589810F90DF91CF911F910F9114
:10108000FF90EF90DF90089587E10E94970580958B
:101090008170EDCF3FB7F8948091030390910403E2
:1010A000A0910503B091060326B5A89B05C02F3F6C
:1010B00019F00196A11DB11D3FBFBA2FA92F982F7E
:1010C0008827820F911DA11DB11DBC01CD0142E0F9
:1010D000660F771F881F991F4A95D1F708958F9241
:1010E0009F92AF92BF92CF92DF92EF92FF926B01ED
:1010F0007C010E944A084B015C01C114D104E10447
:10110000F104F1F00E944A08DC01CB018819990929
:10111000AA09BB09883E9340A105B10570F321E0FF
:10112000C21AD108E108F10888EE880E83E0981E03
:10113000A11CB11CC114D104E104F10419F7DDCFE5
:10114000FF90EF90DF90CF90BF90AF909F908F90E7
:1011500008951F920F920FB60F9211242F933F9371
:101160008F939F93AF93BF938091FF029091000361
:10117000A0910103B09102033091FE0223E0230FFE
:101180002D3720F40196A11DB11D05C026E8230FBF
:101190000296A11DB11D2093FE028093FF02909341
:1011A0000003A0930103B093020380910303909185
:1011B0000403A0910503B09106030196A11DB11D82
:1011C0008093030390930403A0930503B093060355
:1011D000BF91AF919F918F913F912F910F900FBE33
:1011E0000F901F901895FC01848DDF01A80FB11D91
:1011F000A35ABF4F2C91848D90E001968F7399274D
:10120000848FA689B7892C93A089B1898C91806439
:101210008C93938D848D981306C00288F389E02DFA
:1012200080818F7D80830895EF92FF920F931F93AB
:10123000CF93DF93EC0181E0888F9B8D8C8D981389
:1012400005C0E889F989808185FD24C0F62E0B8DC3
:1012500010E00F5F1F4F0F731127E02E8C8DE812E7
:101260000CC00FB607FCFACFE889F989808185FFA9
:10127000F5CFCE010E94F308F1CF8B8DFE01E80F70
:10128000F11DE35AFF4FF0820B8FEA89FB898081C1
:10129000806207C0EE89FF896083E889F9898081CF
:1012A0008064808381E090E0DF91CF911F910F9166
:1012B000FF90EF900895CF93DF93EC01888D882302
:1012C000C9F0EA89FB89808185FD05C0A889B989B3
:1012D0008C9186FD0FC00FB607FCF5CF808185FF8E
:1012E000F2CFA889B9898C9185FFEDCFCE010E94FC
:1012F000F308E7CFDF91CF910895CF93DF93CDB778
:10130000DEB7AE970FB6F894DEBF0FBECDBF7894B0
:1013100084B5826084BD84B5816084BD85B58260FA
:1013200085BD85B5816085BD80916E0081608093AB
:101330006E00109281008091810082608093810014
:101340008091810081608093810080918000816024
:10135000809380008091B10084608093B10080917F
:10136000B00081608093B00080917A0084608093A7
:101370007A0080917A00826080937A0080917A006E
:10138000816080937A0080917A00806880937A00EF
:101390001092C100E0912D02F0912E0282E0808334
:1013A000E0912902F0912A021082E0912B02F09143
:1013B0002C0280E1808310923502E0913102F0919D
:1013C000320286E08083E0912F02F091300280812A
:1013D00080618083E0912F02F091300280818860EB
:1013E0008083E0912F02F0913002808180688083B9
:1013F000E0912F02F091300280818F7D80838CE715
:1014000090E00E947E068FE291E00E9433041092E9
:10141000E6021092E5021092E4028091BA029091E5
:10142000BB022091BC023091BD028217930711F0DC
:101430000E945F068091BC029091BD022091BA0289
:101440003091BB022817390711F00E945F061FB7C1
:10145000F89480911C02811124C0E2EDF0E08491A7
:10146000E6EEF0E09491E82FF0E0EE0FFF1FE2547B
:10147000FF4FA591B491EC91E92321F461E08AE05A
:101480000E94F6018AE00E945F068CB580618CBDE7
:101490008CB580648CBD8DE00E945F068BE00E945D
:1014A0005F0680911C028F5F80931C021FBF80E04B
:1014B0000E94CB0581E00E94310565E070E080E08C
:1014C00090E00E946F086CE080E00E94AE056FE53E
:1014D00084E00E94AE0586E00E949705877D182F64
:1014E00010628BE990E0A0E0B0E08093CA02909394
:1014F000CB02A093CC02B093CD02612F86E00E9474
:10150000AE0586E00E949705811709F45FC186E069
:101510000E94970586E00E94970545E550E060E04F
:1015200070E04093CA025093CB026093CC02709358
:10153000CD02682F677D86E00E94AE0586E00E949E
:1015400097050E944E0580E50E94F40283E70E9401
:10155000F4020E944B0560E08DE10E94AE0560E060
:101560008CE10E94AE051092C20260E787E00E9403
:10157000AE056CE485E00E94AE0582EE0E94810516
:101580000E9494050E94DB0580E00E949705682F69
:101590006E7F80E00E94AE058DE10E949705682F66
:1015A00066608DE10E94AE058CE10E949705682F70
:1015B00063608CE10E94AE0511E01093C2028DE1E0
:1015C0000E949705682F64608DE10E94AE058CE152
:1015D0000E949705682F6F638CE10E94AE051093FF
:1015E000C2028091E5029091E602892B39F488EDE0
:1015F00092E00E94460682ED92E006C082ED92E003
:101600000E94460688ED92E00E9422060E94EC05A8
:101610000E944E0589EA0E94F4028091E7020E942E
:10162000F4020E944B058091E4028111CCC081E05C
:101630008093E4028091E5029091E602892B99F46F
:1016400082E391E00E9445040E94EC05CE010196E0
:101650000E945307CE0101960E945304CE010196C9
:101660000E94DA02F3CF65E471E0CE0101960E9498
:10167000DF02CE0101960E94A607CE0101960E94CC
:10168000DA0289E491E00E9445048AE0C82ED12C58
:10169000E12CF12C61E371E0CE0189960E94DF021A
:1016A000E091E502F091E602EA5FFE4F6081CE0133
:1016B00089960E9493018091F1021CA21BA21EA296
:1016C0001DA218A61FA24AE0BE016F5F7F4F90E0E7
:1016D0000E94C40CBE016F5F7F4FCE0183960E94B3
:1016E000AC02BE016D5D7F4FCE0189960E94620102
:1016F000CE0183960E94DA0268E4CE0189960E94A8
:1017000093016091E8027091E9028091EA02909160
:10171000EB021CA21BA21EA21DA218A61FA22AE059
:10172000AE014F5F5F4F0E94930CBE016F5F7F4F12
:10173000CE0183960E94AC02BE016D5D7F4FCE014B
:1017400089960E946201CE0183960E94DA021BA252
:101750001A8219821C821B821E821D82BE01675D55
:101760007F4FCE0101960E94C302CE0101960E94D6
:10177000A607B82ECE0101960E94DA02BB2029F0FE
:1017800087E10E94970580FF25C0CE0189960E94BF
:10179000DA02B11007C06AEF70E080E090E00E94CA
:1017A0006F0878CF8EE591E00E944504CE01019646
:1017B0000E945307CE0101960E945304CE01019668
:1017C0000E94DA02F3CF0E94DC062DCF81E08093E5
:1017D000C0029DCE61E0CE0183960E94110760E7B2
:1017E00087E00E94AE0586EA90E00E947E069BA1FB
:1017F000292F30E040E050E019A28E010F5D1F4F0D
:10180000CA01B901A70196010E94250D605DF8018A
:1018100062938F01211531054105510589F7CF01EB
:101820000E9433040E94EC05ABCFCF93DF93EDE130
:10183000F2E01382128288EE93E0A0E0B0E08483AD
:101840009583A683B7832FE031E03183208325EC95
:1018500030E03587248724EC30E03787268720EC7A
:1018600030E0318B208B21EC30E0338B228B22EC6B
:1018700030E0358B248B26EC30E0378B268B118EB5
:10188000128E138E148EE2EFF2E0138212828483A2
:101890009583A683B78381E291E09183808382E17F
:1018A000E2EDF2E0DF011D928A95E9F786E0E9E7D3
:1018B000F1E0A2EDB2E001900D928A95E1F786E0A9
:1018C000EFE7F1E0A8EDB2E001900D928A95E1F723
:1018D000CAEBD2E087E090E09983888388E090E0CB
:1018E0009B838A831E8280E28F831886198685E017
:1018F0008E8785E090E0A0E0B0E08C8B9D8BAE8B76
:10190000BF8B1AA684E090E09CA78BA781E08DA7EF
:101910001FAA0E944A086EA77FA788AB99AB1DA695
:10192000DF91CF910895BB272A3051F4992342F4D7
:10193000BDE290958095709561957F4F8F4F9F4F39
:101940000C94A30CBB27FA01A62F62177105810521
:101950009105330B30FB66F0AA27660F771F881FAF
:10196000991FAA1FA21710F0A21B63953850A9F760
:10197000A05DAA3308F0A95DA19336F7B111B19328
:101980001082CA010C94DE0CBB27FB015527AA2745
:10199000880F991FAA1FA41710F0A41B83955051FC
:1019A000B9F7A05DAA3308F0A95DA193009779F774
:1019B000B111B1931192CB010C94DE0CDC01FC014E
:1019C000672F71917723E1F7329704C07C916D9373
:1019D00070836291AE17BF07C8F308952F923F92AC
:1019E0004F925F926F927F928F929F92AF92BF922F
:1019F000CF92DF92EF92FF920F931F93CF93DF93DB
:101A0000CDB7DEB7CA1BDB0B0FB6F894DEBF0FBE37
:101A1000CDBF09942A88398848885F846E847D8484
:101A20008C849B84AA84B984C884DF80EE80FD8086
:101A30000C811B81AA81B981CE0FD11D0FB6F894FC
:101A4000DEBF0FBECDBFED010895A1E21A2EAA1B85
:101A5000BB1BFD010DC0AA1FBB1FEE1FFF1FA2175E
:101A6000B307E407F50720F0A21BB30BE40BF50B5B
:101A7000661F771F881F991F1A9469F760957095E4
:101A8000809590959B01AC01BD01CF010895EE0FAB
:101A9000FF1F0590F491E02D0994CF93DF938230DE
:101AA000910510F482E090E0E0910903F0910A03BF
:101AB00020E030E0C0E0D0E0309711F1408151816A
:101AC00048175907C0F04817590761F4828193817C
:101AD000209719F09B838A832BC090930A038093ED
:101AE000090326C02115310519F04217530718F4D0
:101AF0009A01BE01DF01EF010280F381E02DDCCF0E
:101B00002115310509F1281B390B2430310590F4DA
:101B100012968D919C9113976115710521F0FB012F
:101B20009383828304C090930A0380930903FD0189
:101B3000329644C0FD01E20FF31F8193919322502E
:101B400031092D933C933AC020910703309108034B
:101B5000232B41F4209102013091030130930803BB
:101B600020930703209100013091010121153105D7
:101B700041F42DB73EB74091040150910501241B5B
:101B8000350BE0910703F0910803E217F307A0F487
:101B90002E1B3F0B2817390778F0AC014E5F5F4FC3
:101BA0002417350748F04E0F5F1F509308034093EA
:101BB00007038193919302C0E0E0F0E0CF01DF9151
:101BC000CF9108950F931F93CF93DF93009709F45C
:101BD0008CC0FC013297138212820091090310918C
:101BE0000A030115110581F420813181820F931FB1
:101BF00020910703309108032817390779F5F093EE
:101C00000803E093070371C0D80140E050E0AE172D
:101C1000BF0750F412962D913C911397AD012115F9
:101C2000310509F1D901F3CF9D01DA013383228314
:101C300060817181860F971F8217930769F4EC0109
:101C400028813981260F371F2E5F3F4F3183208334
:101C50008A819B8193838283452B29F4F0930A0325
:101C6000E093090342C01396FC93EE931297ED01A3
:101C7000499159919E01240F351FE217F30771F422
:101C800080819181840F951F029611969C938E936B
:101C90008281938113969C938E931297E0E0F0E0FB
:101CA000D80112968D919C911397009719F0F80125
:101CB0008C01F6CF8D919C9198012E5F3F4F820F42
:101CC000931F20910703309108032817390769F4FF
:101CD000309729F410920A031092090302C013826C
:101CE00012821093080300930703DF91CF911F9195
:101CF0000F910895A0E0B0E0E0E8FEE00C94F20C53
:101D0000EC01009721F4CB010E944D0DB8C0FC01FD
:101D1000E60FF71F9C0122503109E217F30708F480
:101D2000ACC0D9010D911C91119706171707B0F09F
:101D30000530110508F49FC0C8010497861797075E
:101D400008F499C002501109061B170B0193119357
:101D50006D937C93CF010E94E20D8DC05B01A01AB0
:101D6000B10A4C01800E911EA0910903B0910A03A3
:101D700040E050E0E12CF12C109709F44AC0A8157E
:101D8000B905D1F56D907C901197630182E0C80E82
:101D9000D11CCA14DB0480F1A3014A195B096A0152
:101DA00082E0C80ED11C1296BC9012971396AC918B
:101DB000B5E0CB16D10440F0B282A38351834083B7
:101DC000D9016D937C930AC00E5F1F4FC301800F32
:101DD000911FF90191838083EB2DFA2FE114F10417
:101DE00031F0D7011396FC93EE93129744C0F09311
:101DF0000A03E09309033FC08D919C911197481706
:101E0000590708F4AC017D0112960D90BC91A02DEC
:101E1000B3CF809107039091080388159905E1F4E9
:101E200046175707C8F4809100019091010100976F
:101E300041F48DB79EB74091040150910501841B78
:101E4000950BE817F907C8F4F0930803E09307032C
:101E5000F901718360830FC0CB010E944D0D7C019D
:101E6000009759F0A801BE010E94490FCE010E94BF
:101E7000E20DC70104C0CE0102C080E090E0CDB702
:101E8000DEB7EEE00C940E0D81E090E0F8940C9437
:101E9000590FFB01DC0102C001900D9241505040EE
:101EA000D8F70895FB01DC0101900D920020E1F7C5
:061EB0000895F894FFCF35
:101EB60000000B03800046525A42550000000014F1
:101EC60009E6069F065B09D006AE06C206000000BC
:101ED600001E010A01D500C600CD00CA00C7000DCC
:101EE6000A0053746172742043656E7472616C6586
:101EF600206174200073656E005374617274204310
:101F06006F6D706F6E656E74202061742000434F94
:101F16004D502073746172742068616E646C652024
:101F2600726563696576656400314E6F646500327B
:101F36004E6F64650057726F6E6720636F6D706FCA
:101F46006E656E74210057726F6E67207061796CD2
:0A1F56006F61642073697A65210051
:00000001FF
