:100000000C946E000C9496000C9496000C94960040
:100010000C9496000C9496000C9496000C94960008
:100020000C9496000C9496000C9496000C949600F8
:100030000C9496000C9496000C9496000C949600E8
:100040000C94AF1C0C9496000C949F020C947902B3
:100050000C9496000C9496000C9496000C949600C8
:100060000C9496000C949600EC05320489068807DF
:10007000B007CE07D8077C07000000080002010087
:100080000003040700000000000000000000000062
:10009000250028002B0000000000240027002A0073
:1000A000040404040404040402020202020203031E
:1000B0000303030301020408102040800102040826
:1000C000102001020408102000010203040511128F
:1000D000131415160A0B0C0D0E0F9F2311241FBEAF
:1000E000CFEFD8E0DEBFCDBF12E0A0E0B1E0E6E3A5
:1000F000FCE402C005900D92A233B107D9F726E0C7
:10010000A2E3B2E001C01D92A63BB207E1F710E006
:10011000CEE6D0E004C02197FE010E94D824CD365F
:10012000D107C9F70E94F91C0C9419260C94000001
:10013000CF92DF92EF92FF920F931F93CF93DF93B3
:100140006C017A018B01C0E0D0E0CE15DF0589F0AB
:10015000D8016D918D01D601ED91FC910190F08156
:10016000E02DC6010995892B11F47E0102C021966C
:10017000ECCFC701DF91CF911F910F91FF90EF90CE
:10018000DF90CF900895FC01538D448D252F30E0F2
:10019000842F90E0821B930B541710F0CF96089594
:1001A00001970895FC01918D828D981761F0828DE1
:1001B000DF01A80FB11D5D968C91928D9F5F9F739B
:1001C000928F90E008958FEF9FEF0895FC01918D3D
:1001D000828D981731F0828DE80FF11D858D90E0AA
:1001E00008958FEF9FEF0895FC01918D228D892F47
:1001F00090E0805C9F4F821B91098F73992708952F
:1002000082E893E00E94F40021E0892B09F420E0C9
:10021000822F0895FC01848DDF01A80FB11DA35A20
:10022000BF4F2C91848D90E001968F739927848F16
:10023000A689B7892C93A089B1898C9180648C930D
:10024000938D848D981306C00288F389E02D8081F8
:100250008F7D80830895EF92FF920F931F93CF932A
:10026000DF93EC0181E0888F9B8D8C8D981305C006
:10027000E889F989808185FD24C0F62E0B8D10E078
:100280000F5F1F4F0F731127E02E8C8DE8120CC0EB
:100290000FB607FCFACFE889F989808185FFF5CF91
:1002A000CE010E940A01F1CF8B8DFE01E80FF11DF6
:1002B000E35AFF4FF0820B8FEA89FB8980818062CD
:1002C00007C0EE89FF896083E889F98980818064AD
:1002D000808381E090E0DF91CF911F910F91FF909B
:1002E000EF900895CF93DF93EC01888D8823C9F0B8
:1002F000EA89FB89808185FD05C0A889B9898C912F
:1003000086FD0FC00FB607FCF5CF808185FFF2CFC9
:10031000A889B9898C9185FFEDCFCE010E940A0191
:10032000E7CFDF91CF91089580E090E0892B29F00D
:100330000E94000181110C94000008950E940B2678
:100340000F931F93CF93DF9300917803109179035C
:10035000F801C281D0E0DC2FCC278381C80FD11DEA
:10036000B801645F7F4F48E050E0CE010E970E94D5
:10037000FF09AE0144515109B8016C5E7F4F0E94E4
:10038000FF09009721F098278927982702C08FEF4F
:100390009FEFDF91CF911F910F910895DC01ED91B7
:1003A000FC910190F081E02D09946115710579F0BF
:1003B000FB0101900020E9F73197AF01461B570B75
:1003C000DC01ED91FC910280F381E02D099480E045
:1003D00090E008954F925F926F927F92EF92FF921A
:1003E0000F931F93CF93DF93CDB7DEB7A1970FB6CF
:1003F000F894DEBF0FBECDBF7C01FA01CB0119A27C
:10040000223008F42AE08E010F5D1F4F422E512C3E
:10041000612C712CBF01A30192010E94B624F90145
:10042000CA01015011096A3014F4605D01C0695CB1
:10043000D8016C93232B242B252B61F7B801C7011E
:100440000E94D501A1960FB6F894DEBF0FBECDBFB6
:10045000DF91CF911F910F91FF90EF907F906F9060
:100460005F904F9008958F929F92AF92BF92CF92DC
:10047000DF92EF92FF920F931F93CF93DF937C0154
:100480008B016C0182E0C80ED11C4701E5E08E0EA5
:10049000911CC0E0D0E0F60141916F0150E060E0B6
:1004A00070E02AE0C8010E94EA015C016EE2C80126
:1004B0000E94CE018A0D9B1DC80FD91FC814D904F4
:1004C00051F7F701458150E060E070E02AE0C80193
:1004D0000E94EA018C0F9D1FDF91CF911F910F9118
:1004E000FF90EF90DF90CF90BF90AF909F908F9054
:1004F00008951F920F920FB60F9211242F933F93DE
:100500004F935F936F937F938F939F93AF93BF931B
:10051000EF93FF9382E893E00E940A01FF91EF912D
:10052000BF91AF919F918F917F916F915F914F910B
:100530003F912F910F900FBE0F901F9018951F9213
:100540000F920FB60F9211242F938F939F93EF93D7
:10055000FF93E0919203F09193038081E0919803DF
:10056000F091990382FD12C0908180919B038F5F6F
:100570008F7320919C03821751F0E0919B03F0E070
:10058000EE57FC4F958F80939B0301C08081FF91B4
:10059000EF919F918F912F910F900FBE0F901F9011
:1005A0001895CF92DF92EF92FF920F931F93CF9304
:1005B000DF93C0915802D0915902009178031091B5
:1005C0007903680128E2C20ED11CD0925702C09272
:1005D0005602D0925502C0925402833059F4898D4C
:1005E0008F70833009F062C588899989892B09F059
:1005F0005DC57EC0823009F081C0809152028F5F5C
:1006000080935202811113C0809151028F5F8093B9
:10061000510281110CC0809150028F5F8093500273
:10062000811105C080914F028F5F80934F0210921D
:100630004E0210924D0210924C0210924B02898D84
:10064000982F9D7F953041F48A8D8F5F8A8F8837F0
:1006500009F02CC5198E2AC5882309F427C52889D5
:100660003989232B09F440C09A8D2FEF290F2A8F47
:1006700091111CC59B8D9A3031F02FEF280F22303D
:1006800048F4933039F4198E80E8809353020E9425
:10069000160CCCC3953038F428E0092E01C0220F87
:1006A0000A94EAF701C020E82A8F9F5F9B8F8F7022
:1006B0008330A1F048F4813009F4C6C1823009F0DA
:1006C000F5C4F80111A2C6C1863009F450C38830C0
:1006D00009F44DC3843009F0E9C449C384E0809330
:1006E00053020E94160CDAC38F70833009F0DEC407
:1006F00088E0809353020E94160C8FC3F80180811A
:10070000853409F0D3C4E280F12CFE2CEE248381E1
:10071000E80EF11C80914D0290914E028E159F05BE
:1007200008F4C4C4F0924E02E0924D0286818F73A9
:1007300009F0BCC487818111B9C4C0917403D09100
:100740007503209731F48091760390917703892B7C
:1007500089F0F801808991898C179D0709F0A6C45A
:10076000228933898091760390917703281739077E
:1007700009F09CC40E94240A019609F097C4F8016C
:100780008185863031F1813009F090C484898830C8
:1007900009F08CC4148A86899789873FFFEF9F07E9
:1007A00010F0099601C00896F801978B868BF80126
:1007B00084859585918B808B86859785938B828B9D
:1007C000D587C48780917603909177039787868732
:1007D00071C40E94A001019609F068C490916C0355
:1007E000F80181A1992329F146895789209157035E
:1007F0003091580342175307E1F4448955892091F9
:10080000590330915A034217530799F4448555858B
:1008100020915303309154034217530751F44685F6
:10082000578520915503309156034217530709F419
:1008300027C18F73823009F5F801268937893093F3
:100840005E0220935D024091710350917203241760
:10085000350709F03AC4911161C010927303C3E5E2
:10086000D3E066C08091530280FDCEC180E28093C8
:1008700053020E94160C10926C03E0917803F091E1
:10088000790381A182FD12C484E181A388E290E012
:1008900090934E0280934D0280E580A3338D878D27
:1008A000838F228D868D828F268F918D858D818F6E
:1008B000958F808D80937303448D408F848F3F5F2D
:1008C000378F31110AC02F5F268F211106C09F5F1D
:1008D000958F911102C08F5F848F84899589909341
:1008E0005E0280935D0226893789358B248B978B36
:1008F000868B84859585918B808B86859785938B58
:10090000828B809174039091750395878487809181
:100910007603909177039787868799C3973019F06C
:10092000C0E0D0E002C0C3E5D3E081E08093730370
:10093000209709F4BBC3D0935902C093580288E0B2
:100940008A8F888F1E8A84E08F8B1B8EF8018689A0
:1009500097899D838C83848995899F838E838485E1
:10096000958599838883868597859B838A8381E093
:10097000898F80914F028C87809150028D87809162
:1009800051028E87809152028F8781E090E0998B8F
:10099000888B838D8B87828D8A87818D8987808DD7
:1009A000888781E090E00E945123A0917803B09164
:1009B000790390968C919097982F907F913508F4B9
:1009C00043C01092730382958F7090E00597880F53
:1009D000991F880F991F20915C0230917303E32FB8
:1009E000F0E0E817F90774F5EA0FFB1F20A52111C5
:1009F00003C010925C0228C0213011F43F5F1FC079
:100A00002230C9F441A54430B1F420935C0282A5A0
:100A100090E0982F882723A5822B90935E028093E5
:100A20005D028836910510F087E690E09B8B8A8BFB
:100A30009D8B8C8B09C041A5442321F0340F30934A
:100A40007303CBCF20935C02E0917803F09179039C
:100A500080E181A3E0917803F091790381A1826024
:100A600081A382E080A784E081A712A687E683A7FE
:100A70008CE290E090934E0280934D0280E6ABC2F0
:100A800023E533E030935902209358021092530229
:100A900082FF04C010926C0380E235C2F80120A1ED
:100AA00022952F70220F220F20937303E21AF10870
:100AB000E7016497D0934E02C0934D029F7092302D
:100AC00021F4982F9F739231D1F0209719F4982F29
:100AD0009370A9F0F801208D90915B03291368C2EF
:100AE000218D90915C03291363C2228D90915D0347
:100AF00029135EC2238D90915E03291359C284FF8E
:100B00005BC060916303709164036115710509F422
:100B100053C08FE593E00E946923E0917803F09140
:100B20007903348D80914702381346C0258D80911A
:100B30004802281341C0968D8091490298133CC009
:100B4000878D40914A02841337C030935F0320930E
:100B50006003909361038093620380916E0381111F
:100B600020C09091690380916B0320916D03821BDB
:100B7000292F269526952695821B980F9093690319
:100B800087FD819520916A03322F36953695231B78
:100B9000820F80936A03969596959695890F809318
:100BA0006B0381E08093530280916B0380936D030C
:100BB000109264031092630320916C03E22FEF7094
:100BC0008E2F90E0FC013197E830F10508F06EC2FD
:100BD000EC5CFF4F0C94D8248091530280FF66C2D6
:100BE00083E080936C0380E480935302109264034B
:100BF00010926303209709F483C082E48093530228
:100C0000CE010E9451237CC0E0917803F0917903DA
:100C100081A18F73823109F029CE80A1982F907F16
:100C2000913508F44FC01092730382958F7090E055
:100C30000597880F991F880F991F20915C023091AA
:100C40007303A32FB0E0A817B907D4F5AE0FBF1FE9
:100C500098962C919897211103C010925C0232C093
:100C6000213011F43F5F29C0223011F599964C9143
:100C700099974430E9F420935C029A968C919A9764
:100C800090E0982F88279B962C91822B90935E0260
:100C900080935D028836910510F087E690E090938E
:100CA00066038093650390936803809367030AC08B
:100CB00099964C91442321F0340F30937303BFCFA6
:100CC00020935C0283E080936C03808D80935B03B0
:100CD000818D80935C03828D80935D03838D8093EF
:100CE0005E0381E090E00E94512382E480935302EE
:100CF000109264031092630310924E0210924D0200
:100D000010924C0210924B020E94160CC3E5D3E0E5
:100D100084C0E0917803F091790381A180FF2EC017
:100D200024FD2CC08091630390916403892B09F00A
:100D3000BDC1C70143970E94512380915302982F50
:100D4000906190935302CD2B19F0826180935302EE
:100D50000E94160C81E090E09093640380936303FB
:100D600088E080936C0310926E03C3E5D3E0E091BA
:100D70007803F091790381E181A322C185FF12C03C
:100D800086A190E0982F882737A1832BC80ED91E03
:100D9000D0925702C0925602C81BD90BD0934E0274
:100DA000C0934D0240914D0250914E0241155105A4
:100DB00051F024FD08C09091530292609093530229
:100DC000CA010E945123E0917803F091790382A136
:100DD00090E0982F882723A1820F911D90935E02A7
:100DE00080935D02209167033091680328173907CB
:100DF00010F0892B21F430935E0220935D028091E4
:100E00005D0290915E0290936603809365038091EA
:100E10005302837009F44AC173CF8091530285FF56
:100E20000BC010924C0210924B02198EE091780385
:100E3000F091790384E1A0CF84FF0CC010924C02A2
:100E400010924B0281E090E0998B888B84E0898F2F
:100E50001B8E8DCF20914B0230914C022115310514
:100E6000E1F080FF02C0198A188A88899989009761
:100E700081F48A899B898217930720F490934C020E
:100E800080934B0280914B0290914C02998B888BFE
:100E900004C090934C0280934B021B8E80915402AD
:100EA00090915502909357028093560280914B0285
:100EB00090914C02892B79F088899989009759F093
:100EC000889690934E0280934D02E0917803F091C2
:100ED000790388E10FC08091530281FFE7C088E267
:100EE00090E090934E0280934D02E0917803F09150
:100EF000790380E181A36AC08091530280FFD6C04C
:100F000010926C0380E1809353020E94160CCEC0B5
:100F1000209719F0CE010E945123E0917803F091BF
:100F2000790391A18091530290FF10C080FF0AC005
:100F300087E080936C0310926D031092640310920B
:100F400063031FC086E080936C031BC080FF23C037
:100F500085E080936C031092640310926303A6C033
:100F6000209719F0CE010E945123E0917803F0916F
:100F7000790381A180FF0FC087E080936C031092FA
:100F80006D0381E090E00E94512380E18093530241
:100F90000E94160C0DC0CD2B59F488C080915302CD
:100FA00080FF84C087E080936C0310926D037EC045
:100FB000E0917803F091790380E181A3C3E5D3E068
:100FC00088E290E090934E0280934D02E091780386
:100FD000F091790380E580A3E0917803F0917903A3
:100FE0008885848F8985858F8A85868F8B85878F75
:100FF0008C85808F8D85818F8E85828F8F85838F65
:1010000086E081878C819D81958B848B8E819F81E9
:10101000978B868B80917403909175039587848755
:10102000809176039091770397878687888199814D
:10103000918B808B8A819B81938B828B898D84FF9E
:1010400003C013A212A203C012A28DE583A3C09114
:101050007803D091790380E4888780914D02909144
:101060004E029A838B831FA21EA21DA21CA20E9465
:10107000A001809590959DA38CA385E48883198217
:101080001F821E8280915A0290915B02019690937A
:101090005B0280935A029C838D831B861A860E9472
:1010A000240A809590959B878A8704C010924E02EF
:1010B00010924D0210925302DF91CF911F910F9128
:1010C000FF90EF90DF90CF90089581E080937303BD
:1010D000D4CBCF93DF93EC01E881F981008CF18DC3
:1010E000E02D0995882339F0EC85FD851182EA51C0
:1010F000FF4F11821082DF91CF910895CF93DF933C
:10110000EC01E881F9810084F185E02D0995892BB6
:1011100071F0EC85FD85DF01AC51BF4F8D919C9145
:10112000E80FF91FE358FF4F808190E002C08FEF76
:101130009FEFDF91CF910895CF93DF931F92CDB7AB
:10114000DEB7DC01ED91FC910288F389E02D41E0EE
:1011500050E0BE016F5F7F4F099597FD03C0898105
:1011600090E002C08FEF9FEF0F90DF91CF91089535
:10117000FC01448555854115510551F0FB0124853D
:1011800035852115310521F081E04217530709F01B
:1011900080E0089580E090E00895DC011C96ED91D8
:1011A000FC911D97309739F08181811106C08081B3
:1011B00082958170089580E0089581E00895DC01B2
:1011C000ED91FC91028CF38DE02D099591E089273A
:1011D0000895089580E090E00895CF93DF93DC01B7
:1011E000FB01EC01C359DE4F688179812296988119
:1011F000828140815181823028F0BA0181E083836D
:1012000090E027C0ED01C059DE4F28813981EA0105
:10121000C223D323D2960D90BC91A02DCA17DB0711
:10122000C1F4C9018095909563E0880F991F6A9574
:10123000E1F784239523892B51F083E0220F331F9C
:101240008A95E1F72760BA016223732301C0BA01CE
:1012500095E071836083928381E0DF91CF9108955F
:101260000F931F93CF93DF93CDB7DEB728970FB6B9
:10127000F894DEBF0FBECDBF1C821B82809100019F
:10128000909101019C012F5F3F4F3093010120930A
:1012900000019E838D8383E88F8320914D023091DE
:1012A0004E02409178035091790308E310E0BE01AB
:1012B0006F5F7F4F8091D6049091D7040E94211ACE
:1012C00028960FB6F894DEBF0FBECDBFDF91CF9149
:1012D0001F910F910895CF92DF92EF92FF920F939B
:1012E0001F93CF93DF9300D0CDB7DEB78C017B0186
:1012F000DC01ED91FC91008CF18DE02D49835A8346
:10130000099549815A81882309F46CC0F801A485A4
:10131000B58511968C911197882309F463C0FD015E
:10132000EA51FF4F808191816A018C159D0508F477
:101330006C01FD01EC51FF4F2081318123583F4F5B
:10134000BD01620F731FA601C7010E941026D801BC
:101350001C96ED91FC911D97DF01AA51BF4F8D9115
:101360009C9111978C199D0911969C938E931297BD
:101370002D913C9111972C0D3D1D11963C932E9370
:10138000892B71F511821D921C928081A82FAF705C
:101390009EE1A99FD0011124AD5ABC4F59969C9152
:1013A00094FF0EC0982F907659F480688083D801FE
:1013B0001C96ED91FC911D97128613861486158656
:1013C000D8011C96ED91FC911D978181811108C077
:1013D000808186FF05C010821D961C921E921C976C
:1013E000C60102C08FEF9FEF0F900F90DF91CF915A
:1013F0001F910F91FF90EF90DF90CF900895FB0128
:1014000041505109460F571FE417F50778F4208122
:1014100030E0322F22276181260F311D820F931F6A
:101420008217930708F401963296EECFE417F5077A
:1014300051F4208130E0322F2227820F931F821730
:10144000930708F4019608956091780370917903E9
:1014500044E150E080E090E00E94FF09009721F015
:1014600098278927982708958FEF9FEF0895CF92A7
:10147000DF92EF92FF920F931F938091D604909189
:10148000D7040E947418833869F4E091D604F0916F
:10149000D70407A0F0A5E02D8085918590934E029A
:1014A00080934D0280914D0290914E02892B89F0DC
:1014B00081E00E94D10280914D0290914E02892BD1
:1014C000D9F11F910F91FF90EF90DF90CF900C9486
:1014D00030090E940E11C090DB04D090DC04E09033
:1014E000DD04F090DE040091DF041091E00420910F
:1014F000E1043091E204AB01BC014C195D096E09B5
:101500007F094017510762077307B0F0D901C8017E
:101510008C0D9D1DAE1DBF1D8093DB049093DC04DC
:10152000A093DD04B093DE0483E593E09093590229
:101530008093580282E0BDCF1F910F91FF90EF90F2
:10154000DF90CF900895CF93DF93EC010E94370A8C
:10155000E881F981008CF18DE02DCE010995882379
:1015600051F0EC85FD858181882329F0EA51FF4FF8
:101570008081918102C080E090E0DF91CF91089559
:101580007F928F929F92AF92BF92CF92DF92EF9213
:10159000FF920F931F93CF93DF93EC016B017A01BE
:1015A0008A014836510510F007E610E00E940E113E
:1015B000812C912C5E01E8EEAE0EB11C7724739461
:1015C0000E94370A209781F18881982F907661F5E3
:1015D00084FF2AC08B819C819801280F391F2836EF
:1015E000310570F7F50120812111EACF4696B60149
:1015F000680D791DA8018C0F9D1F0E9410267A820C
:101600008B819C81800F911F9C838B83800E911E08
:101610008E149F0470F48701081919090836110502
:1016200078F207E610E0CCCFC851DF4F18828FEF79
:101630009FEFDF91CF911F910F91FF90EF90DF907F
:10164000CF90BF90AF909F908F907F900895FC01B6
:10165000848595850C94C00ACF93DF931F92CDB7F4
:10166000DEB7698341E050E0BE016F5F7F4FFC0150
:10167000848595850E94C00A0F90DF91CF910895CF
:10168000CF93DF93EC010E94370AEC85FD853097FC
:1016900029F0808186FF04C0818103C080E001C001
:1016A00081E0DF91CF910895CF93DF93DC011C9609
:1016B000ED91FC911D97309779F09081992361F01D
:1016C0001182EF01CA51DF4F1982188296FF02C0C2
:1016D000108202C0906290831D961C921E921C97ED
:1016E000DF91CF910C94370AEF92FF920F931F93E3
:1016F000CF93DF938C017B01EA010E940E11D80188
:10170000ED91FC910488F589E02DC8010995F70158
:10171000828190E0982F88272381822B9827892720
:101720009827248130E0322F22274581242B32272D
:1017300023273227FC2FED2F609151037091520324
:1017400050916C03C0915703D09158036F5F7F4F46
:1017500061154DE7740710F060E070E1B62FA72F18
:10176000552319F0CA17DB0789F37093520360936E
:101770005103511105C010927303C3E5D3E00AC0B1
:10178000573019F0C0E0D0E002C0C3E5D3E041E03B
:1017900040937303209719F480E090E040C042E04A
:1017A000498F40914F024C87409150024D874091A4
:1017B00051024E87409152024F8767E670E07B8B63
:1017C0006A8B7D8B6C8B41E050E0598B488B1B8E74
:1017D0004A8F48E0488F1E8A40E14F8B6091510349
:1017E000709152037627672776277D836C83FF836A
:1017F000EE83998388833B832A83898D8F7061F27E
:101800000E94370A898D8F708330B9F78C8D9D8D3A
:10181000D8011D969C938E931C9781E090E0DF91F8
:10182000CF911F910F91FF90EF9008950F931F9309
:10183000CF93DF93E0915802F0915902C48DD58D7A
:1018400080915302209701F586FF6BC190915F0252
:10185000911167C190E190935F0210926002109223
:1018600061021092460310924503109244031092B5
:1018700043031092630210926202109247032FE515
:1018800032E0358F248FE90181FF4FC0DE01A7517F
:10189000BF4F8C91882331F01A8219861C821B82DB
:1018A00011971C9280914D0290914E02892B09F460
:1018B000ECC08881807609F0E8C0818D8061818FDD
:1018C00088818F77888319860E940E116A877B87AB
:1018D0008C879D876A8B7B8B8C8B9D8B8E010A51AD
:1018E0001F4FF80120813181329780819181820FD1
:1018F000931F83589F4F60915602709157024091F9
:101900004D0250914E028C0F9D1F0E941026209177
:101910004D0230914E02F80180819181820F931F18
:101920009183808381E08983B0C084FD04C087FDFA
:1019300002C085FF10C01A828981882341F084810A
:1019400095819B838A8388818064888301C0188203
:10195000158E148E9AC080FF15C088818F7788837A
:101960001A8219861C821B82FE01E851FF4F1082E9
:101970000E940E116A877B878C879D876A8B7B8B81
:101980008C8B9D8B809153028C7009F466C08A8188
:10199000882309F14B815C8150934E0240934D02A4
:1019A000BE016A5E7F4F50934C0240934B02141667
:1019B00015064CF4809154029091550268177907EE
:1019C00011F00E94102681E0FE01E851FF4F808354
:1019D000319680835AC08881982F9076F1F5998549
:1019E0009923D9F187FF39C00E940E110A851B8502
:1019F0002C853D85DC01CB01801B910BA20BB30B29
:101A00000E851F8528893989081719072A073B077A
:101A100008F465C022C08E859F85A889B9898C503D
:101A20009E4FAF4FBF4F8935FBE19F07A105B10521
:101A300020F088E59BE1A0E0B0E08E879F87A88B2F
:101A4000B98B80915302826080935302E0915802D7
:101A5000F0915902818D8F7E818F888185FF15C01D
:101A60008A8181110BC01882E0915802F0915902CD
:101A7000158E148E80E18093530207C0E0915802C6
:101A8000F0915902818D8061818F888187FF49C0E3
:101A90009985911146C0807609F043C08091530228
:101AA000826080935302E0915802F0915902818D37
:101AB0008F7E818F81E089878EE194E1A0E0B0E0A4
:101AC0008E879F87A88BB98B0E940E116A8B7B8BA8
:101AD0008C8B9D8B6A877B878C879D8722C00E9419
:101AE0000E116A877B878C879D870E940E110A8959
:101AF0001B892C893D89DC01CB01801B910BA20B3A
:101B0000B30B80339547A105B10508F484CF19863E
:101B10001882E0915802F0915902158E148E80E2DD
:101B2000AACFDF91CF911F910F910895CF93DF93AB
:101B3000CDB7DEB728970FB6F894DEBF0FBECDBF86
:101B4000AC019CEC99839A839B839C839D831E822A
:101B50001F8218869A01E1E021153105C9F0611153
:101B600003C04115510569F4D901A770BB27A15FD6
:101B7000BE4F8C91A1E0B0E0AC0FBD1FAE0FB11D08
:101B80008C9383E0369527958A95E1F7EF5FE4CF54
:101B9000611102C0452B39F4E62FF0E0E15FFE4F02
:101BA0008081898305C0F0E0E25FFE4F80818A83F7
:101BB00029813A814B815C816D817E818F819885FD
:101BC00028960FB6F894DEBF0FBECDBFDF91CF9140
:101BD00008956F927F928F929F92AF92BF92CF9211
:101BE000DF92EF92FF920F931F93CF93DF93CDB7C6
:101BF000DEB728970FB6F894DEBF0FBECDBF8C01BD
:101C0000CB01D22E642F0E94960D39014A015B014F
:101C10007C01F80182A582FD04C087A590A90E94DD
:101C2000DB16F80187A590A9DD2011F060E001C066
:101C300061E00E941D1BF801C7A4D0A869827A82C6
:101C40008B829C82AD82BE82EF82F886F601268569
:101C5000AE014F5F5F4F6AE0C6010E943016F60189
:101C60002685AE014F5F5F4F60E1C6010E943016CE
:101C7000F601478161E1C6010E940C16F801B4A883
:101C8000C7A4D0A86FEFC6010E94ED1580FF0DC05C
:101C90006FEFC6010E94ED1584FFF4CF40E167E0CD
:101CA000C6010E940C16F12C30C0F601F780EF2C13
:101CB000BF1408F4EB2CF6018085811102C0FE18D8
:101CC00001C0F12CC6010E94E31580EA0E94E615CE
:101CD0005801F7E0AF0EB11CEA0CEA1431F0F5013F
:101CE00081915F010E94E615F8CFFF2029F080E086
:101CF0000E94E615FA94F9CFC6010E94E01561E052
:101D0000C6010E94BC15FF24F394F80182A582FD50
:101D10000FC0418152816381748187A590A90E947F
:101D2000321BF82E60E0F80187A590A90E941D1BC8
:101D30008F2D28960FB6F894DEBF0FBECDBFDF9172
:101D4000CF911F910F91FF90EF90DF90CF90BF90B8
:101D5000AF909F908F907F906F900895CF92DF9279
:101D6000EF92FF920F931F93CF93DF9300D000D099
:101D7000CDB7DEB7FC0195859B012115310561F0DA
:101D8000822F8770863030F483E0369527958A95C8
:101D9000E1F7F3CF80E097C09154EE24E3949F37AE
:101DA00008F0E12CF42E6B018F0119821A821B823C
:101DB0001C827A8369834B83BE016F5F7F4FCF01A3
:101DC0000E94ED0869817A812C814B81C8010E94B3
:101DD000E90DF1E0FF1227C0811102C0F12C6AC0A9
:101DE00089819A818C159D0501F5EE20F1F081EC39
:101DF000F801858787819085928781879A83898377
:101E0000FB821C82BE016F5F7F4FC8010E94ED08FC
:101E100088E0F80184AB69817A812C814B81C8010B
:101E20000E94E90D02C08823C9F289819A818C152C
:101E30009D0519F4FF24F3943DC0FF2019F0F3E051
:101E4000FF12F8CFEE20B1F3F80182A582FF11C096
:101E5000418152816381748187A590A90E94321BC0
:101E6000F80182A58B7F82A760E087A590A90E94D8
:101E70001D1BF80187A590A90E94DB190E940E1175
:101E80006B017C01C8010E947418813C99F20E9488
:101E90000E11AB01BC014C195D096E097F09F801F7
:101EA00085819681A0E0B0E084179507A607B70763
:101EB00048F794CFF80182A582FD04C087A590A9B8
:101EC0000E94DB198F2D0F900F900F900F90DF91D4
:101ED000CF911F910F91FF90EF90DF90CF900895D9
:101EE000EF92FF920F931F93CF93DF93EC017B014F
:101EF000BA018AA99BA9F70191838083DE01179615
:101F000088E001900D928A95E1F72115310529F0BD
:101F1000A901CE010F960E941026F70162817381FC
:101F20000833110561F06034710511F444E001C01B
:101F300043E06017710709F442E0B80101C040E0D6
:101F4000CE01DF91CF911F910F91FF90EF900C94F4
:101F5000AE0E3FB7F89480914D0390914E03A0913F
:101F60004F03B091500326B5A89B05C02F3F19F031
:101F70000196A11DB11D3FBFBA2FA92F982F882709
:101F8000820F911DA11DB11DBC01CD0142E0660F64
:101F9000771F881F991F4A95D1F7089590E0FC019B
:101FA000EC54FF4F2491FC01E056FF4F84918823AD
:101FB00099F090E0880F991FFC01EA56FF4FA59118
:101FC000B491FC01E457FF4F859194918FB7F89439
:101FD000EC91E22BEC938FBF0895FC01248130E05B
:101FE000322F22278581282B322723273227AEE75D
:101FF000B3E09281892F90E0982F88274381842B2A
:1020000098278927982711969C938E9313963C9333
:102010002E9312970895FC0182819381A481B5814A
:102020008093B6049093B704A093B804B093B90416
:102030008BE597E09093BD048093BC041092BB04A1
:102040001092BA0485E294E008958091250490915D
:102050002604009759F1DC01ED91FC910688F7897F
:10206000E02D0995811124C08091C0049091C10494
:10207000892BE1F48DEF9FEF9093C1048093C0040E
:102080008091250490912604DC01ED91FC9106805D
:10209000F781E02D09958091250490912604DC01BB
:1020A000ED91FC910488F589E02D099580E0089573
:1020B00081E00895CF93DF93DC014E5F5F4FFC0119
:1020C0009F012A1B3B0B9191992339F0EB01C40F1F
:1020D000D51F98834F5F5F4FF3CFCA01821B930BCD
:1020E000680F791FFB013297308331962083CA0134
:1020F000DF91CF91089590E0FC01E858FF4F3491B3
:10210000FC01EC54FF4F2491FC01E056FF4FE49199
:10211000EE2309F43BC0332339F1333091F038F426
:102120003130A9F0323001F584B58F7D12C03730DF
:1021300091F03830A1F03430B9F4809180008F7D77
:1021400003C0809180008F77809380000DC084B59C
:102150008F7784BD09C08091B0008F7703C08091D4
:10216000B0008F7D8093B000F0E0EE0FFF1FE457CA
:10217000FF4FA591B4918FB7F894EC91611103C012
:1021800020952E2301C02E2B2C938FBF08958230D3
:10219000910538F0880F991F880F991F05970197AF
:1021A000F1F708958F929F92AF92BF92CF92DF92F4
:1021B000EF92FF926B017C010E94A90F4B015C0121
:1021C000C114D104E104F10401F10E94370A0E9414
:1021D000A90FDC01CB0188199909AA09BB09883E1E
:1021E0009340A105B10560F321E0C21AD108E108CE
:1021F000F10888EE880E83E0981EA11CB11CC11462
:10220000D104E104F10419F7DBCFFF90EF90DF90E8
:10221000CF90BF90AF909F908F9008952FB7F89474
:102220006091490370914A0380914B0390914C0354
:102230002FBF08952F923F924F925F926F927F929D
:102240008F929F92AF92BF92CF92DF92EF92FF92C6
:102250000F931F93CF93DF93CDB7DEB761970FB680
:10226000F894DEBF0FBECDBF67E18091E904909185
:10227000EA040E94671680FD03C080E090E06EC112
:102280008091E9049091EA040E94DB16E091EB044E
:10229000F091EC0482A5826082A76AE070E080E0A1
:1022A00090E00E94D21064E279E08091EB0490917A
:1022B000EC040E94821B84E299E09093E4048093F2
:1022C000E3040E940E112B013C01C12CE12C90E48F
:1022D000292E312C3C862B868091000190910101A2
:1022E0009C012F5F3F4F30930101209300019E8797
:1022F0008D8782EC8F878091EB049091EC04FC0138
:1023000022A933A93A872987EE2089F02E2D30E0C3
:1023100021503109A901440F551F240F351F01E039
:1023200010E002C0000F111F2A95E2F702C000E082
:1023300010E020E030E040E050E0BE01675F7F4FFA
:102340000E94211A0E940E114B015C01F12C809118
:10235000EB049091EC040E947418823C89F4FE0115
:102360003196EF0DF11DEF0DF11DA091EB04B09131
:10237000EC0417968D919C91189791838083F39428
:102380000E940E11DC01CB0188199909AA09BB0929
:10239000C897A105B10520F4F3E0FF15C0F633C0DE
:1023A000F11031C00E940E11DC01CB018419950996
:1023B000A609B70981369A4EA105B10508F05DCF8F
:1023C0002C2D30E02F5F3F4F8E2D90E00196289FFF
:1023D000B001299F700D389F700D1124675E7F4FEB
:1023E000660F771F072E000C880B990B0E94D210E6
:1023F00081E08E0D8370E82E81E08C0D6AE00E94F2
:102400009624C92E67CFD12C198ADF1408F03FC05B
:1024100023EC2F878091E504888BFE013196ED0D2A
:10242000F11DED0DF11D008111811C870B8720E04E
:1024300030E040E050E0BE01675F7F4F8091EB04E9
:102440009091EC040E94211A0E940E114B015C0134
:102450000E940E11DC01CB0188199909AA09BB0958
:10246000813E9105A105B10550F48091EB04909156
:10247000EC040E947418898B803851F7DF2C65E0DA
:1024800070E080E090E00E94D210D394BECF8989A2
:10249000803809F087CFE091EB04F091EC04878558
:1024A0009089009709F47ECF36852091E504321398
:1024B00079CF9093E4048093E3048091E9049091B0
:1024C000EA040E94DB166AE070E080E090E00E947F
:1024D000D2106091E3047091E4048091EB04909138
:1024E000EC040E94821B1C861B86E1E8EF8787E0D4
:1024F000F82E08E310E020E030E040E050E0BE01BC
:10250000675F7F4F8091EB049091EC040E94211A49
:10251000811119C0FA94F1100FC064E279E0809142
:10252000EB049091EC040E94821B84E299E090936A
:10253000E4048093E30436CF63E070E080E090E051
:102540000E94D210D6CFE091EB04F091EC0482A56A
:102550008D7F82A78091E3049091E40461960FB689
:10256000F894DEBF0FBECDBFDF91CF911F910F91C9
:10257000FF90EF90DF90CF90BF90AF909F908F90A3
:102580007F906F905F904F903F902F900895CF92E3
:10259000DF92EF92FF921F93CF93DF93CDB7DEB719
:1025A000C254D1090FB6F894DEBF0FBECDBFDC0117
:1025B00012963C91129713964C91139714962C9166
:1025C000149715968C913FAF21964FAF2197229685
:1025D0002FAF229711E023961FAF23972396CCAC01
:1025E000DDACEEACFFAC2397CBAADCAAEDAAFEAA29
:1025F00039AF4AAF2BAF8CAF3DA74EA72FA718AB73
:10260000CDA4DEA4EFA4F8A8CFA2D8A6E9A6FAA686
:102610001EABCBA8DCA8EDA8FEA8C9A2DAA2EBA24B
:10262000FCA23B8F4C8F2D8F8E8F1AA77FA168A5A0
:1026300059A591E07D8B6E8B5F8B988F1CA3C9A0F1
:10264000DAA0EBA0FCA0CF86D88AE98AFA8A39877B
:102650004A872B878C87262F652F1A8B8F85988921
:10266000A989BA898B839C83AD83BE83DB848C85E7
:1026700094EDE92E94E0F92ED7011496ED91FC919A
:10268000159782831296ED91FC91139707A0F0A500
:10269000E02D0284F385E02DF0937903E093780335
:1026A000E4E7F3E050E0532B5427452754275183A8
:1026B000408390E09D2998278927982793838283D8
:1026C000EEE7F3E0822F90E0972B92278927982757
:1026D00091838083862F90E0916093838283EAE7E1
:1026E000F3E08FEF9FEF918380838FEF90E09383F0
:1026F00082831E838B819C81AD81BE818093210466
:1027000090932204A0932304B09324048EE390E0DA
:10271000A0E0B0E0F70183879487A587B6870E9481
:102720000E11D70117966D937D938D939C931A97F5
:10273000109272031092710310926C031093730342
:1027400080E094E09093520380935103CE5BDF4F7F
:102750000FB6F894DEBF0FBECDBFDF91CF911F91B2
:10276000FF90EF90DF90CF900895CF92DF92EF929D
:10277000FF92CF93DF93EC010E940E116B017C015D
:102780008091250490912604DC01ED91FC91008458
:10279000F185E02D0995892B79F40E940E11AB018A
:1027A000BC014C195D096E097F0948395A4361051E
:1027B000710530F380E00DC08091250490912604CE
:1027C000DC01ED91FC910284F385E02D099588836D
:1027D00081E0DF91CF91FF90EF90DF90CF9008954F
:1027E0005F926F927F928F929F92AF92BF92CF92A1
:1027F000DF92EF92FF920F931F93CF93DF931F927D
:10280000CDB7DEB74C0187E294E00E94B513811189
:1028100026C022C00F5F1F4F8981F801EB5DFB4F7F
:102820008183282F2F7730E02C9DA0012D9D500D06
:102830003C9D500D1124A40EB51E37E0CC0CDD1CC0
:10284000EE1CFF1C3A95D1F787FF15C0CE0101960B
:102850000E94B5138111DECF80E090E088C07090B7
:102860002704198201E010E0A12CB12CC12CD12C3D
:102870007601C394EBCF872D807F5524539480330A
:1028800009F0512C8FEF800FD4018C93552021F14A
:10289000C801895D9B4F0E94B5138823E9F2C801E6
:1028A000885D9B4F0E94B5138823B1F20E5F1F4FC6
:1028B000D401EC91F0E0EB5DFB4FE380F12CFE2CBA
:1028C000EE248481E80EF11C8091270481FF08C06A
:1028D000B2E0EB0EF11C04C080E0E12CF12C01C051
:1028E00082E0C82ED12CC01AD10A9EEF692E77241F
:1028F0007A94C601800F911F8A159B0568F5CE0159
:1029000001960E94B513882309F4A6CF8091BE04D6
:102910009091BF040097A9F0552099F0F40120810F
:10292000A301421B51099A01200F311FE216F30641
:1029300040F4DC01ED91FC910190F081E02D698182
:1029400009950038110528F48981F801EB5DFB4FEA
:1029500082830F5F1F4FCDCF8091BE049091BF0443
:10296000892B21F40138110508F076CFC8010F90AA
:10297000DF91CF911F910F91FF90EF90DF90CF905B
:10298000BF90AF909F908F907F906F905F900895D1
:10299000CF92DF92EF92FF920F931F93CF93DF932B
:1029A00000D000D0CDB7DEB79A01E0E0922F9F773C
:1029B000220F232F221F330B31952115310509F0EA
:1029C000906801E00E0FA1E0B0E0AC0FBD1FAE0FAC
:1029D000B11DFD0190832115310511F0E02FE6CFE7
:1029E00010E0DB01A01BB10B14968C93FE01319615
:1029F0006F0180E090E08017910764F4F601F19098
:102A00006F019C01201B310B260F371FF901F58246
:102A10000196F1CF80912504909126044F5F5F4F7E
:102A2000040F151FFC0120813181F90122813381BE
:102A3000A801BD01F90109957C010E940E11609366
:102A4000A9047093AA048093AB049093AC0481E032
:102A5000E016F10609F080E00F900F900F900F90B4
:102A6000DF91CF911F910F91FF90EF90DF90CF906A
:102A70000895EF92FF920F931F93CF93DF937C0102
:102A80008B01EB0109900020E9F72197C61BD70BBA
:102A90000E9425108823B1F1F70101900020E9F789
:102AA0003197EE19FF09CE010796E80FF91FE138BB
:102AB000F10540F545E050E067E274E0C7010E948F
:102AC0005A10F80120E030E02C173D0759F04191F1
:102AD000D901A80FB91FAB5DBB4F12964C932F5F66
:102AE0003F4FF2CF25503109A901480F591F67E226
:102AF00074E080E3DF91CF911F910F91FF90EF90F1
:102B00000C94C81480E0DF91CF911F910F91FF903A
:102B1000EF900895EF92FF920F931F93CF93DF935F
:102B2000EC017B018A016AE172E082E893E00E9495
:102B3000D501BE0182E893E00E94D5016CE272E00B
:102B400082E893E00E94D501E7010E0D1F1DC0171A
:102B5000D10731F0699182E893E00E94CE01F7CF6E
:102B60006FE272E082E893E0DF91CF911F910F91C5
:102B7000FF90EF900C94D501FC012081318182817E
:102B800093812817390719F0822F0C947B10089530
:102B9000CF93DF93EC019CB59F7D9CBD9CB5937F4B
:102BA0009CBD9CB59C7F9CBD9DB591609DBD8A815F
:102BB0000E947B108C899D89DF91CF910C94C71066
:102BC00061E00C94C81560E00C94C8158EBD00003F
:102BD0000DB407FEFDCF8EB50895EF92FF921F93BF
:102BE000CF93DF931F92CDB7DEB77C0169830E943C
:102BF000E3156981862F0E94E615182FC7010E94F0
:102C0000E015812F0F90DF91CF911F91FF90EF90F2
:102C1000089561EE0C94ED15EF92FF921F93CF9300
:102C2000DF9300D0CDB7DEB77C014A8369830E9471
:102C3000E3156981862F8F7180620E94E615182F37
:102C40004A81842F0E94E615C7010E94E015812F5A
:102C50000F900F90DF91CF911F91FF90EF9008950B
:102C6000CF92DF92EF92FF920F931F93CF93DF9358
:102C700000D01F92CDB7DEB77C01142F2A835B836F
:102C800069830E94E3156981862F8F7180620E949B
:102C9000E615082FC12E5B81D52E2A81120F1C1537
:102CA00031F0F60181916F010E94E615F8CFC7015E
:102CB0000E94E015802F0F900F900F90DF91CF9121
:102CC0001F910F91FF90EF90DF90CF900895EF92BA
:102CD000FF921F93CF93DF931F92CDB7DEB77C0196
:102CE00069830E94E3156981862F8F710E94E61522
:102CF0008FEF0E94E615182FC7010E94E015812F63
:102D00000F90DF91CF911F91FF90EF900895EF9278
:102D1000FF920F931F93CF938C017B0166E00E947B
:102D20006716C82FC77D82E0E816F10431F4C0624F
:102D30008BE990E0A0E0B0E00DC0EA94EF2829F024
:102D400085E590E0A0E0B0E005C0C86081E490E0D7
:102D5000A0E0B0E0F801808B918BA28BB38B4C2F5D
:102D600066E0C8010E940C1666E0C8010E94671662
:102D700091E08C1390E0892FCF911F910F91FF90DC
:102D8000EF900895CF93DF93EC0160E00E94671607
:102D900081FD0EC0482F426060E0CE010E940C16FB
:102DA00065E070E080E090E0DF91CF910C94D2106C
:102DB000DF91CF910895CF93DF93EC0160E00E9403
:102DC000BC15888999890E94C7106DE1CE010E94C7
:102DD000671681FF07C0888999890E94C710CE01B4
:102DE0000E94091660E0CE010E946716482F4E7FB0
:102DF00060E0CE010E940C1662E0CE010E946716D0
:102E0000E8ECF0E0E49141E050E001C0440FEA95C5
:102E1000EAF7482B62E0CE01DF91CF910C940C16BB
:102E20008F929F92AF92BF92CF92DF92EF92FF92DA
:102E30000F931F93CF93DF93EC017B01CCA8D12C90
:102E4000860108501109DB0116969C918CE6890FCA
:102E5000833020F0983C09F0CFC003C0943909F4C6
:102E6000E4C08BE6890F823018F0983C09F08EC0E0
:102E70006E0159EDC50ED11CD6012D913C91A801D2
:102E8000420F531F4139510520F0C852DF4F1882BD
:102E9000B1C05E01B8EDAB0EB11CF5018081882395
:102EA00009F415C1963929F0D70117969C9198130A
:102EB000A1C0FE01EB52FF4F40815181F701848197
:102EC00095814817590709F095C04E01FBED8F0E0B
:102ED000911CD4018D919C91A801BE01615F7F4F2F
:102EE000820F931F0E941026F60180819181080FA6
:102EF000191F11830083D70116968C91863929F00A
:102F0000F50180818150808373C0D5011C92F70147
:102F10008781FE01E952FF4F8083833809F483C023
:102F20007E01FFECEF0EF11CF701A081B181CE0113
:102F30008A1B9B0B8B539F4F80179107F8F032969B
:102F40008AE001900D928A95E1F7D7018D919C91CD
:102F5000F40160817181D6014D915C910A960E94C5
:102F60001026F601808191810A96D7012D913C911E
:102F70001197820F931F8D939C933AC08FA598A9A8
:102F80000E94DB168AA581608AA734C07E01BFEC4F
:102F9000EB0EF11CF701A081B181CE01C5969D0118
:102FA000281B390BC901800F911F8B39910510F532
:102FB000E85CF10988E001900D928A95E1F7D7016C
:102FC000ED91FC911197118700878D919C91BE0125
:102FD000615F7F4FA8010A960E941026B2E0CB0ED7
:102FE000D11CF70180819181C80ED91ED182C08287
:102FF00081E06DC080E06BC0933841F6DE01AF52D6
:10300000BF4FFE01379688E001900D928A95E1F757
:10301000FE01E552FF4FCE010F9691838083C75288
:10302000DF4F1983088382E052C0F7018781873020
:1030300008F02BCFFE01EB52FF4F40815181D701A9
:1030400014962D913C91159734976F0142175307B1
:1030500039F4408151812D913C914217530741F23F
:10306000F8E18F9FC0011124FE01E153FF4F208141
:103070003181AE01421B530B9A012B533F4F28174E
:1030800039073CF48AA581608AA78FA598A90E9478
:10309000DB16FE01379688E0D60101900D928A95E5
:1030A000E1F7FE01E552FF4FBE01615F7F4FA801CE
:1030B000808191810E941026FE01E752FF4F11830B
:1030C0000083C852DF4F88818150888391CFDF9180
:1030D000CF911F910F91FF90EF90DF90CF90BF9015
:1030E000AF909F908F9008953F924F925F926F9212
:1030F0007F928F929F92AF92BF92CF92DF92EF9288
:10310000FF920F931F93CF93DF93EC019AA5892F22
:10311000827091FD17C0FE01E153FF4FAE014B5C81
:103120005F4F90FD07C020813181241B350B29376B
:10313000310544F0208131814217530708F429C139
:103140009E7F9AA78E01095F1F4F502EEE24E394B5
:10315000F12C6E0181E9C81A8EEFD80A74E2A72E0D
:1031600079E0B72E8FA498A8F401808191818F3FD8
:10317000910511F480E00DC1F401828193818F3FAC
:103180009105C1F367E1C4010E946716982F917001
:10319000792E80FDEFCF6FEFC4010E94ED158FA453
:1031A00098A8C4010E94E31580E60E94E6158FEFFF
:1031B0000E94E615682EC4010E94E015F0E2F615A3
:1031C00008F056C062EEC4010E94ED1562E070E0A6
:1031D00080E090E00E94D2107CAA97E0971538F02A
:1031E0006AE070E080E090E00E94D210BBCF8FA434
:1031F00098A8F4018781472C871508F4482EF4011C
:103200009085911103C0382E341801C0312CC401AF
:103210000E94E31581E60E94E6153801450C46142C
:1032200039F08FEF0E94E615F30181933F01F7CF4C
:10323000732C772029F08FEF0E94E6157A94F9CF4E
:10324000C4010E94E01540E767E0C4010E940C162B
:1032500069857A85CB01009769F0282F2770263081
:1032600008F080CF53E0969587955A95E1F7F3CF14
:10327000762CB2CF8D852AA93BA962177307E1F599
:10328000823809F46FCF803881F464327940D1F00C
:10329000BA86A98642E064E279E0CE010E94AE0ED1
:1032A0006AE070E080E090E040C0833C59F4611532
:1032B000710541F078876F831A86198640E060E0D7
:1032C00070E063C099A5992319F087FF0CC002C074
:1032D000813C49F49CE6980F933028F0883C19F023
:1032E000833809F056C0B801CE010E941017823011
:1032F00009F038CF83E84DC06034710509F044C04F
:10330000823CC9F48AA583FD2DCF243289E0380799
:1033100009F428CF8F8198859A87898738872F83EA
:10332000F601608170E080E090E00E94D210698533
:103330007A8542E02AC0B801CE010E941017982E6B
:1033400088818823E9F029A9222379F030E02150EF
:103350003109C901880F991F280F391FB70102C011
:10336000660F771F2A95E2F702C060E070E083E005
:10337000660F771F8A95E1F744E0CE010E94AE0EFA
:10338000F2E09F12EFCEB6CF41E0CE010E94AE0E2A
:10339000E9CEDF91CF911F910F91FF90EF90DF90D9
:1033A000CF90BF90AF909F908F907F906F905F90E5
:1033B0004F903F900895CF93DF93EC010E94C21687
:1033C00060E0CE010E946716482F416060E0CE01A8
:1033D0000E940C1640E767E0CE010E940C1661E0E7
:1033E000CE010E94BC158985882349F02E85AE0147
:1033F000475F5F4F6AE0CE010E94301614C062E062
:10340000CE010E946716E8ECF0E0E49121E030E0A4
:1034100001C0220FEA95EAF72095422F482362E087
:10342000CE010E940C166DE1CE010E94671681FF4D
:1034300005C0CE01DF91CF910C940916DF91CF9199
:1034400008952F923F924F925F926F927F928F9248
:103450009F92AF92BF92CF92DF92EF92FF920F9323
:103460001F93CF93DF93EC017B015A01690148015F
:103470000E940E114BA45CA46DA47EA4DC01CB01C0
:1034800084199509A609B7094997A105B10528F43A
:10349000CE010E94741887FFEBCF8BE193E0019778
:1034A000F1F789E1C816D104B0F488E08C0D8CAB3B
:1034B00084019601A501B701CE010E94700F182F5B
:1034C000882311F011E092C00E940E116BA77CA717
:1034D0008DA79EA78BC0E1E9CE16D10408F085C068
:1034E000C60168E170E00E94A22421E0892B09F462
:1034F00020E0C60168E170E00E94A224722E760EE0
:10350000F701828193818034910539F08AA5846026
:103510008AA78FA598A90E94DB16F7014680512C37
:10352000612C84E9282E96E9392EF7017782F1E0A3
:103530007F1204C0F7013682478208C0611003C0C1
:10354000F701268203C085E9F7018683E8E16E9ED4
:10355000A00111249601241B350B2931310510F0EF
:1035600028E130E088E0820F8CAB4A0D5B1D8401BE
:10357000B701CE010E94700F182F81110BC062E0BD
:1035800070E080E090E00E94D2105394F2E0F515D4
:1035900060F606C07A946394772011F0512CC5CF61
:1035A000F70146828AA582FF12C049815A816B8148
:1035B0007C818FA598A90E94321B182F8FA598A9EE
:1035C0000E94DB1960E08FA598A90E941D1B8AA5A7
:1035D0008B7F8AA7112349F0772009F473CF0E94CB
:1035E0000E116BA77CA78DA79EA710E0812FDF91FE
:1035F000CF911F910F91FF90EF90DF90CF90BF90F0
:10360000AF909F908F907F906F905F904F903F9082
:103610002F900895CF93DF93BC0182E893E00E943E
:10362000D501EC016FE272E082E893E00E94D501DF
:103630008C0F9D1FDF91CF9108951F93CF93DF9340
:10364000EC01162F61E00E946716482F112311F03C
:10365000416001C04E7F61E0CE01DF91CF911F91AB
:103660000C940C168F929F92AF92BF92CF92DF92E2
:10367000EF92FF92CF93DF93EC014A015B010E942E
:103680000E116B017C0167E1CE010E94671684FD7B
:1036900029C06FEFCE010E94ED1584FFF4CF40E109
:1036A00067E0CE010E940C1660E0CE010E94BC15BE
:1036B00061E0CE010E94BC150E940E11DC01CB011D
:1036C0008C199D09AE09BF0988159905AA05BB0586
:1036D000D0F260E0CE010E94BC15CE010E94091616
:1036E00080E005C060E0CE010E94BC1581E0DF9162
:1036F000CF91FF90EF90DF90CF90BF90AF909F90D1
:103700008F9008957F928F929F92AF92BF92CF92A7
:10371000DF92EF92FF920F931F93CF93DF93CDB77A
:10372000DEB728970FB6F894DEBF0FBECDBFFC0101
:103730009B012115310559F0822F8770863008F0E2
:10374000FAC0A3E036952795AA95E1F7F2CF62ABD0
:1037500073AB87A590A9DC012D913C912F3F3105DA
:1037600009F4E9C0DC0112962D913C9113972F3F8B
:10377000310509F4E0C0E72EF62E8F0160E00E94CB
:103780001D1BF801C7A4D0A86DE1C6010E946716F1
:10379000482F44606DE1C6010E940C166CE1C60121
:1037A0000E946716482F4F636CE1C6010E940C16F9
:1037B00081E0D60118968C93F80182A993A966E05E
:1037C00070E00E94A224482F440F4B5FF0E14F9F0E
:1037D000A0011124456064E0D8019F968D919C91D1
:1037E000D0970E940C1689E190E0A0E0B0E0F801CB
:1037F00081839283A383B4838BE490E09683858353
:1038000082A993A940E02FEF3FEFB9016823792304
:10381000672B39F073E0220F331F7A95E1F74F5F82
:10382000F4CFF80141AB20953095E059FE4F31833C
:10383000208363E0369527956A95E1F73397A901D0
:1038400048235923518340832115310559F043E022
:10385000969587954A95E1F753E0369527955A95C1
:10386000E1F7F2CFF801E159FE4F808386E0782E30
:1038700088248394912C7A94FFEF7F1609F454C026
:10388000672D8F2D9E2D0E94960DD8019F96CD906D
:10389000DC90D09729833A834B835C836D837E834E
:1038A0008F839887A72CB12C71100BC0F601468529
:1038B00050E0BE016F5F7F4FC60109960E9410263F
:1038C00003C0F1E07F1208C0F501EC52FF4F649194
:1038D000D6011E962C9105C0F501EC52FF4F649164
:1038E00021E0AE014F5F5F4FC6010E943016F50127
:1038F000E253FF4F6491F6014781C6010E940C1606
:1039000062E0C6010E946716F501E853FF4FE4919B
:10391000940101C0220FEA95EAF7482F422B62E09A
:10392000C6010E940C16A7CFD8019F968D919C913D
:10393000D0970E94DB1928960FB6F894DEBF0FBE11
:10394000CDBFDF91CF911F910F91FF90EF90DF904E
:10395000CF90BF90AF909F908F907F9008951F92CF
:103960000F920FB60F9211242F933F938F939F9333
:10397000AF93BF938091490390914A03A0914B0369
:10398000B0914C033091B10623E0230F2D3720F482
:103990000196A11DB11D05C026E8230F0296A11DA9
:1039A000B11D2093B1068093490390934A03A093DD
:1039B0004B03B0934C0380914D0390914E03A09123
:1039C0004F03B09150030196A11DB11D80934D038B
:1039D00090934E03A0934F03B0935003BF91AF91C8
:1039E0009F918F913F912F910F900FBE0F901F903D
:1039F0001895CF93DF93CDB7DEB72E970FB6F89417
:103A0000DEBF0FBECDBF789484B5826084BD84B51F
:103A1000816084BD85B5826085BD85B5816085BDC9
:103A200080916E00816080936E0010928100809181
:103A30008100826080938100809181008160809309
:103A40008100809180008160809380008091B1002E
:103A500084608093B1008091B00081608093B00059
:103A600080917A00846080937A0080917A008260ED
:103A700080937A0080917A00816080937A008091AF
:103A80007A00806880937A001092C100E0919203DE
:103A9000F091930382E08083E0918E03F0918F0395
:103AA0001082E0919003F091910380E18083109265
:103AB0009A03E0919603F091970386E08083E0916A
:103AC0009403F0919503808180618083E091940359
:103AD000F0919503808188608083E0919403F09158
:103AE0009503808180688083E0919403F091950331
:103AF00080818F7D80830EE411E01A830983809199
:103B0000C4049091C504A091C604B091C7048B83EE
:103B10009C83AD83BE83CE0101960E940B108AE880
:103B200095E19093B3048093B20486E591E00E94FE
:103B30000A1B1A8309838091D0049091D104A0912B
:103B4000D204B091D3048B839C83AD83BE83CE011A
:103B500001960E94C7121A8309838091CA0490912A
:103B6000CB04A091CC04B091CD048B839C83AD8316
:103B7000BE83CE0101960E94ED0F83E691E00E9484
:103B80000A1B0091E9041091EA04D8018D919C91DF
:103B9000119712962D913C9113978217930711F06C
:103BA0000E94CE0FF80182819381208131812817F4
:103BB000390711F00E94CE0FFFB6F89480913202BF
:103BC000811124C0EAEAF0E08491EEEBF0E09491F8
:103BD000E82FF0E0EE0FFF1FEA56FF4FA591B491DA
:103BE000EC91E92321F461E08AE00E947B108AE0F5
:103BF0000E94CE0F8CB580618CBD8CB580648CBD6D
:103C00008DE00E94CE0F8BE00E94CE0F8091320299
:103C10008F5F80933202FFBE60E0C8010E94BC1536
:103C200061E0C8010E94C81565E070E080E090E0A6
:103C30000E94D2104CE060E0C8010E940C164FE5D3
:103C400064E0C8010E940C1662E070E0C8010E94A6
:103C50008716882321F081E0D80116968C9366E0C0
:103C6000C8010E94671660E070E0C8010E948716D4
:103C7000C8010E94E31580E50E94E61583E70E94D3
:103C8000E615C8010E94E01540E06DE1C8010E9400
:103C90000C1640E06CE1C8010E940C16F801108679
:103CA00040E767E0C8010E940C164CE465E0C801DB
:103CB0000E940C1662EEC8010E94ED15C8010E9418
:103CC0000916C8010E94C21660E0C8010E9467166A
:103CD000482F4E7F60E0C8010E940C1681E6809359
:103CE000F60441E665E08091E9049091EA040E94BF
:103CF0000C1660E070E08091E9049091EA040E9463
:103D000087160091EB041091EC0481E0D80199969C
:103D10008C938091E504882359F084E299E0909394
:103D2000E4048093E3040E941A11892BB9F013C0B4
:103D300086E090E00E94DE249093E7048093E604FE
:103D40001092E8041092E4041092E30460E070E042
:103D5000C8010E94821B8EE092E002C082E192E0E4
:103D60000E940A1B8091D304805D80937C01809027
:103D70003502909036021E01B8E02B0E311C0E94D5
:103D80000E1100914302109144022091450230919E
:103D90004602DC01CB01801B910BA20BB30B8938CF
:103DA0009341A105B10508F4DBC00E940E11C0903B
:103DB0003B02D0903C02E0903D02F0903E028B012D
:103DC0009C010C191D092E093F0980913F02909119
:103DD0004002A0914102B0914202083E13402105E9
:103DE0003105D0F00196A11DB11D80933F02909343
:103DF0004002A0934102B0934202B701A60148518C
:103E00005C4F6F4F7F4F40933B0250933C02609357
:103E10003D0270933E02C9CF409137025091380263
:103E20006091390270913A0284179507A607B70787
:103E300008F454C08114910409F450C0F4010995A8
:103E4000611571058105910539F160933F02709309
:103E500040028093410290934202DC01CB01845DD9
:103E60009E4FAF4FBF4F8093370290933802A0937D
:103E70003902B0933A0282E090E09093340280934A
:103E800033020E940E1160933B0270933C028093B8
:103E90003D0290933E0222C080913F0290914002E9
:103EA000A0914102B0914202845D9E4FAF4FBF4F3F
:103EB0008093370290933802A0933902B0933A026C
:103EC00081E090E02091330230913402232B11F4F1
:103ED00080E090E090933402809333026DE771E0CC
:103EE00084E991E00E9439150E940E11609343020B
:103EF000709344028093450290934602E4E0FE2EC4
:103F0000F6ECBF2EEE24E394FA94FF2009F4C0C32C
:103F10008091E3049091E4048432994009F4B8C399
:103F20008091EB049091EC040E9474182091E304BA
:103F30003091E4042432E9E03E0749F0833C11F477
:103F4000E092ED049091E504992309F49AC267E1A7
:103F50008091E9049091EA040E94671681FF6AC388
:103F60000E942510811145C165EA71E082E893E065
:103F70000E94D5010E9425108111C9C06091BA0428
:103F80007091BB0480912504909126044091BC045B
:103F90005091BD04DC01ED91FC916115710521F09A
:103FA0000088F189E02D16C00684F785E02D2EE407
:103FB00031E03A8329830091B6041091B70420912F
:103FC000B8043091B9040B831C832D833E83BE015A
:103FD0006F5F7F4F09958130910509F091C09093F3
:103FE000A8048093A70487E0E8E0F1E0DE011196E1
:103FF00001900D928A95E1F7FE013196ACE2B4E0B2
:1040000081918D93E215F305D9F782E08093330413
:10401000109234048FE0809335044FE050E067E263
:1040200074E08FE691E00E945A10AC0145505109AE
:1040300067E274E080E10E94C8140E940E11609350
:10404000A9047093AA048093AB049093AC0460938A
:10405000AD047093AE048093AF049093B00480914C
:10406000250490912604DC01ED91FC910084F185FA
:10407000E02D0995892BC1F40E940E110091AD0429
:104080001091AE042091AF043091B004DC01CB015B
:10409000801B910BA20BB30B88399A43A105B10584
:1040A000F0F28CEF9FEF1CC0CE010B960E94F01334
:1040B0000497D1F480912A04811111C00E940E113D
:1040C0006093AD047093AE048093AF049093B004FA
:1040D0001092B1041092C1041092C00418C090E074
:1040E0009093C1048093C00480912504909126048C
:1040F000DC01ED91FC910488F589E02D09954AC019
:104100008EEF9FEF9093C1048093C00443C083EC73
:1041100091E00E940A1B6DEC71E089ED91E00E9434
:1041200039156DE771E084E991E00E9439150E942C
:104130002510882309F45DC08091A7049091A804FC
:10414000019629F09093A8048093A70406C0E1E0AB
:10415000F0E0F093A804E093A7048091A704909165
:10416000A80490932C0480932D0447E050E067E26C
:1041700074E082EE91E00E945A10FC01EB5DFB4F6F
:104180001282AC014450510967E274E082E80E9457
:10419000C8142FC06AEE71E082E893E00E94D50156
:1041A000C090C004D090C1040D2C000CEE08FF0894
:1041B000F7FE0EC06DE282E893E00E94CE01442734
:1041C0005527BA014C195D096E097F092AE003C021
:1041D0002AE0B701A60182E893E00E94EA0186EF97
:1041E00091E00E940A1B60ED77E080E090E00E9481
:1041F000D2100E942510882309F440C10E940E119C
:104200006B017C018091AD049091AE04A091AF044C
:10421000B091B004A7019601281B390B4A0B5B0B28
:10422000DA01C90189399A43A105B105A8F4809141
:10423000A9049091AA04A091AB04B091AC04A70189
:104240009601281B390B4A0B5B0BDA01C90189392E
:104250009A43A105B105C8F12091B10480912504CC
:1042600090912604222371F02CEF3FEF3093C1048C
:104270002093C004DC01ED91FC910488F589E02DC8
:104280000995FCC020EC2093270410922804DC013F
:10429000ED91FC910280F381E02D42E050E067E275
:1042A00074E00995C092A904D092AA04E092AB04EC
:1042B000F092AC04C092AD04D092AE04E092AF0490
:1042C000F092B00481E08093B10480912504909134
:1042D0002604DC01ED91FC910084F185E02D099527
:1042E000892B09F4CBC0CE0101960E94F0138C01FA
:1042F000892B09F4C3C0C092AD04D092AE04E09201
:10430000AF04F092B00470902704872D807F803333
:1043100009F099C0E091B204F091B304FE87ED87F3
:10432000EF2B09F4ABC04DB65EB6A981B0E0CD016C
:104330008B5D9B4FFC01A380B12CBA2CAA248481F5
:10434000A80EB11CC50101962DB73EB7281B390B2D
:104350000FB6F8943EBF0FBE2DBF8DB79EB7019626
:10436000BC0120E030E02A153B0569F0A9014A0FA5
:104370005B1F4B5D5B4FFA014581FB014193BF0120
:104380002F5F3F4FF0CFAC01420F531FFA01108255
:10439000F72DF670FC87F23009F03FC05901AA0EE4
:1043A000BB1EB5016B5D7B4FFB01458150E0542F77
:1043B000442766813A01660E711C4BEF5FEF4A1B82
:1043C0005B0B421B530B400F511FB501645D7B4FCC
:1043D000ED85FE85099580E4809327042C85209344
:1043E00028047092290460922A04809125049091F7
:1043F0002604DC01ED91FC910280F381E02D44E084
:1044000050E067E274E00995C092A904D092AA0432
:10441000E092AB04F092AC0410C04DEF5FEF4A1B8A
:104420005B0B421B530B400F511F2A0F3B1FB9015F
:10443000665D7B4FED85FE8509950FB6F8945EBEEF
:104440000FBE4DBE1BC0803CA9F480ED80932704B5
:10445000109228048091250490912604DC01ED91AE
:10446000FC910280F381E02D42E050E067E274E0CD
:10447000099504C0803D11F41092B1040E9494018A
:104480007ECC982F9D7F943C09F0B0C0E091EB0466
:10449000F091EC046F0147E0C40ED11C47815085B8
:1044A000528741876785843C49F58091E8042091D3
:1044B000E6043091E70490E0981791F089012D5FB0
:1044C0003F4FA90143505109DA014C91461306C0F0
:1044D000D80111968D919C91129704C09F5FECCFEB
:1044E0008FEF9FEF9A83898308E310E022E030E0AA
:1044F000AE014F5F5F4FB601CF0175C0862F90E0D0
:104500009A878987009709F45EC0232BC9F45091DC
:10451000E8042091E6043091E70440E0451709F4EF
:104520004FC0F9012D5F3F4FD90112976D917C91DA
:104530006817790719F4808190E047C04F5FEECF8C
:104540001C821B8280910001909101019C012F5FD0
:104550003F4F30930101209300019E838D83BF82E2
:1045600008E310E022E030E0AE01475F5F4FBE019C
:104570006F5F7F4FCF010E94211A882309F10E94AB
:104580000E112B013C018091EB049091EC040E94F0
:104590007418863C71F00E940E11DC01CB01841965
:1045A0009509A609B709853F9140A105B10558F3C2
:1045B00007C0E091EB04F091EC048785908905C079
:1045C0008FEF9FEF02C080E090E09A83898308E339
:1045D00010E022E030E0AE014F5F5F4FB601809106
:1045E000EB049091EC040E94211AB1CC853C09F0B7
:1045F000AECCA091EB04B091EC048091E6049091D4
:10460000E70460E02091E804621708F0A0CCFC0108
:1046100023E0629FE00DF11D112441815281179624
:104620002D913C9118974217530711F41282118271
:104630006F5FE8CF8091EB049091EC04DC019A96D7
:104640002C9120FD8DCC1C821B8220910001309189
:104650000101A9014F5F5F4F509301014093000199
:104660003E832D83B2E8BF8308E310E020E030E012
:1046700040E050E0BE016F5F7F4F0E94211A811120
:104680006FCC67E670E080E090E00E94D2103CCCF6
:104690008091E9049091EA040E94DB160E941A11AD
:1046A0005FCCCF93DF93C0915802D0915902BC01E7
:1046B000CE0108960E946923E7E4F2E080818887B2
:1046C0008181898782818A8783818B87DF91CF91DE
:1046D0000895FC012381260F20934A02A72FBB27B0
:1046E00092819A0F90934902318130934802408120
:1046F00040934702E92FF0E0EA17FB0748F481E016
:10470000830F80934802811103C04F5F409347029B
:1047100030E077272617370788F49F5F9093490288
:1047200091110CC0809148028F5F809348028111E3
:1047300005C0809147028F5F8093470208950F93D1
:104740001F93CF93DF93EBEFF4E08EE491E091833E
:1047500080831282138214821582E2E8F3E01382CE
:10476000128248EE53E060E070E044835583668334
:1047700077832AE131E03183208325EC30E03587EF
:10478000248724EC30E03787268720EC30E0318B1B
:10479000208B21EC30E0338B228B22EC30E0358B08
:1047A000248B26EC30E0378B268B118E128E138EE5
:1047B000148EE1E0F5E091838083128213821482EB
:1047C0001582E7E0F5E091838083128213821482E0
:1047D0001582EFE1F4E091838083128213821482C8
:1047E0001582EDE0F5E091838083128213821482BA
:1047F0001582EBEAF6E091838083128213821482A1
:104800001582E3E9F6E027E030E03183208328E0F9
:1048100030E033832283168220E22783108625E04E
:10482000268705E010E020E030E0048B158B268B16
:10483000378B1186A1E2B5E0D096FC93EE939F975B
:1048400026E535E03093F1052093F0052EEF35E0B5
:104850003093FD052093FC0522EF35E098963C93BC
:104860002E9397979B961D921D921D921C929E9738
:104870009A961C929A9799961C9299971C9223EE5D
:1048800034E0E901FF83EE83B987A887C4EDD4E063
:10489000F983E883BB83AA833D832C83EEECF4E0A9
:1048A000918380832AE02283238332E03483A9E04A
:1048B000A583E8ECF4E0918380832283238334830F
:1048C0003583E2ECF4E09183808322832383348375
:1048D0003583E3E1F5E013821282448355836683D6
:1048E00077832CE231E03183208315861486909300
:1048F000B5048093B4041092B6041092B7041092D9
:10490000B8041092B9048FEF9FEF9093C104809385
:10491000C004F0932604E09325041092BF04109283
:10492000BE04DF91CF911F910F910895991B79E0FB
:1049300004C0991F961708F0961B881F7A95C9F72F
:1049400080950895AA1BBB1B51E107C0AA1FBB1F7E
:10495000A617B70710F0A61BB70B881F991F5A950B
:10496000A9F780959095BC01CD010895A1E21A2E7A
:10497000AA1BBB1BFD010DC0AA1FBB1FEE1FFF1F03
:10498000A217B307E407F50720F0A21BB30BE40B53
:10499000F50B661F771F881F991F1A9469F760959A
:1049A0007095809590959B01AC01BD01CF01089554
:1049B000EE0FFF1F0590F491E02D0994CF93DF9344
:1049C0008230910510F482E090E0E091B406F0911D
:1049D000B50620E030E0C0E0D0E0309711F1408132
:1049E000518148175907C0F04817590761F482816F
:1049F0009381209719F09B838A832BC09093B506EF
:104A00008093B40626C02115310519F042175307CB
:104A100018F49A01BE01DF01EF010280F381E02D5D
:104A2000DCCF2115310509F1281B390B2430310564
:104A300090F412968D919C9113976115710521F058
:104A4000FB019383828304C09093B5068093B406E0
:104A5000FD01329644C0FD01E20FF31F8193919353
:104A6000225031092D933C933AC02091B2063091E7
:104A7000B306232B41F420910401309105013093BA
:104A8000B3062093B2062091020130910301211553
:104A9000310541F42DB73EB7409106015091070111
:104AA000241B350BE091B206F091B306E217F30731
:104AB000A0F42E1B3F0B2817390778F0AC014E5F8E
:104AC0005F4F2417350748F04E0F5F1F5093B30612
:104AD0004093B2068193919302C0E0E0F0E0CF01F1
:104AE000DF91CF9108950F931F93CF93DF9300979A
:104AF00009F48CC0FC013297138212820091B40633
:104B00001091B5060115110581F420813181820FC4
:104B1000931F2091B2063091B3062817390779F513
:104B2000F093B306E093B20671C0D80140E050E0C4
:104B3000AE17BF0750F412962D913C911397AD011B
:104B40002115310509F1D901F3CF9D01DA01338334
:104B5000228360817181860F971F8217930769F402
:104B6000EC0128813981260F371F2E5F3F4F31839B
:104B700020838A819B8193838283452B29F4F09340
:104B8000B506E093B40642C01396FC93EE931297D9
:104B9000ED01499159919E01240F351FE217F3074A
:104BA00071F480819181840F951F029611969C93D8
:104BB0008E938281938113969C938E931297E0E05B
:104BC000F0E0D80112968D919C911397009719F0FF
:104BD000F8018C01F6CF8D919C9198012E5F3F4F8B
:104BE000820F931F2091B2063091B3062817390720
:104BF00069F4309729F41092B5061092B40602C0F9
:104C0000138212821093B3060093B206DF91CF9104
:104C10001F910F91089581E090E0F8940C9419266B
:104C2000FB01DC0102C001900D9241505040D8F7C9
:064C30000895F894FFCF87
:104C360001000000B606800000044D51545404C320
:104C46003C33CE3EE3EC000000002B019800C3008D
:104C56007201F400D200E600000000002C0B270BC6
:104C6600EA086908A30A9C087E08740BCA086B093F
:104C7600540BCD08400BB808DF08000000003302D3
:104C8600000000009E014265666F726520537461E4
:104C96007274004265666F7265204D6573680061C7
:104CA600726475696E6F436C69656E74002454494D
:104CB6004D455354414D502332303023313030234B
:104CC600E280A600736D617274666163746F7279B7
:104CD6002F66747300417474656D7074696E672015
:104CE6004D51545420636F6E6E656374696F6E2EFA
:104CF6002E2E00636F6E6E65637465640068656C66
:104D06006C6F20776F726C64006F7574546F706986
:104D16006300696E546F706963006661696C6564EF
:104D26002C2072633D002074727920616761696E80
:104D360020696E2032207365636F6E647300204FA6
:104D46004B00204661696C6564004D65737361674D
:104D5600652061727269766564205B005D20000DD6
:024D66000A0041
:00000001FF
