:100000000C946E000C9496000C9496000C94960040
:100010000C9496000C9496000C9496000C94960008
:100020000C9496000C9496000C9496000C949600F8
:100030000C9496000C9496000C9496000C949600E8
:100040000C945E1C0C9496000C949F020C94790204
:100050000C9496000C9496000C9496000C949600C8
:100060000C9496000C949600EC05320489068807DF
:10007000B007CE07D8077C07000000080002010087
:100080000003040700000000000000000000000062
:10009000250028002B0000000000240027002A0073
:1000A000040404040404040402020202020203031E
:1000B0000303030301020408102040800102040826
:1000C000102001020408102000010203040511128F
:1000D000131415160A0B0C0D0E0FC02211241FBE8F
:1000E000CFEFD8E0DEBFCDBF12E0A0E0B1E0E8E79F
:1000F000FAE402C005900D92A031B107D9F726E0CD
:10010000A0E1B2E001C01D92A438B207E1F710E00F
:10011000CEE6D0E004C02197FE010E94F923CD363F
:10012000D107C9F70E94A81C0C943A250C94000032
:10013000CF92DF92EF92FF920F931F93CF93DF93B3
:100140006C017A018B01C0E0D0E0CE15DF0589F0AB
:10015000D8016D918D01D601ED91FC910190F08156
:10016000E02DC6010995892B11F47E0102C021966C
:10017000ECCFC701DF91CF911F910F91FF90EF90CE
:10018000DF90CF900895FC01538D448D252F30E0F2
:10019000842F90E0821B930B541710F0CF96089594
:1001A00001970895FC01918D828D981761F0828DE1
:1001B000DF01A80FB11D5D968C91928D9F5F9F739B
:1001C000928F90E008958FEF9FEF0895FC01918D3D
:1001D000828D981731F0828DE80FF11D858D90E0AA
:1001E00008958FEF9FEF0895FC01918D228D892F47
:1001F00090E0805C9F4F821B91098F73992708952F
:1002000080E593E00E94F40021E0892B09F420E0CE
:10021000822F0895FC01848DDF01A80FB11DA35A20
:10022000BF4F2C91848D90E001968F739927848F16
:10023000A689B7892C93A089B1898C9180648C930D
:10024000938D848D981306C00288F389E02D8081F8
:100250008F7D80830895EF92FF920F931F93CF932A
:10026000DF93EC0181E0888F9B8D8C8D981305C006
:10027000E889F989808185FD24C0F62E0B8D10E078
:100280000F5F1F4F0F731127E02E8C8DE8120CC0EB
:100290000FB607FCFACFE889F989808185FFF5CF91
:1002A000CE010E940A01F1CF8B8DFE01E80FF11DF6
:1002B000E35AFF4FF0820B8FEA89FB8980818062CD
:1002C00007C0EE89FF896083E889F98980818064AD
:1002D000808381E090E0DF91CF911F910F91FF909B
:1002E000EF900895CF93DF93EC01888D8823C9F0B8
:1002F000EA89FB89808185FD05C0A889B9898C912F
:1003000086FD0FC00FB607FCF5CF808185FFF2CFC9
:10031000A889B9898C9185FFEDCFCE010E940A0191
:10032000E7CFDF91CF91089580E090E0892B29F00D
:100330000E94000181110C94000008950E942C2558
:100340000F931F93CF93DF930091460310914703C0
:10035000F801C281D0E0DC2FCC278381C80FD11DEA
:10036000B801645F7F4F48E050E0CE010E970E94D5
:10037000FF09AE0144515109B8016C5E7F4F0E94E4
:10038000FF09009721F098278927982702C08FEF4F
:100390009FEFDF91CF911F910F910895DC01ED91B7
:1003A000FC910190F081E02D09946115710579F0BF
:1003B000FB0101900020E9F73197AF01461B570B75
:1003C000DC01ED91FC910280F381E02D099480E045
:1003D00090E008954F925F926F927F92EF92FF921A
:1003E0000F931F93CF93DF93CDB7DEB7A1970FB6CF
:1003F000F894DEBF0FBECDBF7C01FA01CB0119A27C
:10040000223008F42AE08E010F5D1F4F422E512C3E
:10041000612C712CBF01A30192010E94D723F90125
:10042000CA01015011096A3014F4605D01C0695CB1
:10043000D8016C93232B242B252B61F7B801C7011E
:100440000E94D501A1960FB6F894DEBF0FBECDBFB6
:10045000DF91CF911F910F91FF90EF907F906F9060
:100460005F904F9008958F929F92AF92BF92CF92DC
:10047000DF92EF92FF920F931F93CF93DF937C0154
:100480008B016C0182E0C80ED11C4701E5E08E0EA5
:10049000911CC0E0D0E0F60141916F0150E060E0B6
:1004A00070E02AE0C8010E94EA015C016EE2C80126
:1004B0000E94CE018A0D9B1DC80FD91FC814D904F4
:1004C00051F7F701458150E060E070E02AE0C80193
:1004D0000E94EA018C0F9D1FDF91CF911F910F9118
:1004E000FF90EF90DF90CF90BF90AF909F908F9054
:1004F00008951F920F920FB60F9211242F933F93DE
:100500004F935F936F937F938F939F93AF93BF931B
:10051000EF93FF9380E593E00E940A01FF91EF9132
:10052000BF91AF919F918F917F916F915F914F910B
:100530003F912F910F900FBE0F901F9018951F9213
:100540000F920FB60F9211242F938F939F93EF93D7
:10055000FF93E0916003F09161038081E091660375
:10056000F091670382FD12C09081809169038F5FD3
:100570008F7320916A03821751F0E0916903F0E0D4
:10058000E05BFC4F958F8093690301C08081FF91F0
:10059000EF919F918F912F910F900FBE0F901F9011
:1005A0001895CF92DF92EF92FF920F931F93CF9304
:1005B000DF93C0912602D09127020091460310914B
:1005C0004703680128E2C20ED11CD0922502C092D6
:1005D0002402D0922302C0922202833059F4898DE2
:1005E0008F70833009F062C588899989892B09F059
:1005F0005DC57EC0823009F081C0809120028F5F8E
:1006000080932002811113C080911F028F5F80931D
:100610001F0281110CC080911E028F5F80931E0209
:10062000811105C080911D028F5F80931D02109281
:100630001C0210921B0210921A0210921902898D4C
:10064000982F9D7F953041F48A8D8F5F8A8F8837F0
:1006500009F02CC5198E2AC5882309F427C52889D5
:100660003989232B09F440C09A8D2FEF290F2A8F47
:1006700091111CC59B8D9A3031F02FEF280F22303D
:1006800048F4933039F4198E80E8809321020E9457
:10069000160CCCC3953038F428E0092E01C0220F87
:1006A0000A94EAF701C020E82A8F9F5F9B8F8F7022
:1006B0008330A1F048F4813009F4C6C1823009F0DA
:1006C000F5C4F80111A2C6C1863009F450C38830C0
:1006D00009F44DC3843009F0E9C449C384E0809330
:1006E00021020E94160CDAC38F70833009F0DEC439
:1006F00088E0809321020E94160C8FC3F80180814C
:10070000853409F0D3C4E280F12CFE2CEE248381E1
:10071000E80EF11C80911B0290911C028E159F0522
:1007200008F4C4C4F0921C02E0921B0286818F730D
:1007300009F0BCC487818111B9C4C0914203D09132
:100740004303209731F48091440390914503892B12
:1007500089F0F801808991898C179D0709F0A6C45A
:1007600022893389809144039091450328173907E2
:1007700009F09CC40E94240A019609F097C4F8016C
:100780008185863031F1813009F090C484898830C8
:1007900009F08CC4148A86899789873FFFEF9F07E9
:1007A00010F0099601C00896F801978B868BF80126
:1007B00084859585918B808B86859785938B828B9D
:1007C000D587C48780914403909145039787868796
:1007D00071C40E94A001019609F068C490913A0387
:1007E000F80181A1992329F1468957892091250390
:1007F0003091260342175307E1F44489558920912B
:100800002703309128034217530799F444855585EF
:1008100020912103309122034217530751F446855A
:10082000578520912303309124034217530709F47D
:1008300027C18F73823009F5F801268937893093F3
:100840002C0220932B0240913F0350914003241728
:10085000350709F03AC4911161C010924103C1E219
:10086000D3E066C08091210280FDCEC180E28093FA
:1008700021020E94160C10923A03E0914603F09177
:10088000470381A182FD12C484E181A388E290E044
:1008900090931C0280931B0280E580A3338D878D8B
:1008A000838F228D868D828F268F918D858D818F6E
:1008B000958F808D80934103448D408F848F3F5F5F
:1008C000378F31110AC02F5F268F211106C09F5F1D
:1008D000958F911102C08F5F848F84899589909341
:1008E0002C0280932B0226893789358B248B978B9A
:1008F000868B84859585918B808B86859785938B58
:10090000828B8091420390914303958784878091E5
:100910004403909145039787868799C3973019F0D0
:10092000C0E0D0E002C0C1E2D3E081E080934103A7
:10093000209709F4BBC3D0932702C093260288E016
:100940008A8F888F1E8A84E08F8B1B8EF8018689A0
:1009500097899D838C83848995899F838E838485E1
:10096000958599838883868597859B838A8381E093
:10097000898F80911D028C8780911E028D878091C6
:100980001F028E87809120028F8781E090E0998BF3
:10099000888B838D8B87828D8A87818D8987808DD7
:1009A000888781E090E00E947222A0914603B09176
:1009B000470390968C919097982F907F913508F4EB
:1009C00043C01092410382958F7090E00597880F85
:1009D000991F880F991F20912A0230914103E32F1C
:1009E000F0E0E817F90774F5EA0FFB1F20A52111C5
:1009F00003C010922A0228C0213011F43F5F1FC0AB
:100A00002230C9F441A54430B1F420932A0282A5D2
:100A100090E0982F882723A5822B90932C02809317
:100A20002B028836910510F087E690E09B8B8A8B2D
:100A30009D8B8C8B09C041A5442321F0340F30934A
:100A40004103CBCF20932A02E0914603F091470364
:100A500080E181A3E0914603F091470381A1826088
:100A600081A382E080A784E081A712A687E683A7FE
:100A70008CE290E090931C0280931B0280E6ABC254
:100A800021E233E0309327022093260210922102C4
:100A900082FF04C010923A0380E235C2F80120A11F
:100AA00022952F70220F220F20934103E21AF108A2
:100AB000E7016497D0931C02C0931B029F70923091
:100AC00021F4982F9F739231D1F0209719F4982F29
:100AD0009370A9F0F801208D90912903291368C221
:100AE000218D90912A03291363C2228D90912B03AB
:100AF00029135EC2238D90912C03291359C284FFC0
:100B00005BC060913103709132036115710509F486
:100B100053C08DE293E00E948A22E0914603F09157
:100B20004703348D80911502381346C0258D80917E
:100B30001602281341C0968D8091170298133CC06D
:100B4000878D40911802841337C030932D03209372
:100B50002E0390932F038093300380913C038111E7
:100B600020C0909137038091390320913B03821B71
:100B7000292F269526952695821B980F909337034B
:100B800087FD819520913803322F36953695231BAA
:100B9000820F80933803969596959695890F80934A
:100BA000390381E0809321028091390380933B03D4
:100BB000109232031092310320913A03E22FEF702A
:100BC0008E2F90E0FC013197E830F10508F06EC2FD
:100BD000EC5CFF4F0C94F9238091210280FF66C2E8
:100BE00083E080933A0380E48093210210923203E1
:100BF00010923103209709F483C082E4809321028C
:100C0000CE010E9472227CC0E0914603F09147031E
:100C100081A18F73823109F029CE80A1982F907F16
:100C2000913508F44FC01092410382958F7090E087
:100C30000597880F991F880F991F20912A023091DC
:100C40004103A32FB0E0A817B907D4F5AE0FBF1F1B
:100C500098962C919897211103C010922A0232C0C5
:100C6000213011F43F5F29C0223011F599964C9143
:100C700099974430E9F420932A029A968C919A9796
:100C800090E0982F88279B962C91822B90932C0292
:100C900080932B028836910510F087E690E09093C0
:100CA00034038093330390933603809335030AC053
:100CB00099964C91442321F0340F30934103BFCFD8
:100CC00020932A0283E080933A03808D8093290346
:100CD000818D80932A03828D80932B03838D809353
:100CE0002C0381E090E00E94722282E48093210232
:100CF000109232031092310310921C0210921B02C8
:100D000010921A02109219020E94160CC1E2D3E04E
:100D100084C0E0914603F091470381A180FF2EC07B
:100D200024FD2CC08091310390913203892B09F06E
:100D3000BDC1C70143970E94722280912102982F62
:100D4000906190932102CD2B19F082618093210252
:100D50000E94160C81E090E090933203809331035F
:100D600088E080933A0310923C03C1E2D3E0E09123
:100D70004603F091470381E181A322C185FF12C0A0
:100D800086A190E0982F882737A1832BC80ED91E03
:100D9000D0922502C0922402C81BD90BD0931C020A
:100DA000C0931B0240911B0250911C02411551053A
:100DB00051F024FD08C0909121029260909321028D
:100DC000CA010E947222E0914603F091470382A17A
:100DD00090E0982F882723A1820F911D90932C02D9
:100DE00080932B0220913503309136032817390761
:100DF00010F0892B21F430932C0220932B02809148
:100E00002B0290912C0290933403809333038091B2
:100E10002102837009F44AC173CF8091210285FFBA
:100E20000BC010921A0210921902198EE09146031B
:100E3000F091470384E1A0CF84FF0CC010921A0206
:100E40001092190281E090E0998B888B84E0898F61
:100E50001B8E8DCF2091190230911A022115310578
:100E6000E1F080FF02C0198A188A88899989009761
:100E700081F48A899B898217930720F490931A0240
:100E8000809319028091190290911A02998B888B94
:100E900004C090931A02809319021B8E8091220243
:100EA000909123029093250280932402809119024D
:100EB00090911A02892B79F088899989009759F0C5
:100EC000889690931C0280931B02E0914603F09158
:100ED000470388E10FC08091210281FFE7C088E2CB
:100EE00090E090931C0280931B02E0914603F091E6
:100EF000470380E181A36AC08091210280FFD6C0B0
:100F000010923A0380E1809321020E94160CCEC019
:100F1000209719F0CE010E947222E0914603F091D1
:100F2000470391A18091210290FF10C080FF0AC069
:100F300087E080933A0310923B03109232031092A1
:100F400031031FC086E080933A031BC080FF23C09B
:100F500085E080933A031092320310923103A6C0C9
:100F6000209719F0CE010E947222E0914603F09181
:100F7000470381A180FF0FC087E080933A0310925E
:100F80003B0381E090E00E94722280E18093210285
:100F90000E94160C0DC0CD2B59F488C080912102FF
:100FA00080FF84C087E080933A0310923B037EC0A9
:100FB000E0914603F091470380E181A3C1E2D3E0D1
:100FC00088E290E090931C0280931B02E09146031C
:100FD000F091470380E580A3E0914603F091470339
:100FE0008885848F8985858F8A85868F8B85878F75
:100FF0008C85808F8D85818F8E85828F8F85838F65
:1010000086E081878C819D81958B848B8E819F81E9
:10101000978B868B809142039091430395878487B9
:1010200080914403909145039787868788819981B1
:10103000918B808B8A819B81938B828B898D84FF9E
:1010400003C013A212A203C012A28DE583A3C09114
:101050004603D091470380E4888780911B029091DA
:101060001C029A838B831FA21EA21DA21CA20E9497
:10107000A001809590959DA38CA385E48883198217
:101080001F821E82809128029091290201969093DE
:101090002902809328029C838D831B861A860E94D6
:1010A000240A809590959B878A8704C010921C0221
:1010B00010921B0210922102DF91CF911F910F918C
:1010C000FF90EF90DF90CF90089581E080934103EF
:1010D000D4CBCF93DF93EC01E881F981008CF18DC3
:1010E000E02D0995882339F0EC85FD851182EA51C0
:1010F000FF4F11821082DF91CF910895CF93DF933C
:10110000EC01E881F9810084F185E02D0995892BB6
:1011100071F0EC85FD85DF01AC51BF4F8D919C9145
:10112000E80FF91FE358FF4F808190E002C08FEF76
:101130009FEFDF91CF910895CF93DF931F92CDB7AB
:10114000DEB7DC01ED91FC910288F389E02D41E0EE
:1011500050E0BE016F5F7F4F099597FD03C0898105
:1011600090E002C08FEF9FEF0F90DF91CF91089535
:10117000FC01448555854115510551F0FB0124853D
:1011800035852115310521F081E04217530709F01B
:1011900080E0089580E090E00895DC011C96ED91D8
:1011A000FC911D97309739F08181811106C08081B3
:1011B00082958170089580E0089581E00895DC01B2
:1011C000ED91FC91028CF38DE02D099591E089273A
:1011D0000895089580E090E00895CF93DF93DC01B7
:1011E000FB01EC01C359DE4F688179812296988119
:1011F000828140815181823028F0BA0181E083836D
:1012000090E027C0ED01C059DE4F28813981EA0105
:10121000C223D323D2960D90BC91A02DCA17DB0711
:10122000C1F4C9018095909563E0880F991F6A9574
:10123000E1F784239523892B51F083E0220F331F9C
:101240008A95E1F72760BA016223732301C0BA01CE
:1012500095E071836083928381E0DF91CF9108955F
:101260000F931F93CF93DF93CDB7DEB728970FB6B9
:10127000F894DEBF0FBECDBF1C821B82809100019F
:10128000909101019C012F5F3F4F3093010120930A
:1012900000019E838D8383E88F8320911B02309110
:1012A0001C02409146035091470308E310E0BE0141
:1012B0006F5F7F4F8091A4049091A5040E94D01984
:1012C00028960FB6F894DEBF0FBECDBFDF91CF9149
:1012D0001F910F910895CF92DF92EF92FF920F939B
:1012E0001F93CF93DF9300D0CDB7DEB78C017B0186
:1012F000DC01ED91FC91008CF18DE02D49835A8346
:10130000099549815A81882309F46CC0F801A485A4
:10131000B58511968C911197882309F463C0FD015E
:10132000EA51FF4F808191816A018C159D0508F477
:101330006C01FD01EC51FF4F2081318123583F4F5B
:10134000BD01620F731FA601C7010E943125D8019C
:101350001C96ED91FC911D97DF01AA51BF4F8D9115
:101360009C9111978C199D0911969C938E931297BD
:101370002D913C9111972C0D3D1D11963C932E9370
:10138000892B71F511821D921C928081A82FAF705C
:101390009EE1A99FD0011124AF5DBC4F59969C914D
:1013A00094FF0EC0982F907659F480688083D801FE
:1013B0001C96ED91FC911D97128613861486158656
:1013C000D8011C96ED91FC911D978181811108C077
:1013D000808186FF05C010821D961C921E921C976C
:1013E000C60102C08FEF9FEF0F900F90DF91CF915A
:1013F0001F910F91FF90EF90DF90CF900895FB0128
:1014000041505109460F571FE417F50778F4208122
:1014100030E0322F22276181260F311D820F931F6A
:101420008217930708F401963296EECFE417F5077A
:1014300051F4208130E0322F2227820F931F821730
:10144000930708F40196089560914603709147034D
:1014500044E150E080E090E00E94FF09009721F015
:1014600098278927982708958FEF9FEF0895CF92A7
:10147000DF92EF92FF920F931F938091A4049091BB
:10148000A5040E942318833869F4E091A404F09124
:10149000A50407A0F0A5E02D8085918590931C02FE
:1014A00080931B0280911B0290911C02892B89F072
:1014B00081E00E94D10280911B0290911C02892B35
:1014C000D9F11F910F91FF90EF90DF90CF900C9486
:1014D00030090E940E11C090A904D090AA04E09097
:1014E000AB04F090AC040091AD041091AE042091D7
:1014F000AF043091B004AB01BC014C195D096E0919
:101500007F094017510762077307B0F0D901C8017E
:101510008C0D9D1DAE1DBF1D8093A9049093AA0440
:10152000A093AB04B093AC0481E293E090932702C4
:101530008093260282E0BDCF1F910F91FF90EF9024
:10154000DF90CF900895CF93DF93EC010E94370A8C
:10155000E881F981008CF18DE02DCE010995882379
:1015600051F0EC85FD858181882329F0EA51FF4FF8
:101570008081918102C080E090E0DF91CF91089559
:101580007F928F929F92AF92BF92CF92DF92EF9213
:10159000FF920F931F93CF93DF93EC016B017A01BE
:1015A0008A014836510510F007E610E00E940E113E
:1015B000812C912C5E01E8EEAE0EB11C7724739461
:1015C0000E94370A209781F18881982F907661F5E3
:1015D00084FF2AC08B819C819801280F391F2836EF
:1015E000310570F7F50120812111EACF4696B60149
:1015F000680D791DA8018C0F9D1F0E9431257A82EC
:101600008B819C81800F911F9C838B83800E911E08
:101610008E149F0470F48701081919090836110502
:1016200078F207E610E0CCCFC851DF4F18828FEF79
:101630009FEFDF91CF911F910F91FF90EF90DF907F
:10164000CF90BF90AF909F908F907F900895FC01B6
:10165000848595850C94C00ACF93DF931F92CDB7F4
:10166000DEB7698341E050E0BE016F5F7F4FFC0150
:10167000848595850E94C00A0F90DF91CF910895CF
:10168000CF93DF93EC010E94370AEC85FD853097FC
:1016900029F0808186FF04C0818103C080E001C001
:1016A00081E0DF91CF910895CF93DF93DC011C9609
:1016B000ED91FC911D97309779F09081992361F01D
:1016C0001182EF01CA51DF4F1982188296FF02C0C2
:1016D000108202C0906290831D961C921E921C97ED
:1016E000DF91CF910C94370AEF92FF920F931F93E3
:1016F000CF93DF938C017B01EA010E940E11D80188
:10170000ED91FC910488F589E02DC8010995F70158
:10171000828190E0982F88272381822B9827892720
:101720009827248130E0322F22274581242B32272D
:1017300023273227FC2FED2F60911F037091200388
:1017400050913A03C0912503D09126036F5F7F4FDC
:1017500061154DE7740710F060E070E1B62FA72F18
:10176000552319F0CA17DB0789F3709320036093A0
:101770001F03511105C010924103C1E2D3E00AC01A
:10178000573019F0C0E0D0E002C0C1E2D3E041E040
:1017900040934103209719F480E090E040C042E07C
:1017A000498F40911D024C8740911E024D87409108
:1017B0001F024E87409120024F8767E670E07B8BC7
:1017C0006A8B7D8B6C8B41E050E0598B488B1B8E74
:1017D0004A8F48E0488F1E8A40E14F8B60911F037B
:1017E000709120037627672776277D836C83FF839C
:1017F000EE83998388833B832A83898D8F7061F27E
:101800000E94370A898D8F708330B9F78C8D9D8D3A
:10181000D8011D969C938E931C9781E090E0DF91F8
:10182000CF911F910F91FF90EF9008950F931F9309
:10183000CF93DF93E0912602F0912702C48DD58DDE
:1018400080912102209701F586FF6BC190912D02B6
:10185000911167C190E190932D0210922E02109287
:101860002F0210921403109213031092120310927D
:1018700011031092310210923002109215032DE2E2
:1018800032E0358F248FE90181FF4FC0DE01A7517F
:10189000BF4F8C91882331F01A8219861C821B82DB
:1018A00011971C9280911B0290911C02892B09F4C4
:1018B000ECC08881807609F0E8C0818D8061818FDD
:1018C00088818F77888319860E940E116A877B87AB
:1018D0008C879D876A8B7B8B8C8B9D8B8E010A51AD
:1018E0001F4FF80120813181329780819181820FD1
:1018F000931F83589F4F609124027091250240915D
:101900001B0250911C028C0F9D1F0E9431252091BB
:101910001B0230911C02F80180819181820F931F7C
:101920009183808381E08983B0C084FD04C087FDFA
:1019300002C085FF10C01A828981882341F084810A
:1019400095819B838A8388818064888301C0188203
:10195000158E148E9AC080FF15C088818F7788837A
:101960001A8219861C821B82FE01E851FF4F1082E9
:101970000E940E116A877B878C879D876A8B7B8B81
:101980008C8B9D8B809121028C7009F466C08A81BA
:10199000882309F14B815C8150931C0240931B0208
:1019A000BE016A5E7F4F50931A02409319021416CB
:1019B00015064CF480912202909123026817790752
:1019C00011F00E94312581E0FE01E851FF4F808334
:1019D000319680835AC08881982F9076F1F5998549
:1019E0009923D9F187FF39C00E940E110A851B8502
:1019F0002C853D85DC01CB01801B910BA20BB30B29
:101A00000E851F8528893989081719072A073B077A
:101A100008F465C022C08E859F85A889B9898C503D
:101A20009E4FAF4FBF4F8935FBE19F07A105B10521
:101A300020F088E59BE1A0E0B0E08E879F87A88B2F
:101A4000B98B80912102826080932102E09126026D
:101A5000F0912702818D8F7E818F888185FF15C04F
:101A60008A8181110BC01882E0912602F091270231
:101A7000158E148E80E18093210207C0E09126022A
:101A8000F0912702818D8061818F888187FF49C015
:101A90009985911146C0807609F043C0809121025A
:101AA000826080932102E0912602F0912702818DCD
:101AB0008F7E818F81E089878EE194E1A0E0B0E0A4
:101AC0008E879F87A88BB98B0E940E116A8B7B8BA8
:101AD0008C8B9D8B6A877B878C879D8722C00E9419
:101AE0000E116A877B878C879D870E940E110A8959
:101AF0001B892C893D89DC01CB01801B910BA20B3A
:101B0000B30B80339547A105B10508F484CF19863E
:101B10001882E0912602F0912702158E148E80E241
:101B2000AACFDF91CF911F910F910895CF93DF93AB
:101B3000CDB7DEB728970FB6F894DEBF0FBECDBF86
:101B4000AC019CEC99839A839B839C839D831E822A
:101B50001F8218869A01E1E021153105C9F0611153
:101B600003C04115510569F4D901A770BB27A15FD6
:101B7000BE4F8C91A1E0B0E0AC0FBD1FAE0FB11D08
:101B80008C9383E0369527958A95E1F7EF5FE4CF54
:101B9000611102C0452B39F4E62FF0E0E15FFE4F02
:101BA0008081898305C0F0E0E25FFE4F80818A83F7
:101BB00029813A814B815C816D817E818F819885FD
:101BC00028960FB6F894DEBF0FBECDBFDF91CF9140
:101BD00008956F927F928F929F92AF92BF92CF9211
:101BE000DF92EF92FF920F931F93CF93DF93CDB7C6
:101BF000DEB728970FB6F894DEBF0FBECDBF8C01BD
:101C0000CB01D22E642F0E94960D39014A015B014F
:101C10007C01F80182A582FD04C087A590A90E94DD
:101C20008A16F80187A590A9DD2011F060E001C0B7
:101C300061E00E94CC1AF801C7A4D0A869827A8218
:101C40008B829C82AD82BE82EF82F886F601268569
:101C5000AE014F5F5F4F6AE0C6010E94DF15F601DB
:101C60002685AE014F5F5F4F60E1C6010E94DF1520
:101C7000F601478161E1C6010E94BB15F801B4A8D5
:101C8000C7A4D0A86FEFC6010E949C1580FF0DC0AD
:101C90006FEFC6010E949C1584FFF4CF40E167E01E
:101CA000C6010E94BB15F12C30C0F601F780EF2C65
:101CB000BF1408F4EB2CF6018085811102C0FE18D8
:101CC00001C0F12CC6010E94921580EA0E94951570
:101CD0005801F7E0AF0EB11CEA0CEA1431F0F5013F
:101CE00081915F010E949515F8CFFF2029F080E0D7
:101CF0000E949515FA94F9CFC6010E948F1561E0F4
:101D0000C6010E946B15FF24F394F80182A582FDA1
:101D10000FC0418152816381748187A590A90E947F
:101D2000E11AF82E60E0F80187A590A90E94CC1A6C
:101D30008F2D28960FB6F894DEBF0FBECDBFDF9172
:101D4000CF911F910F91FF90EF90DF90CF90BF90B8
:101D5000AF909F908F907F906F900895CF92DF9279
:101D6000EF92FF920F931F93CF93DF9300D000D099
:101D7000CDB7DEB7FC0195859B012115310561F0DA
:101D8000822F8770863030F483E0369527958A95C8
:101D9000E1F7F3CF80E097C09154EE24E3949F37AE
:101DA00008F0E12CF42E6B018F0119821A821B823C
:101DB0001C827A8369834B83BE016F5F7F4FCF01A3
:101DC0000E94ED0869817A812C814B81C8010E94B3
:101DD000E90DF1E0FF1227C0811102C0F12C6AC0A9
:101DE00089819A818C159D0501F5EE20F1F081EC39
:101DF000F801858787819085928781879A83898377
:101E0000FB821C82BE016F5F7F4FC8010E94ED08FC
:101E100088E0F80184AB69817A812C814B81C8010B
:101E20000E94E90D02C08823C9F289819A818C152C
:101E30009D0519F4FF24F3943DC0FF2019F0F3E051
:101E4000FF12F8CFEE20B1F3F80182A582FF11C096
:101E5000418152816381748187A590A90E94E11A12
:101E6000F80182A58B7F82A760E087A590A90E94D8
:101E7000CC1AF80187A590A90E948A190E940E1118
:101E80006B017C01C8010E942318813C99F20E94D9
:101E90000E11AB01BC014C195D096E097F09F801F7
:101EA00085819681A0E0B0E084179507A607B70763
:101EB00048F794CFF80182A582FD04C087A590A9B8
:101EC0000E948A198F2D0F900F900F900F90DF9125
:101ED000CF911F910F91FF90EF90DF90CF900895D9
:101EE000EF92FF920F931F93CF93DF93EC017B014F
:101EF000BA018AA99BA9F70191838083DE01179615
:101F000088E001900D928A95E1F72115310529F0BD
:101F1000A901CE010F960E943125F70162817381DC
:101F20000833110561F06034710511F444E001C01B
:101F300043E06017710709F442E0B80101C040E0D6
:101F4000CE01DF91CF911F910F91FF90EF900C94F4
:101F5000AE0E3FB7F89480911B0390911C03A091A3
:101F60001D03B0911E0326B5A89B05C02F3F19F095
:101F70000196A11DB11D3FBFBA2FA92F982F882709
:101F8000820F911DA11DB11DBC01CD0142E0660F64
:101F9000771F881F991F4A95D1F7089590E0FC019B
:101FA000EC54FF4F2491FC01E056FF4F84918823AD
:101FB00099F090E0880F991FFC01EA56FF4FA59118
:101FC000B491FC01E457FF4F859194918FB7F89439
:101FD000EC91E22BEC938FBF0895FC01248130E05B
:101FE000322F22278581282B322723273227ACE462
:101FF000B3E09281892F90E0982F88274381842B2A
:1020000098278927982711969C938E9313963C9333
:102010002E9312970895FC0182819381A481B5814A
:102020008093840490938504A0938604B0938704DE
:102030008BE597E090938B0480938A041092890437
:102040001092880483EF93E008958091F3039091B8
:10205000F403009759F1DC01ED91FC910688F789B2
:10206000E02D0995811124C080918E0490918F04F8
:10207000892BE1F48DEF9FEF90938F0480938E0472
:102080008091F3039091F403DC01ED91FC910680C3
:10209000F781E02D09958091F3039091F403DC0121
:1020A000ED91FC910488F589E02D099580E0089573
:1020B00081E00895CF93DF93DC014E5F5F4FFC0119
:1020C0009F012A1B3B0B9191992339F0EB01C40F1F
:1020D000D51F98834F5F5F4FF3CFCA01821B930BCD
:1020E000680F791FFB013297308331962083CA0134
:1020F000DF91CF91089590E0FC01E858FF4F3491B3
:10210000FC01EC54FF4F2491FC01E056FF4FE49199
:10211000EE2309F43BC0332339F1333091F038F426
:102120003130A9F0323001F584B58F7D12C03730DF
:1021300091F03830A1F03430B9F4809180008F7D77
:1021400003C0809180008F77809380000DC084B59C
:102150008F7784BD09C08091B0008F7703C08091D4
:10216000B0008F7D8093B000F0E0EE0FFF1FE457CA
:10217000FF4FA591B4918FB7F894EC91611103C012
:1021800020952E2301C02E2B2C938FBF08958230D3
:10219000910538F0880F991F880F991F05970197AF
:1021A000F1F708958F929F92AF92BF92CF92DF92F4
:1021B000EF92FF926B017C010E94A90F4B015C0121
:1021C000C114D104E104F10401F10E94370A0E9414
:1021D000A90FDC01CB0188199909AA09BB09883E1E
:1021E0009340A105B10560F321E0C21AD108E108CE
:1021F000F10888EE880E83E0981EA11CB11CC11462
:10220000D104E104F10419F7DBCFFF90EF90DF90E8
:10221000CF90BF90AF909F908F9008952FB7F89474
:1022200060911703709118038091190390911A031C
:102230002FBF08952F923F924F925F926F927F929D
:102240008F929F92AF92BF92CF92DF92EF92FF92C6
:102250000F931F93CF93DF93CDB7DEB761970FB680
:10226000F894DEBF0FBECDBF67E18091B7049091B7
:10227000B8040E94161680FD03C080E090E06EC195
:102280008091B7049091B8040E948A16E091B90435
:10229000F091BA0482A5826082A76AE070E080E0D3
:1022A00090E00E94D21064E279E08091B9049091AC
:1022B000BA040E94311B84E299E09093B2048093A7
:1022C000B1040E940E112B013C01C12CE12C90E4C1
:1022D000292E312C3C862B868091000190910101A2
:1022E0009C012F5F3F4F30930101209300019E8797
:1022F0008D8782EC8F878091B9049091BA04FC019C
:1023000022A933A93A872987EE2089F02E2D30E0C3
:1023100021503109A901440F551F240F351F01E039
:1023200010E002C0000F111F2A95E2F702C000E082
:1023300010E020E030E040E050E0BE01675F7F4FFA
:102340000E94D0190E940E114B015C01F12C80916A
:10235000B9049091BA040E942318823C89F4FE01CA
:102360003196EF0DF11DEF0DF11DA091B904B09163
:10237000BA0417968D919C91189791838083F3945A
:102380000E940E11DC01CB0188199909AA09BB0929
:10239000C897A105B10520F4F3E0FF15C0F633C0DE
:1023A000F11031C00E940E11DC01CB018419950996
:1023B000A609B70981369A4EA105B10508F05DCF8F
:1023C0002C2D30E02F5F3F4F8E2D90E00196289FFF
:1023D000B001299F700D389F700D1124675E7F4FEB
:1023E000660F771F072E000C880B990B0E94D210E6
:1023F00081E08E0D8370E82E81E08C0D6AE00E94F2
:10240000B723C92E67CFD12C198ADF1408F03FC03B
:1024100023EC2F878091B304888BFE013196ED0D5C
:10242000F11DED0DF11D008111811C870B8720E04E
:1024300030E040E050E0BE01675F7F4F8091B9041B
:102440009091BA040E94D0190E940E114B015C01B8
:102450000E940E11DC01CB0188199909AA09BB0958
:10246000813E9105A105B10550F48091B904909188
:10247000BA040E942318898B803851F7DF2C65E05D
:1024800070E080E090E00E94D210D394BECF8989A2
:10249000803809F087CFE091B904F091BA048785BC
:1024A0009089009709F47ECF36852091B3043213CA
:1024B00079CF9093B2048093B1048091B704909146
:1024C000B8040E948A166AE070E080E090E00E9402
:1024D000D2106091B1047091B2048091B9049091CE
:1024E000BA040E94311B1C861B86E1E8EF8787E057
:1024F000F82E08E310E020E030E040E050E0BE01BC
:10250000675F7F4F8091B9049091BA040E94D019FF
:10251000811119C0FA94F1100FC064E279E0809142
:10252000B9049091BA040E94311B84E299E090931F
:10253000B2048093B10436CF63E070E080E090E0B5
:102540000E94D210D6CFE091B904F091BA0482A5CE
:102550008D7F82A78091B1049091B20461960FB6ED
:10256000F894DEBF0FBECDBFDF91CF911F910F91C9
:10257000FF90EF90DF90CF90BF90AF909F908F90A3
:102580007F906F905F904F903F902F900895CF92E3
:10259000DF92EF92FF921F93CF93DF93CDB7DEB719
:1025A000C254D1090FB6F894DEBF0FBECDBFDC0117
:1025B00012963C91129713964C91139714962C9166
:1025C000149715968C913FAF21964FAF2197229685
:1025D0002FAF229711E023961FAF23972396CCAC01
:1025E000DDACEEACFFAC2397CBAADCAAEDAAFEAA29
:1025F00039AF4AAF2BAF8CAF3DA74EA72FA718AB73
:10260000CDA4DEA4EFA4F8A8CFA2D8A6E9A6FAA686
:102610001EABCBA8DCA8EDA8FEA8C9A2DAA2EBA24B
:10262000FCA23B8F4C8F2D8F8E8F1AA77FA168A5A0
:1026300059A591E07D8B6E8B5F8B988F1CA3C9A0F1
:10264000DAA0EBA0FCA0CF86D88AE98AFA8A39877B
:102650004A872B878C87262F652F1A8B8F85988921
:10266000A989BA898B839C83AD83BE83DB848C85E7
:1026700092EAE92E94E0F92ED7011496ED91FC919F
:10268000159782831296ED91FC91139707A0F0A500
:10269000E02D0284F385E02DF0934703E093460399
:1026A000E2E4F3E050E0532B5427452754275183AD
:1026B000408390E09D2998278927982793838283D8
:1026C000ECE4F3E0822F90E0972B9227892798275C
:1026D00091838083862F90E0916093838283E8E4E6
:1026E000F3E08FEF9FEF918380838FEF90E09383F0
:1026F00082831E838B819C81AD81BE818093EF0399
:102700009093F003A093F103B093F2038EE390E073
:10271000A0E0B0E0F70183879487A587B6870E9481
:102720000E11D70117966D937D938D939C931A97F5
:102730001092400310923F0310923A03109341030A
:1027400080E094E09093200380931F03CE5BDF4FE3
:102750000FB6F894DEBF0FBECDBFDF91CF911F91B2
:10276000FF90EF90DF90CF900895CF92DF92EF929D
:10277000FF92CF93DF93EC010E940E116B017C015D
:102780008091F3039091F403DC01ED91FC910084BE
:10279000F185E02D0995892B79F40E940E11AB018A
:1027A000BC014C195D096E097F0948395A4361051E
:1027B000710530F380E00DC08091F3039091F40334
:1027C000DC01ED91FC910284F385E02D099588836D
:1027D00081E0DF91CF91FF90EF90DF90CF9008954F
:1027E0005F926F927F928F929F92AF92BF92CF92A1
:1027F000DF92EF92FF920F931F93CF93DF931F927D
:10280000CDB7DEB74C0185EF93E00E94B51381117F
:1028100026C022C00F5F1F4F8981F801ED50FC4F89
:102820008183282F2F7730E02C9DA0012D9D500D06
:102830003C9D500D1124A40EB51E37E0CC0CDD1CC0
:10284000EE1CFF1C3A95D1F787FF15C0CE0101960B
:102850000E94B5138111DECF80E090E088C07090B7
:10286000F503198201E010E0A12CB12CC12CD12C70
:102870007601C394EBCF872D807F5524539480330A
:1028800009F0512C8FEF800FD4018C93552021F14A
:10289000C8018B509C4F0E94B5138823E9F2C801F0
:1028A0008A509C4F0E94B5138823B1F20E5F1F4FD0
:1028B000D401EC91F0E0ED50FC4FE380F12CFE2CC4
:1028C000EE248481E80EF11C8091F50381FF08C09D
:1028D000B2E0EB0EF11C04C080E0E12CF12C01C051
:1028E00082E0C82ED12CC01AD10A9EEF692E77241F
:1028F0007A94C601800F911F8A159B0568F5CE0159
:1029000001960E94B513882309F4A6CF80918C0408
:1029100090918D040097A9F0552099F0F401208141
:10292000A301421B51099A01200F311FE216F30641
:1029300040F4DC01ED91FC910190F081E02D698182
:1029400009950038110528F48981F801ED50FC4FF4
:1029500082830F5F1F4FCDCF80918C0490918D04A7
:10296000892B21F40138110508F076CFC8010F90AA
:10297000DF91CF911F910F91FF90EF90DF90CF905B
:10298000BF90AF909F908F907F906F905F900895D1
:10299000CF92DF92EF92FF920F931F93CF93DF932B
:1029A00000D000D0CDB7DEB79A01E0E0922F9F773C
:1029B000220F232F221F330B31952115310509F0EA
:1029C000906801E00E0FA1E0B0E0AC0FBD1FAE0FAC
:1029D000B11DFD0190832115310511F0E02FE6CFE7
:1029E00010E0DB01A01BB10B14968C93FE01319615
:1029F0006F0180E090E08017910764F4F601F19098
:102A00006F019C01201B310B260F371FF901F58246
:102A10000196F1CF8091F3039091F4034F5F5F4FE4
:102A2000040F151FFC0120813181F90122813381BE
:102A3000A801BD01F90109957C010E940E11609366
:102A40007704709378048093790490937A0481E0FA
:102A5000E016F10609F080E00F900F900F900F90B4
:102A6000DF91CF911F910F91FF90EF90DF90CF906A
:102A70000895EF92FF920F931F93CF93DF93EC0192
:102A80007B018A0167EF71E080E593E00E94D50148
:102A9000BE0180E593E00E94D50169E072E080E527
:102AA00093E00E94D501E7010E0D1F1DC017D1074D
:102AB00031F0699180E593E00E94CE01F7CF6CE0A0
:102AC00072E080E593E0DF91CF911F910F91FF902D
:102AD000EF900C94D501FC0120813181828193819A
:102AE0002817390719F0822F0C947B100895CF9383
:102AF000DF93EC019CB59F7D9CBD9CB5937F9CBDF5
:102B00009CB59C7F9CBD9DB591609DBD8A810E94B6
:102B10007B108C899D89DF91CF910C94C71061E067
:102B20000C94771560E00C9477158EBD00000DB401
:102B300007FEFDCF8EB50895EF92FF921F93CF93BE
:102B4000DF931F92CDB7DEB77C0169830E94921597
:102B50006981862F0E949515182FC7010E948F1535
:102B6000812F0F90DF91CF911F91FF90EF900895EB
:102B700061EE0C949C15EF92FF921F93CF93DF931D
:102B800000D0CDB7DEB77C014A8369830E949215DD
:102B90006981862F8F7180620E949515182F4A8156
:102BA000842F0E949515C7010E948F15812F0F90C9
:102BB0000F90DF91CF911F91FF90EF900895CF92EA
:102BC000DF92EF92FF920F931F93CF93DF9300D08A
:102BD0001F92CDB7DEB77C01142F2A835B836983F4
:102BE0000E9492156981862F8F7180620E949515CF
:102BF000082FC12E5B81D52E2A81120F1C1531F0B2
:102C0000F60181916F010E949515F8CFC7010E94CE
:102C10008F15802F0F900F900F90DF91CF911F9104
:102C20000F91FF90EF90DF90CF900895EF92FF9279
:102C30001F93CF93DF931F92CDB7DEB77C016983DB
:102C40000E9492156981862F8F710E9495158FEFD2
:102C50000E949515182FC7010E948F15812F0F9084
:102C6000DF91CF911F91FF90EF900895EF92FF9227
:102C70000F931F93CF938C017B0166E00E94161681
:102C8000C82FC77D82E0E816F10431F4C0628BE9F9
:102C900090E0A0E0B0E00DC0EA94EF2829F085E5CF
:102CA00090E0A0E0B0E005C0C86081E490E0A0E062
:102CB000B0E0F801808B918BA28BB38B4C2F66E038
:102CC000C8010E94BB1566E0C8010E94161691E07B
:102CD0008C1390E0892FCF911F910F91FF90EF906F
:102CE0000895CF93DF93EC0160E00E94161681FDFA
:102CF0000EC0482F426060E0CE010E94BB1565E027
:102D000070E080E090E0DF91CF910C94D210DF91E1
:102D1000CF910895CF93DF93EC0160E00E946B1593
:102D2000888999890E94C7106DE1CE010E9416160C
:102D300081FF07C0888999890E94C710CE010E942F
:102D4000B81560E0CE010E941616482F4E7F60E055
:102D5000CE010E94BB1562E0CE010E941616E8EC7F
:102D6000F0E0E49141E050E001C0440FEA95EAF759
:102D7000482B62E0CE01DF91CF910C94BB158F926E
:102D80009F92AF92BF92CF92DF92EF92FF920F93FA
:102D90001F93CF93DF93EC017B01CCA8D12C86014C
:102DA00008501109DB0116969C918CE6890F83303F
:102DB00020F0983C09F0CFC003C0943909F4E4C076
:102DC0008BE6890F823018F0983C09F08EC06E01B6
:102DD00059EDC50ED11CD6012D913C91A801420F91
:102DE000531F4139510520F0C852DF4F1882B1C03E
:102DF0005E01B8EDAB0EB11CF5018081882309F4AA
:102E000015C1963929F0D70117969C919813A1C046
:102E1000FE01EB52FF4F40815181F7018481958182
:102E20004817590709F095C04E01FBED8F0E911C14
:102E3000D4018D919C91A801BE01615F7F4F820FEB
:102E4000931F0E943125F60180819181080F191F7F
:102E500011830083D70116968C91863929F0F501EC
:102E600080818150808373C0D5011C92F7018781D6
:102E7000FE01E952FF4F8083833809F483C07E014D
:102E8000FFECEF0EF11CF701A081B181CE018A1B8E
:102E90009B0B8B539F4F80179107F8F032968AE077
:102EA00001900D928A95E1F7D7018D919C91F401E3
:102EB00060817181D6014D915C910A960E94312505
:102EC000F601808191810A96D7012D913C9111974D
:102ED000820F931F8D939C933AC08FA598A90E944F
:102EE0008A168AA581608AA734C07E01BFECEB0EEA
:102EF000F11CF701A081B181CE01C5969D01281B6F
:102F0000390BC901800F911F8B39910510F5E85CD1
:102F1000F10988E001900D928A95E1F7D701ED91D2
:102F2000FC911197118700878D919C91BE01615F83
:102F30007F4FA8010A960E943125B2E0CB0ED11C2A
:102F4000F70180819181C80ED91ED182C08281E0B3
:102F50006DC080E06BC0933841F6DE01AF52BF4FC9
:102F6000FE01379688E001900D928A95E1F7FE0107
:102F7000E552FF4FCE010F9691838083C752DF4FFA
:102F80001983088382E052C0F7018781873008F0F7
:102F90002BCFFE01EB52FF4F40815181D701149698
:102FA0002D913C91159734976F014217530739F4CF
:102FB000408151812D913C914217530741F2F8E134
:102FC0008F9FC0011124FE01E153FF4F2081318109
:102FD000AE01421B530B9A012B533F4F2817390761
:102FE0003CF48AA581608AA78FA598A90E948A16B9
:102FF000FE01379688E0D60101900D928A95E1F79F
:10300000FE01E552FF4FBE01615F7F4FA801808145
:1030100091810E943125FE01E752FF4F1183008309
:10302000C852DF4F88818150888391CFDF91CF9143
:103030001F910F91FF90EF90DF90CF90BF90AF90D6
:103040009F908F9008953F924F925F926F927F92E0
:103050008F929F92AF92BF92CF92DF92EF92FF92A8
:103060000F931F93CF93DF93EC019AA5892F827062
:1030700091FD17C0FE01E153FF4FAE014B5C5F4F66
:1030800090FD07C020813181241B350B2937310584
:1030900044F0208131814217530708F429C19E7FF3
:1030A0009AA78E01095F1F4F502EEE24E394F12C56
:1030B0006E0181E9C81A8EEFD80A74E2A72E79E072
:1030C000B72E8FA498A8F401808191818F3F91053C
:1030D00011F480E00DC1F401828193818F3F91054D
:1030E000C1F367E1C4010E941616982F9170792EE2
:1030F00080FDEFCF6FEFC4010E949C158FA498A8AC
:10310000C4010E94921580E60E9495158FEF0E94DF
:103110009515682EC4010E948F15F0E2F61508F08F
:1031200056C062EEC4010E949C1562E070E080E02F
:1031300090E00E94D2107CAA97E0971538F06AE0E0
:1031400070E080E090E00E94D210BBCF8FA498A8DE
:10315000F4018781472C871508F4482EF4019085E7
:10316000911103C0382E341801C0312CC4010E94C3
:10317000921581E60E9495153801450C461439F0E8
:103180008FEF0E949515F30181933F01F7CF732CC8
:10319000772029F08FEF0E9495157A94F9CFC4011A
:1031A0000E948F1540E767E0C4010E94BB15698546
:1031B0007A85CB01009769F0282F2770263008F018
:1031C00080CF53E0969587955A95E1F7F3CF762C0B
:1031D000B2CF8D852AA93BA962177307E1F5823822
:1031E00009F46FCF803881F464327940D1F0BA8627
:1031F000A98642E064E279E0CE010E94AE0E6AE068
:1032000070E080E090E040C0833C59F461157105A6
:1032100041F078876F831A86198640E060E070E09D
:1032200063C099A5992319F087FF0CC002C0813CA7
:1032300049F49CE6980F933028F0883C19F08338C5
:1032400009F056C0B801CE010E94BF16823009F0C5
:1032500038CF83E84DC06034710509F044C0823C2A
:10326000C9F48AA583FD2DCF243289E0380709F4FB
:1032700028CF8F8198859A87898738872F83F60191
:10328000608170E080E090E00E94D21069857A85CC
:1032900042E02AC0B801CE010E94BF16982E888154
:1032A0008823E9F029A9222379F030E0215031095F
:1032B000C901880F991F280F391FB70102C0660F77
:1032C000771F2A95E2F702C060E070E083E0660FA6
:1032D000771F8A95E1F744E0CE010E94AE0EF2E03E
:1032E0009F12EFCEB6CF41E0CE010E94AE0EE9CEE6
:1032F000DF91CF911F910F91FF90EF90DF90CF90D2
:10330000BF90AF909F908F907F906F905F904F9005
:103310003F900895CF93DF93EC010E94711660E017
:10332000CE010E941616482F416060E0CE010E9437
:10333000BB1540E767E0CE010E94BB1561E0CE01FE
:103340000E946B158985882349F02E85AE01475F61
:103350005F4F6AE0CE010E94DF1514C062E0CE012B
:103360000E941616E8ECF0E0E49121E030E001C0A4
:10337000220FEA95EAF72095422F482362E0CE011A
:103380000E94BB156DE1CE010E94161681FF05C09B
:10339000CE01DF91CF910C94B815DF91CF910895B4
:1033A0002F923F924F925F926F927F928F929F9255
:1033B000AF92BF92CF92DF92EF92FF920F931F9343
:1033C000CF93DF93EC017B015A01690148010E9410
:1033D0000E114BA45CA46DA47EA4DC01CB01841966
:1033E0009509A609B7094997A105B10528F4CE01A9
:1033F0000E94231887FFEBCF8BE193E00197F1F751
:1034000089E1C816D104B0F488E08C0D8CAB84013E
:103410009601A501B701CE010E94700F182F8823D5
:1034200011F011E092C00E940E116BA77CA78DA72E
:103430009EA78BC0E1E9CE16D10408F085C0C60175
:1034400068E170E00E94C32321E0892B09F420E0A9
:10345000C60168E170E00E94C323722E760EF70168
:10346000828193818034910539F08AA584608AA78E
:103470008FA598A90E948A16F7014680512C612CCD
:1034800084E9282E96E9392EF7017782F1E07F1240
:1034900004C0F7013682478208C0611003C0F701FB
:1034A000268203C085E9F7018683E8E16E9EA001CC
:1034B00011249601241B350B2931310510F028E128
:1034C00030E088E0820F8CAB4A0D5B1D8401B701B0
:1034D000CE010E94700F182F81110BC062E070E0C6
:1034E00080E090E00E94D2105394F2E0F51560F66F
:1034F00006C07A946394772011F0512CC5CFF70160
:1035000046828AA582FF12C049815A816B817C81E3
:103510008FA598A90E94E11A182F8FA598A90E943B
:103520008A1960E08FA598A90E94CC1A8AA58B7F82
:103530008AA7112349F0772009F473CF0E940E1156
:103540006BA77CA78DA79EA710E0812FDF91CF915D
:103550001F910F91FF90EF90DF90CF90BF90AF90B1
:103560009F908F907F906F905F904F903F902F90A3
:103570000895CF93DF93BC0180E593E00E94D501CD
:10358000EC016CE072E080E593E00E94D5018C0FC5
:103590009D1FDF91CF9108951F93CF93DF93EC018F
:1035A000162F61E00E941616482F112311F041607A
:1035B00001C04E7F61E0CE01DF91CF911F910C944D
:1035C000BB158F929F92AF92BF92CF92DF92EF92F4
:1035D000FF92CF93DF93EC014A015B010E940E1131
:1035E0006B017C0167E1CE010E94161684FD29C0A3
:1035F0006FEFCE010E949C1584FFF4CF40E167E09D
:10360000CE010E94BB1560E0CE010E946B1561E007
:10361000CE010E946B150E940E11DC01CB018C19AA
:103620009D09AE09BF0988159905AA05BB05D0F209
:1036300060E0CE010E946B15CE010E94B81580E0BB
:1036400005C060E0CE010E946B1581E0DF91CF9153
:10365000FF90EF90DF90CF90BF90AF909F908F90B2
:1036600008957F928F929F92AF92BF92CF92DF92F6
:10367000EF92FF920F931F93CF93DF93CDB7DEB7F7
:1036800028970FB6F894DEBF0FBECDBFFC019B019B
:103690002115310559F0822F8770863008F0FAC065
:1036A000A3E036952795AA95E1F7F2CF62AB73AB0D
:1036B00087A590A9DC012D913C912F3F310509F49C
:1036C000E9C0DC0112962D913C9113972F3F3105F3
:1036D00009F4E0C0E72EF62E8F0160E00E94CC1ABC
:1036E000F801C7A4D0A86DE1C6010E941616482FA4
:1036F00044606DE1C6010E94BB156CE1C6010E94E9
:103700001616482F4F636CE1C6010E94BB1581E07D
:10371000D60118968C93F80182A993A966E070E00F
:103720000E94C323482F440F4B5FF0E14F9FA0013D
:103730001124456064E0D8019F968D919C91D097AB
:103740000E94BB1589E190E0A0E0B0E0F801818320
:103750009283A383B4838BE490E09683858382A9CC
:1037600093A940E02FEF3FEFB90168237923672B3E
:1037700039F073E0220F331F7A95E1F74F5FF4CFF2
:10378000F80141AB20953095E059FE4F31832083FD
:1037900063E0369527956A95E1F73397A9014823A9
:1037A0005923518340832115310559F043E0969503
:1037B00087954A95E1F753E0369527955A95E1F7B5
:1037C000F2CFF801E159FE4F808386E0782E8824FD
:1037D0008394912C7A94FFEF7F1609F454C0672DDF
:1037E0008F2D9E2D0E94960DD8019F96CD90DC9036
:1037F000D09729833A834B835C836D837E838F8349
:103800009887A72CB12C71100BC0F601468550E0AB
:10381000BE016F5F7F4FC60109960E94312503C02C
:10382000F1E07F1208C0F501EC52FF4F6491D60120
:103830001E962C9105C0F501EC52FF4F649121E0DA
:10384000AE014F5F5F4FC6010E94DF15F501E253E5
:10385000FF4F6491F6014781C6010E94BB1562E0EB
:10386000C6010E941616F501E853FF4FE49194013A
:1038700001C0220FEA95EAF7482F422B62E0C60109
:103880000E94BB15A7CFD8019F968D919C91D09790
:103890000E948A1928960FB6F894DEBF0FBECDBFDE
:1038A000DF91CF911F910F91FF90EF90DF90CF901C
:1038B000BF90AF909F908F907F9008951F920F922E
:1038C0000FB60F9211242F933F938F939F93AF9333
:1038D000BF938091170390911803A0911903B091A1
:1038E0001A0330917F0623E0230F2D3720F4019631
:1038F000A11DB11D05C026E8230F0296A11DB11D13
:1039000020937F068093170390931803A0931903C5
:10391000B0931A0380911B0390911C03A0911D0387
:10392000B0911E030196A11DB11D80931B039093BE
:103930001C03A0931D03B0931E03BF91AF919F91F1
:103940008F913F912F910F900FBE0F901F90189560
:10395000CF93DF93CDB7DEB72D970FB6F894DEBFC8
:103960000FBECDBF789484B5826084BD84B581607C
:1039700084BD85B5826085BD85B5816085BD80913A
:103980006E00816080936E001092810080918100B2
:1039900082608093810080918100816080938100AA
:1039A000809180008160809380008091B10084606C
:1039B0008093B1008091B00081608093B0008091CD
:1039C0007A00846080937A0080917A00826080938C
:1039D0007A0080917A00816080937A0080917A00E9
:1039E000806880937A001092C100E0916003F091AA
:1039F000610382E08083E0915C03F0915D031082BB
:103A0000E0915E03F0915F0380E180831092680390
:103A1000E0916403F091650386E08083E0916203A6
:103A2000F0916303808180618083E0916203F09173
:103A30006303808188608083E0916203F091630377
:103A4000808180688083E0916203F09163038081CC
:103A50008F7D80830EE411E01A83098380919204A4
:103A600090919304A0919404B09195048B839C83CE
:103A7000AD83BE83CE0101960E940B1089E395E1D0
:103A8000909381048093800486E591E00E94B91AA6
:103A90001A83098380919E0490919F04A091A004B1
:103AA000B091A1048B839C83AD83BE83CE0101962C
:103AB0000E94C7121A8309838091980490919904F7
:103AC000A0919A04B0919B048B839C83AD83BE83A9
:103AD000CE0101960E94ED0F83E691E00E94B91A93
:103AE0000091B7041091B804D8018D919C91119761
:103AF00012962D913C9113978217930711F00E9413
:103B0000CE0FF801828193812081318128173907F6
:103B100011F00E94CE0FFFB6F8948091100281112F
:103B200024C0EAEAF0E08491EEEBF0E09491E82F13
:103B3000F0E0EE0FFF1FEA56FF4FA591B491EC9114
:103B4000E92321F461E08AE00E947B108AE00E9470
:103B5000CE0F8CB580618CBD8CB580648CBD8DE042
:103B60000E94CE0F8BE00E94CE0F809110028F5FDB
:103B700080931002FFBE60E0C8010E946B1561E0F7
:103B8000C8010E94771565E070E080E090E00E9437
:103B9000D2104CE060E0C8010E94BB154FE564E024
:103BA000C8010E94BB1562E070E0C8010E94361691
:103BB000882321F081E0D80116968C9366E0C80135
:103BC0000E94161660E070E0C8010E943616C80117
:103BD0000E94921580E50E94951583E70E94951535
:103BE000C8010E948F1540E06DE1C8010E94BB151D
:103BF00040E06CE1C8010E94BB15F801108640E767
:103C000067E0C8010E94BB154CE465E0C8010E9452
:103C1000BB1562EEC8010E949C15C8010E94B81530
:103C2000C8010E94711660E0C8010E941616482F54
:103C30004E7F60E0C8010E94BB1581E68093C404FA
:103C400041E665E08091B7049091B8040E94BB15ED
:103C500060E070E08091B7049091B8040E9436163D
:103C60000091B9041091BA0481E0D80199968C931F
:103C70008091B304882359F084E299E09093B204D0
:103C80008093B1040E941A11892BB9F013C086E009
:103C900090E00E94FF239093B5048093B4041092A7
:103CA000B6041092B2041092B10460E070E0C80152
:103CB0000E94311B8BEE91E002C08FEE91E00E94DA
:103CC000B91A8091A104805D80937C01F6EC2F2EBF
:103CD0002E01B8E04B0E511C0E940E1100911102F2
:103CE000109112022091130230911402DC01CB01D9
:103CF000801B910BA20BB30B89389341A105B10531
:103D0000F0F18DE791E00E94B91A0E940E116093C4
:103D10001102709312028093130290931402E4E054
:103D2000DE2ECC24C394DA94DD2009F4D2C3809132
:103D3000B1049091B2048432994009F4CAC38091CD
:103D4000B9049091BA040E9423182091B1043091D3
:103D5000B2042432E9E03E0749F0833C11F4C092FA
:103D6000BB049091B304992309F4ACC267E180913C
:103D7000B7049091B8040E94161681FF7CC30E947C
:103D80002510811158C162E871E080E593E00E943E
:103D9000D5010E9425108111C9C0609188047091DD
:103DA00089048091F3039091F40340918A04509127
:103DB0008B04DC01ED91FC916115710521F0008807
:103DC000F189E02D16C00684F785E02D2EE431E060
:103DD0003A832983009184041091850420918604FC
:103DE000309187040B831C832D833E83BE016F5F5C
:103DF0007F4F09958130910509F091C09093760429
:103E00008093750487E0E8E0F1E0DE01119601900F
:103E10000D928A95E1F7FE013196AAEFB3E0819108
:103E20008D93E415F505D9F782E080930104109293
:103E300002048FE0809303044FE050E065EF73E0ED
:103E40008FE691E00E945A10AC014550510965EF90
:103E500073E080E10E94C8140E940E116093770401
:103E6000709378048093790490937A0460937B0430
:103E700070937C0480937D0490937E048091F3037F
:103E80009091F403DC01ED91FC910084F185E02D2B
:103E90000995892BC1F40E940E1100917B041091A9
:103EA0007C0420917D0430917E04DC01CB01801BD9
:103EB000910BA20BB30B88399A43A105B105F0F21F
:103EC0008CEF9FEF1CC0CE010B960E94F01304975D
:103ED000D1F48091F803811111C00E940E116093FA
:103EE0007B0470937C0480937D0490937E041092F5
:103EF0007F0410928F0410928E0418C090E090936B
:103F00008F0480938E048091F3039091F403DC017D
:103F1000ED91FC910488F589E02D09955DC08EEF47
:103F20009FEF90938F0480938E0456C080EA91E0B7
:103F30000E94B91A0E942510882301F145E050E043
:103F400065EF73E08AEA91E00E945A10A3EBB1E0BA
:103F500020E030E04D91F901E80FF91FED50FC4FE2
:103F600042832F5F3F4F2B303105A1F7AC014A5FF1
:103F70005F4F65EF73E080E30E94C8140E94251034
:103F8000882309F458C080917504909176040196B5
:103F900011F481E090E09093760480937504809111
:103FA0007504909176049093FA038093FB0347E0A5
:103FB00050E065EF73E08FEB91E00E945A10FC0136
:103FC000ED50FC4F1282AC014450510965EF73E093
:103FD00082E80E94C8142FC067EC71E080E593E08E
:103FE0000E94D501C0908E04D0908F040D2C000C3F
:103FF000EE08FF08F7FE0EC06DE280E593E00E9438
:10400000CE0144275527BA014C195D096E097F0975
:104010002AE003C02AE0B701A60180E593E00E94F0
:10402000EA0183ED91E00E94B91A60ED77E080E04B
:1040300090E00E94D2100E942510882309F43FC10D
:104040000E940E116B017C0180917B0490917C0495
:10405000A0917D04B0917E04A7019601281B390B25
:104060004A0B5B0BDA01C90189399A43A105B105F5
:10407000A8F48091770490917804A0917904B0918C
:104080007A04A7019601281B390B4A0B5B0BDA0156
:10409000C90189399A43A105B105C8F120917F046E
:1040A0008091F3039091F403222371F02CEF3FEF02
:1040B00030938F0420938E04DC01ED91FC910488F1
:1040C000F589E02D0995FBC020EC2093F5031092B3
:1040D000F603DC01ED91FC910280F381E02D42E0DA
:1040E00050E065EF73E00995C0927704D0927804B0
:1040F000E0927904F0927A04C0927B04D0927C041E
:10410000E0927D04F0927E0481E080937F048091B0
:10411000F3039091F403DC01ED91FC910084F185AF
:10412000E02D0995892B09F4CAC0CE0101960E94A1
:10413000F0138C01892B09F4C2C0C0927B04D09289
:104140007C04E0927D04F0927E049090F503892D2A
:10415000807F803309F098C0E0918004F091810461
:10416000FD87EC87EF2B09F4AAC06DB67EB6A98156
:10417000B0E0CD018D509C4FFC01A380B12CBA2C36
:10418000AA248481A80EB11CC50101962DB73EB7A3
:10419000281B390B0FB6F8943EBF0FBE2DBF8DB74D
:1041A0009EB70196BC0120E030E02A153B0569F07E
:1041B000A9014A0F5B1F4D505C4FFA014581FB017D
:1041C0004193BF012F5F3F4FF0CFAC01420F531F10
:1041D000FA011082F92DF6703F2E42E0F4133EC032
:1041E0005901AA0EBB1EB5016D507C4FFB014581E4
:1041F00050E0542F442766814A01860E911C4BEFF4
:104200005FEF4A1B5B0B421B530B400F511FB50165
:1042100066507C4FEC85FD85099580E48093F5031D
:104220003092F6039092F7038092F8038091F303A3
:104230009091F403DC01ED91FC910280F381E02D7B
:1042400044E050E065EF73E00995C0927704D092A6
:104250007804E0927904F0927A0410C04DEF5FEF99
:104260004A1B5B0B421B530B400F511F2A0F3B1F76
:10427000B90168507C4FEC85FD8509950FB6F8941F
:104280007EBE0FBE6DBE1BC0803CA9F480ED809346
:10429000F5031092F6038091F3039091F403DC018F
:1042A000ED91FC910280F381E02D42E050E065EF5A
:1042B00073E0099504C0803D11F410927F040E94C0
:1042C00094010ACD982F9D7F943C09F0B0C0E091F5
:1042D000B904F091BA047F0147E0E40EF11C478174
:1042E0005085528741876785843C49F58091B604A3
:1042F0002091B4043091B50490E0981791F08901B1
:104300002D5F3F4FA90143505109DA014C914613EB
:1043100006C0D80111968D919C91129704C09F5FA1
:10432000ECCF8FEF9FEF9A83898308E310E022E0C0
:1043300030E0AE014F5F5F4FB701CF0175C0862FF0
:1043400090E09A878987009709F45EC0232BC9F40F
:104350005091B6042091B4043091B50440E0451763
:1043600009F44FC0F9012D5F3F4FD90112976D91AC
:104370007C916817790719F4808190E047C04F5FFE
:10438000EECF1C821B8280910001909101019C0163
:104390002F5F3F4F30930101209300019E838D8357
:1043A0002F8208E310E022E030E0AE01475F5F4F6C
:1043B000BE016F5F7F4FCF010E94D019882309F1A2
:1043C0000E940E114B015C018091B9049091BA04D6
:1043D0000E942318863C71F00E940E11DC01CB0173
:1043E00088199909AA09BB09853F9140A105B10522
:1043F00058F307C0E091B904F091BA048785908919
:1044000005C08FEF9FEF02C080E090E09A83898320
:1044100008E310E022E030E0AE014F5F5F4FB701EC
:104420008091B9049091BA040E94D0199FCC853C28
:1044300009F09CCCA091B904B091BA042091B404C5
:104440003091B50480E09091B604891708F08ECCC5
:10445000F90143E0849FE00DF11D11246181728117
:1044600017964D915C9118976417750711F4128295
:1044700011828F5FE8CF8091B9049091BA04DC017A
:104480009A962C9120FD7BCC1C821B8220910001EE
:1044900030910101A9014F5F5F4F5093010140939B
:1044A00000013E832D83B2E8BF8308E310E020E0E3
:1044B00030E040E050E0BE016F5F7F4F0E94D019B6
:1044C00081115DCC67E670E080E090E00E94D21040
:1044D0002ACC8091B7049091B8040E948A160E9459
:1044E0001A114DCCCF93DF93C0912602D0912702B1
:1044F000BC01CE0108960E948A22E5E1F2E08081AB
:1045000088878181898782818A8783818B87DF91F0
:10451000CF910895FC012381260F20931802A72F25
:10452000BB2792819A0F9093170231813093160224
:10453000408140931502E92FF0E0EA17FB0748F4A9
:1045400081E0830F80931602811103C04F5F409377
:10455000150230E077272617370788F49F5F90937E
:10456000170291110CC0809116028F5F8093160282
:10457000811105C0809115028F5F80931502089507
:104580000F931F93CF93DF93E9ECF4E08EE491E077
:10459000918380831282138214821582E0E5F3E016
:1045A0001382128248EE53E060E070E0448355834A
:1045B000668377832AE131E03183208325EC30E084
:1045C0003587248724EC30E03787268720EC30E0DD
:1045D000318B208B21EC30E0338B228B22EC30E0CE
:1045E000358B248B26EC30E0378B268B118E128E88
:1045F000138E148EEFECF4E0918380831282138289
:1046000014821582E5EDF4E0918380831282138297
:1046100014821582EDEEF3E091838083128213827F
:1046200014821582EBEDF4E0918380831282138271
:1046300014821582E9E7F6E0918380831282138267
:1046400014821582E1E6F6E027E030E03183208332
:1046500028E030E033832283168220E2278310860D
:1046600025E0268705E010E020E030E0048B158B84
:10467000268B378B1186AFEEB4E0D096FC93EE9389
:104680009F9724E235E03093BF052093BE052CECC4
:1046900035E03093CB052093CA0520EC35E09896A1
:1046A0003C932E9397979B961D921D921D921C9260
:1046B0009E979A961C929A9799961C9299971C92FB
:1046C00021EB34E0E901FF83EE83B987A887C2EAD2
:1046D000D4E0F983E883BB83AA833D832C83ECE990
:1046E000F4E0918380832AE02283238332E03483C1
:1046F000A8E0A583E6E9F4E0918380832283238305
:1047000034833583E0E9F4E091838083228323833B
:1047100034833583E1EEF4E01382128244835583BF
:10472000668377832CE231E03183208315861486FB
:1047300090938304809382041092840410928504E1
:1047400010928604109287048FEF9FEF90938F044E
:1047500080938E04F093F403E093F30310928D049E
:1047600010928C04DF91CF911F910F910895991BA6
:1047700079E004C0991F961708F0961B881F7A9558
:10478000C9F780950895AA1BBB1B51E107C0AA1F5A
:10479000BB1FA617B70710F0A61BB70B881F991FE2
:1047A0005A95A9F780959095BC01CD010895A1E295
:1047B0001A2EAA1BBB1BFD010DC0AA1FBB1FEE1F9B
:1047C000FF1FA217B307E407F50720F0A21BB30BE6
:1047D000E40BF50B661F771F881F991F1A9469F762
:1047E00060957095809590959B01AC01BD01CF01BE
:1047F0000895EE0FFF1F0590F491E02D0994CF93DB
:10480000DF938230910510F482E090E0E09182061F
:10481000F091830620E030E0C0E0D0E0309711F165
:104820004081518148175907C0F04817590761F472
:1048300082819381209719F09B838A832BC0909368
:1048400083068093820626C02115310519F0421790
:10485000530718F49A01BE01DF01EF010280F381D2
:10486000E02DDCCF2115310509F1281B390B24304F
:10487000310590F412968D919C91139761157105F5
:1048800021F0FB019383828304C09093830680937D
:104890008206FD01329644C0FD01E20FF31F8193B1
:1048A0009193225031092D933C933AC02091800678
:1048B00030918106232B41F42091040130910501B0
:1048C00030938106209380062091020130910301EC
:1048D0002115310541F42DB73EB7409106015091A5
:1048E0000701241B350BE0918006F0918106E21749
:1048F000F307A0F42E1B3F0B2817390778F0AC0103
:104900004E5F5F4F2417350748F04E0F5F1F5093DF
:104910008106409380068193919302C0E0E0F0E02D
:10492000CF01DF91CF9108950F931F93CF93DF9322
:10493000009709F48CC0FC01329713821282009117
:104940008206109183060115110581F420813181C1
:10495000820F931F20918006309181062817390716
:1049600079F5F0938106E093800671C0D80140E0AC
:1049700050E0AE17BF0750F412962D913C9113975B
:10498000AD012115310509F1D901F3CF9D01DA01FE
:104990003383228360817181860F971F821793076B
:1049A00069F4EC0128813981260F371F2E5F3F4FB4
:1049B000318320838A819B8193838283452B29F4D1
:1049C000F0938306E093820642C01396FC93EE9325
:1049D0001297ED01499159919E01240F351FE2175D
:1049E000F30771F480819181840F951F02961196CF
:1049F0009C938E938281938113969C938E931297AE
:104A0000E0E0F0E0D80112968D919C911397009709
:104A100019F0F8018C01F6CF8D919C9198012E5FD1
:104A20003F4F820F931F20918006309181062817F7
:104A3000390769F4309729F41092830610928206A0
:104A400002C0138212821093810600938006DF91C8
:104A5000CF911F910F91089581E090E0F8940C940C
:104A60003A25FB01DC0102C001900D9241505040FB
:084A7000D8F70895F894FFCF78
:104A7800010000008406800000044D51545404C312
:104A88003C33CE3EE3EC000000002B019800C3004D
:104A98007201F400D200E600000000002C0B270B86
:104AA800EA086908A30A9C087E08740BCA086B09FF
:104AB800540BCD08400BB808DF0800000000330293
:104AC800000000009E014265666F726520537461A4
:104AD8007274004265666F7265204D657368006187
:104AE800726475696E6F436C69656E74004C6F6FA4
:104AF8007000417474656D7074696E67204D51540F
:104B08005420636F6E6E656374696F6E2E2E2E006F
:104B1800636F6E6E6563746564006F7574546F704F
:104B280069630068656C6C6F20776F726C640069EC
:104B38006E546F706963006661696C65642C2072DD
:104B4800633D002074727920616761696E20696E27
:104B58002032207365636F6E647300204F4B002012
:104B68004661696C6564004D6573736167652061B2
:104B7800727269766564205B005D20000D0A000092
:00000001FF
