:100000000C9435000C945D000C945D000C943F0141
:100010000C943F010C943F010C945D000C945D0026
:100020000C945D000C945D000C945D000C945D00DC
:100030000C945D000C945D000C945D000C945D00CC
:100040000C94F5000C945D000C945D000C945D0024
:100050000C945D000C945D000C945D000C945D00AC
:100060000C9449010C945D00C10211241FBECFEF16
:10007000D8E0DEBFCDBF21E0A2E1B1E001C01D921A
:10008000A839B207E1F711E0A0E0B1E0EEEBF5E04E
:1000900002C005900D92A231B107D9F710E0C5E377
:1000A000D0E004C02197FE010E94D202C433D107E0
:1000B000C9F70E9477020C94DD020C940000CF92E5
:1000C000DF92EF92FF920F931F93CF93DF936C0118
:1000D0007A018B01C0E0D0E0CE15DF0589F0D801B0
:1000E0006D918D01D601ED91FC910190F081E02D93
:1000F000C6010995892B11F47E0102C02196ECCF2F
:10010000C701DF91CF911F910F91FF90EF90DF908A
:10011000CF90089508958FEF9FEF08958FEF9FEF91
:1001200008958091800190E09195819591090895BD
:10013000089580E090E0089585ED8093BC00809163
:10014000BC0084FDFCCF10925A0108954091340107
:10015000262F30E0240F311D21323105DCF42091AF
:100160005A012430C9F4FC0180E090E0861758F46D
:10017000309134012191DC01AE5EBE4FA30FB11D61
:100180002C930196F3CF80913401680F6093340172
:1001900080E0089581E0089582E00895CF93DF9391
:1001A00000D0CDB7DEB7CB01642F49835A830E94BC
:1001B000A6004981842F5A81952F0F900F90DF91CF
:1001C000CF910895CF93DF931F92CDB7DEB76983A8
:1001D00061E0CE0101960E94A60081E090E00F90C0
:1001E000DF91CF9108950E94D8021F920F920FB60F
:1001F0000F9211242F933F938F939F93AF93BF93AD
:100200008091940190919501A0919601B0919701F0
:100210003091930123E0230F2D3720F40196A11D87
:10022000B11D05C026E8230F0296A11DB11D209324
:1002300093018093940190939501A0939601B093BC
:10024000970180918F0190919001A0919101B091BF
:1002500092010196A11DB11D80938F019093900191
:10026000A0939101B0939201BF91AF919F918F9113
:100270003F912F910F900FBE0F901F9018951F92D6
:100280000F920FB60F9211240F900FBE0F901F9078
:1002900018951F920F920FB60F9211242F933F9330
:1002A0004F935F936F937F938F939F93AF93BF937E
:1002B000EF93FF938091B900887F803609F49CC04A
:1002C00068F5883209F45BC090F4803109F454C0B9
:1002D00038F4882309F4F6C0883009F44DC0F6C01C
:1002E000883109F44CC0803209F45DC0EFC080341D
:1002F00009F468C048F4803309F455C0883309F024
:10030000E5C080935901D8C0803509F44FC08835C5
:1003100009F45DC0883409F0D9C0D6C0883909F421
:10032000C7C0A8F4883709F467C038F4883609F4E0
:1003300063C0803709F460C0C9C0883809F4B8C008
:10034000803909F45FC0803809F0C0C05BC0803BD1
:1003500009F486C038F4803A09F466C0883A09F492
:100360007FC0B4C0803C09F4A7C0883C09F4A4C095
:10037000883B09F48AC0AAC080917F0110C0909187
:100380007E0180917D01981770F5E0917E0181E0FA
:100390008E0F80937E01F0E0E35AFE4F80818093C0
:1003A000BB0085EC86C0809359018EC0E0917E0130
:1003B00081E08E0F80937E018091BB00F0E0E35AD4
:1003C000FE4F808390917E0180917D016EC0E0910F
:1003D0007E0181E08E0F80937E018091BB00F0E072
:1003E000E35AFE4F808380915C0181116DC081E0F2
:1003F00080935B0184EA61C083E080935A0110928C
:100400005801CFCF80915801803208F051C0E0915F
:10041000580181E08E0F809358018091BB00F0E07D
:10042000E85CFE4F8083BDCF85EC8093BC001092CA
:100430005A0180915801803230F4E0915801F0E087
:10044000E85CFE4F10826091580170E0E091360147
:10045000F091370188E391E009951092580136C078
:1004600084E080935A011092350110923401E0919A
:100470003201F0913301099580913401811105C059
:1004800081E08093340110921201E091350181E006
:100490008E0F80933501F0E0EE5EFE4F80818093F9
:1004A000BB009091350180913401981708F479CF01
:1004B00085E88093BC000AC085EC8093BC00109254
:1004C0005A0104C0109259010E949C00FF91EF91C3
:1004D000BF91AF919F918F917F916F915F914F915C
:1004E0003F912F910F900FBE0F901F901895789409
:1004F00084B5826084BD84B5816084BD85B5826029
:1005000085BD85B5816085BD80916E0081608093D9
:100510006E00109281008091810082608093810042
:100520008091810081608093810080918000816052
:10053000809380008091B10084608093B1008091AD
:10054000B00081608093B00080917A0084608093D5
:100550007A0080917A00826080937A0080917A009C
:10056000816080937A0080917A00806880937A001D
:100570001092C100C0E0D0E02097F1F30E9400008B
:10058000FBCFE1E8F1E01382128288EE93E0A0E075
:10059000B0E084839583A683B78384E091E0918360
:1005A00080830895EE0FFF1F0590F491E02D0994CC
:0E05B00081E090E0F8940C94DD02F894FFCF07
:1005BE0000000000E200CE0099008A0091008E003B
:0205CE008B00A0
:00000001FF
