:100000000C949B000C94C3000C94C3000C947A02D3
:100010000C947A020C947A020C94C3000C94C300E2
:100020000C94C3000C94C3000C94C3000C94C30044
:100030000C94C3000C94C3000C94C3000C94C30034
:100040000C940D070C94C3000C9441020C941B02F9
:100050000C94C3000C94C3000C94C3000C94C30014
:100060000C9484020C94C3000000000800020100FC
:100070000003040700000000000000005246323474
:100080002F6578616D706C65732F47657474696E48
:1000900067537461727465645F43616C6C5265731D
:1000A000706F6E7365004C6F61646564206E657877
:1000B0007420726573706F6E736500476F74207281
:1000C0006573706F6E7365200053656E64696E674B
:1000D000206661696C65642E004E6F772073656ED3
:1000E00064696E67200000000000250028002B00D6
:1000F00000000000240027002A0004040404040473
:1001000004040202020202020303030303030102C6
:100110000408102040800102040810200102040895
:1001200010201112131415160A0B0C0D0E0F0001DE
:1001300002030405BB0A11241FBECFEFD8E0DEBFC7
:10014000CDBF23E0A2EBB1E001C01D92AD30B207FC
:10015000E1F711E0A0E0B1E0EEE0FCE102C00590C3
:100160000D92A23BB107D9F710E0CBE9D0E004C073
:100170002197FE010E94F30BCA39D107C9F70E94EB
:10018000E1070C94050E0C94000008958FEF9FEF8B
:1001900008958FEF9FEF08958091200290E0919550
:1001A000819591090895089580E090E0089585ED86
:1001B0008093BC008091BC0084FDFCCF1092FA01BA
:1001C00008954091D401262F30E0240F311D2132B3
:1001D0003105DCF42091FA012430C9F4FC0180E0FF
:1001E00090E0861758F43091D4012191DC01AE548F
:1001F000BE4FA30FB11D2C930196F3CF8091D40174
:10020000680F6093D40180E0089581E0089582E052
:100210000895CF93DF9300D0CDB7DEB7CB01642F25
:1002200049835A830E94E1004981842F5A81952F86
:100230000F900F90DF91CF910895CF93DF931F928E
:10024000CDB7DEB7698361E0CE0101960E94E1007F
:1002500081E090E00F90DF91CF91089584E292E0E9
:100260000E94130421E0892B09F420E0822F0895D5
:100270000E94F00D0F931F93CF93DF93EC018881C1
:100280009981009729F02A813B812617370788F446
:100290008B016F5F7F4F0E94260D009761F099835D
:1002A00088831B830A832C813D81232B11F4FC015D
:1002B000108281E001C080E0DF91CF911F910F910A
:1002C0000895EF92FF920F931F93CF93DF93FC015A
:1002D000248135816115710511F480E019C0411543
:1002E0005105A9F07B01EC018A01020F131FB8012F
:1002F0000E943A01882389F3288139818C819D816C
:10030000B701820F931F0E94FE0D1D830C8381E0B5
:10031000DF91CF911F910F91FF90EF900895EF9291
:10032000FF920F931F93CF93DF93EC017B018A0120
:10033000BA010E943A012881398181110DC021152D
:10034000310519F0C9010E948E0C198218821D8294
:100350001C821B821A8206C01D830C83B701C9014F
:100360000E94FE0DCE01DF91CF911F910F91FF9062
:10037000EF900895FC01118210821382128215827F
:1003800014826115710551F0FB0101900020E9F71D
:100390003197AF01461B570B0C948F01089590E0E5
:1003A000FC01E859FF4F3491FC01E25FFE4F2491BC
:1003B000FC01E650FF4FE491EE2309F43BC03323E8
:1003C00039F1333091F038F43130A9F0323001F5A1
:1003D00084B58F7D12C0373091F03830A1F03430C1
:1003E000B9F4809180008F7D03C0809180008F7769
:1003F000809380000DC084B58F7784BD09C0809143
:10040000B0008F7703C08091B0008F7D8093B000E3
:10041000F0E0EE0FFF1FEA51FF4FA591B4918FB7A7
:10042000F894EC91611103C020952E2301C02E2B6E
:100430002C938FBF08951F920F920FB60F92112425
:100440002F933F934F935F936F937F938F939F93DC
:10045000AF93BF93EF93FF9384E292E00E9457071C
:10046000FF91EF91BF91AF919F918F917F916F918C
:100470005F914F913F912F910F900FBE0F901F9062
:1004800018951F920F920FB60F9211242F938F93EE
:100490009F93EF93FF93E0913402F09135028081B6
:1004A000E0913A02F0913B0282FD12C0908180916E
:1004B0003D028F5F8F7320913E02821751F0E091D1
:1004C0003D02F0E0EC5DFD4F958F80933D0201C051
:1004D0008081FF91EF919F918F912F910F900FBE8F
:1004E0000F901F9018958EBD00000DB407FEFDCF34
:1004F0008EB508951F920F920FB60F9211240F9090
:100500000FBE0F901F9018951F920F920FB60F926B
:1005100011242F933F934F935F936F937F938F9308
:100520009F93AF93BF93EF93FF938091B900887F20
:10053000803609F49CC068F5883209F45BC090F4F9
:10054000803109F454C038F4882309F4F6C08830A7
:1005500009F44DC0F6C0883109F44CC0803209F46A
:100560005DC0EFC0803409F468C048F4803309F4FA
:1005700055C0883309F0E5C08093F901D8C08035B3
:1005800009F44FC0883509F45DC0883409F0D9C03A
:10059000D6C0883909F4C7C0A8F4883709F467C001
:1005A00038F4883609F463C0803709F460C0C9C0E4
:1005B000883809F4B8C0803909F45FC0803809F080
:1005C000C0C05BC0803B09F486C038F4803A09F4AF
:1005D00066C0883A09F47FC0B4C0803C09F4A7C063
:1005E000883C09F4A4C0883B09F48AC0AAC0809161
:1005F0001F0210C090911E0280911D02981770F585
:10060000E0911E0281E08E0F80931E02F0E0E35025
:10061000FE4F80818093BB0085EC86C08093F901FA
:100620008EC0E0911E0281E08E0F80931E028091A9
:10063000BB00F0E0E350FE4F808390911E0280915A
:100640001D026EC0E0911E0281E08E0F80931E029B
:100650008091BB00F0E0E350FE4F80838091FC016D
:1006600081116DC081E08093FB0184EA61C083E069
:100670008093FA011092F801CFCF8091F801803277
:1006800008F051C0E091F80181E08E0F8093F801ED
:100690008091BB00F0E0E852FE4F8083BDCF85EC37
:1006A0008093BC001092FA018091F801803230F4FE
:1006B000E091F801F0E0E852FE4F10826091F801FD
:1006C00070E0E091D601F091D70188ED91E00995B5
:1006D0001092F80136C084E08093FA011092D5019F
:1006E0001092D401E091D201F091D301099580914B
:1006F000D401811105C081E08093D4011092B20130
:10070000E091D50181E08E0F8093D501F0E0EE54A9
:10071000FE4F80818093BB009091D5018091D401E0
:10072000981708F479CF85E88093BC000AC085EC5F
:100730008093BC001092FA0104C01092F9010E944B
:10074000D700FF91EF91BF91AF919F918F917F91D2
:100750006F915F914F913F912F910F900FBE0F902E
:100760001F9018958230910538F0880F991F880FD7
:10077000991F05970197F1F708953FB7F894809175
:10078000F8029091F902A091FA02B091FB0226B50D
:10079000A89B05C02F3F19F00196A11DB11D3FBFB9
:1007A000BA2FA92F982F8827820F911DA11DB11D47
:1007B000BC01CD0142E0660F771F881F991F4A9543
:1007C000D1F70895FC01538D448D252F30E0842FFF
:1007D00090E0821B930B541710F0CF960895019769
:1007E0000895FC01918D828D981761F0828DDF0153
:1007F000A80FB11D5D968C91928D9F5F9F73928F14
:1008000090E008958FEF9FEF0895FC01918D828D08
:10081000981731F0828DE80FF11D858D90E00895D5
:100820008FEF9FEF0895FC01918D228D892F90E02D
:10083000805C9F4F821B91098F739927089580E0F8
:1008400090E0892B29F00E942E0181110C94000068
:100850000895CF92DF92EF92FF920F931F93CF9361
:10086000DF936C017A018B01C0E0D0E0CE15DF058B
:1008700089F0D8016D918D01D601ED91FC91019027
:10088000F081E02DC6010995892B11F47E0102C08B
:100890002196ECCFC701DF91CF911F910F91FF906F
:1008A000EF90DF90CF900895009769F0FC010190E0
:1008B0000020E9F73197AF01481B590BBC0184E2D6
:1008C00092E00C94290480E090E00895CF93DF93A8
:1008D0009CB59F7D9CBD9CB5937F9CBD9CB59C7F2A
:1008E0009CBD9DB591609DBDC1ECD2E0682F8A8111
:1008F0000E94CF018C899D89DF91CF910C94B20326
:1009000081E00C94660480E00C946604EF92FF9200
:100910000F931F93CF93DF9300D01F92CDB7DEB715
:10092000162F4A837B8389830E94830489818F7178
:1009300080620E947302082FE12E7B81F72E4A818C
:10094000140F1E1531F0F70181917F010E9473028F
:10095000F8CF0E948004802F0F900F900F90DF91AE
:10096000CF911F910F91FF90EF900895CF93DF9358
:100970001F92CDB7DEB789830E94830489810E94CC
:10098000730289830E94800489810F90DF91CF9147
:10099000089581EE0C94B604CF93DF931F92CDB7E8
:1009A000DEB789830E94830489818F710E9473025C
:1009B0008FEF0E94730289830E94800489810F90C7
:1009C000DF91CF9108951F93CF93DF9300D0CDB7E0
:1009D000DEB76A8389830E94830489818F71806274
:1009E0000E947302182F6A81862F0E9473020E9450
:1009F0008004812F0F900F90DF91CF911F91089568
:100A00002091C1023091C2024091C3025091C402B0
:100A10002417350721F0682F822F0C94CF010895F9
:100A2000CF93DF93E9E2F1E0E491C1ECD2E04E85AF
:100A3000BC018E2F0E948604E3E2F1E084916F8175
:100A40000E94E30482E00E94CC04EFE2F1E0E49132
:100A500061E070E001C0660FEA95EAF7682B82E07A
:100A6000DF91CF910C94E3040F931F93CF93DF9307
:100A70008C01C1ECD2E04E85BC018AE00E94860464
:100A80004E85B80180E10E9486046F8181E1DF918B
:100A9000CF911F910F910C94E30490E0FC01E25F71
:100AA000FE4F2491FC01E650FF4F8491882399F07A
:100AB00090E0880F991FFC01E051FF4FA591B49180
:100AC000FC01EA51FF4F859194918FB7F894EC9116
:100AD000E22BEC938FBF08950F931F93CF93DF9377
:100AE0008C01C0E0D0E0F801EC0FFD1F649166239B
:100AF00071F0E0912402F09125020190F081E02D47
:100B000084E292E00995892B11F02196ECCFCE0179
:100B1000DF91CF911F910F910895CF93DF930E94A2
:100B20005404EC018FE291E00E9454048C0F9D1F4D
:100B3000DF91CF910895CF92DF92EF92FF920F93C2
:100B40001F93CF93DF931F92CDB7DEB7F82E20917E
:100B5000C802C62E261708F4C22E8091C902811140
:100B600003C0D22EDC1801C0D12C99830E948304CB
:100B700081E60E947302E82E0F2D9981192FFC0C3B
:100B8000F01639F08FEF0E947302F80181938F0104
:100B9000F7CFDD2029F08FEF0E947302DA94F9CFAE
:100BA0000E9480048E2D0F90DF91CF911F910F91A5
:100BB000FF90EF90DF90CF9008958F929F92AF9229
:100BC000BF92CF92DF92EF92FF926B017C010E9465
:100BD000BD034B015C01C114D104E104F104F1F047
:100BE0000E94BD03DC01CB0188199909AA09BB0940
:100BF000883E9340A105B10570F321E0C21AD108E7
:100C0000E108F10888EE880E83E0981EA11CB11C53
:100C1000C114D104E104F10419F7DDCFFF90EF9086
:100C2000DF90CF90BF90AF909F908F90089580E01D
:100C30000E94CC0481FD0BC0682F626080E00E949E
:100C4000E30465E070E080E090E00C94DD05089539
:100C50000E94170680E00E94CC04682F616080E04B
:100C60000E94E30460E787E00E94E30481E00E94C1
:100C700000058091CA02882341F04091CF026AECBE
:100C800072E08AE00E94860412C082E00E94CC04D6
:100C9000EEE2F1E0E49121E030E001C0220FEA95BC
:100CA000EAF72095622F682382E00E94E3048DE139
:100CB0000E94CC0481FD0C94C9040895EF92FF9228
:100CC0000F931F93CF93DF931F92CDB7DEB78C01A5
:100CD00080E00E9400058091D1029091D2020E9492
:100CE000B2038DE10E94CC0481FF08C08091D10243
:100CF0009091D2020E94B2030E94C90480E00E9437
:100D0000CC04682F6E7F80E00E94E30482E00E94A2
:100D1000CC04EEE2F1E0E49161E070E001C0660F26
:100D2000EA95EAF7682B82E00E94E30489ED90E0FF
:100D30000E946C05F80184819581892B29F020811E
:100D400031812115310529F41092FC028CEF92E0DB
:100D500001C0C9010E948D05F80184819581892B0C
:100D600029F0008111810115110521F41092FC0276
:100D70000CEF12E09091C802E92E973010F086E057
:100D8000E82E8091C902811103C0F92EFE1801C01E
:100D9000F12C0E94830480EA0E947302EA94FFEF20
:100DA000EF1621F0F80181918F01F6CFFF2029F095
:100DB00080E00E947302FA94F9CF0E94800481E0DF
:100DC0000E9400058FEF0E94B6048073D9F380E083
:100DD0000E94000560E787E00E94E30484FF17C0DB
:100DE0000E94C90489EC90E00E946C058FE291E0BA
:100DF0000E94540480E089830E94280689810F9014
:100E0000DF91CF911F910F91FF90EF90089587E1AF
:100E10000E94CC0480958170EECF1F920F920FB686
:100E20000F9211242F933F938F939F93AF93BF9370
:100E30008091F4029091F502A091F602B091F70230
:100E40003091F30223E0230F2D3720F40196A11DEA
:100E5000B11D05C026E8230F0296A11DB11D2093E8
:100E6000F3028093F4029093F502A093F602B093FC
:100E7000F7028091F8029091F902A091FA02B091E4
:100E8000FB020196A11DB11D8093F8029093F90217
:100E9000A093FA02B093FB02BF91AF919F918F9103
:100EA0003F912F910F900FBE0F901F901895FC014E
:100EB000848DDF01A80FB11DA35ABF4F2C91848DE3
:100EC00090E001968F739927848FA689B7892C9318
:100ED000A089B1898C9180648C93938D848D9813B3
:100EE00006C00288F389E02D80818F7D808308957C
:100EF000EF92FF920F931F93CF93DF93EC0181E06A
:100F0000888F9B8D8C8D981305C0E889F989808125
:100F100085FD24C0F62E0B8D10E00F5F1F4F0F7361
:100F20001127E02E8C8DE8120CC00FB607FCFACF0B
:100F3000E889F989808185FFF5CFCE010E945707A6
:100F4000F1CF8B8DFE01E80FF11DE35AFF4FF082C8
:100F50000B8FEA89FB898081806207C0EE89FF8957
:100F60006083E889F98980818064808381E090E0F2
:100F7000DF91CF911F910F91FF90EF900895CF9344
:100F8000DF93EC01888D8823C9F0EA89FB89808191
:100F900085FD05C0A889B9898C9186FD0FC00FB663
:100FA00007FCF5CF808185FFF2CFA889B9898C91A4
:100FB00085FFEDCFCE010E945707E7CFDF91CF919C
:100FC0000895CF93DF93CDB7DEB7AE970FB6F89401
:100FD000DEBF0FBECDBF789484B5826084BD84B57A
:100FE000816084BD85B5826085BD85B5816085BD24
:100FF00080916E00816080936E00109281008091DC
:101000008100826080938100809181008160809363
:101010008100809180008160809380008091B10088
:1010200084608093B1008091B00081608093B000B3
:1010300080917A00846080937A0080917A00826047
:1010400080937A0080917A00816080937A00809109
:101050007A00806880937A001092C100E091340297
:10106000F091350282E08083E0913002F09131020C
:101070001082E0913202F091330280E1808310927D
:101080003C02E0913802F091390286E08083E091E1
:101090003602F0913702808180618083E0913602D0
:1010A000F0913702808188608083E0913602F09170
:1010B0003702808180688083E0913602F0913702A8
:1010C00080818F7D80838CE790E00E946C058FE2A9
:1010D00091E00E9454041092ED021092EC021092E2
:1010E000EB028091C1029091C2022091C302309123
:1010F000C4028217930711F00E944D058091C3022C
:101100009091C4022091C1023091C2022817390780
:1011100011F00E944D051FB7F894809123028111B0
:1011200024C0E4E0F1E08491E8E1F1E09491E82F5B
:10113000F0E0EE0FFF1FE051FF4FA591B491EC914D
:10114000E92321F461E08AE00E94CF018AE00E9455
:101150004D058CB580618CBD8CB580648CBD8DE0F7
:101160000E944D058BE00E944D05809123028F5F08
:10117000809323021FBF80E00E94000581E00E944F
:10118000660465E070E080E090E00E94DD056CE0C0
:1011900080E00E94E3046FE584E00E94E30486E0BF
:1011A0000E94CC04877D182F10628BE990E0A0E0AC
:1011B000B0E08093D1029093D202A093D302B09377
:1011C000D402612F86E00E94E30486E00E94CC04F2
:1011D000811709F483C186E00E94CC0486E00E9456
:1011E000CC0445E550E060E070E04093D1025093BC
:1011F000D2026093D3027093D402682F677D86E099
:101200000E94E30486E00E94CC040E94830480E5EF
:101210000E94730283E70E9473020E94800460E0D0
:101220008DE10E94E30460E08CE10E94E3041092EF
:10123000C90260E787E00E94E3046CE485E00E9455
:10124000E30482EE0E94B6040E94C9040E941706BD
:1012500080E00E94CC04682F6E7F80E00E94E3044F
:101260008DE10E94CC04682F66608DE10E94E3044A
:101270008CE10E94CC04682F63608CE10E94E3043F
:1012800011E01093C9028DE10E94CC04682F6460C4
:101290008DE10E94E3048CE10E94CC04682F6F630F
:1012A0008CE10E94E3041093C9028091EC029091BA
:1012B000ED02019739F48FED92E00E94340589ED3B
:1012C00092E006C089ED92E00E9434058FED92E035
:1012D0000E9410050E9428060E94830489EA0E9449
:1012E00073028091EE020E9473020E94800411E05A
:1012F0008091EB028111EFC01093EB028091EC0220
:101300009091ED02019759F482E391E00E948D05DE
:101310000E94280685E491E00E948D05DCC060E60D
:1013200071E08E010F5F1F4FC8010E94BA01C80112
:101330000E945E0689819A810E948E0C84E691E06B
:101340000E948D0528E4D22E3AE0832E912CA12C08
:10135000B12C61E371E0CE0189960E94BA01E0915F
:10136000EC02F091ED02EA5FFE4F808189831A82E0
:1013700041E050E0B801CE0189960E9461014AE047
:10138000B80180E090E00E94340BF8010190002049
:10139000E9F73197AF01401B510BB801CE01899697
:1013A0000E946101D9821A8241E050E0B801CE0169
:1013B00089960E9461016091EF027091F002809124
:1013C000F1029091F2021CA21BA21EA21DA218A65D
:1013D0001FA22AE0A8010E943F0BF8010190002003
:1013E000E9F73197AF01401B510BB801CE0183964D
:1013F0000E948F014FA158A56BA17CA1CE018996B7
:101400000E9461018BA19CA10E948E0C46E050E0DD
:1014100069E771E0CE0189960E9461011BA21A82E0
:1014200019821C821B821E821D8269A57AA5611504
:10143000710529F04DA55EA5C8010E948F01C80164
:101440000E945E06C82E89819A810E948E0CCC2053
:1014500029F087E10E94CC0480FF44C089A59AA5A9
:101460000E948E0CC11007C06AEF70E080E090E02F
:101470000E94DD056ECF80E891E00E948D0580E33B
:10148000C82ED12CE12CF12C9CE1B92E4E01F5E0B7
:101490008F0E911CC982DA82EB82FC82F4018B2DC3
:1014A00011928A95E9F787E10E94CC0480FD45C03E
:1014B0008FEF0E94B60460E2C8010E949B0560E7BE
:1014C00087E00E94E30486EA90E00E946C05C80170
:1014D0000E948D05E8CF0E941F040ACF81E080930F
:1014E000C70279CE61E0CE0183960E949B0560E73A
:1014F00087E00E94E3048BEB90E00E946C059BA1C7
:10150000292F30E040E050E019A2FE01B1967F01A2
:10151000CA01B901A50194010E94D10B605DF701D8
:1015200062937F01211531054105510589F7CF01EE
:101530000E9454040E9428068CCFB801CE018396E5
:101540000E94BA018FA198A5029780F08BE991E0E3
:101550000E9454044FA158A56BA17CA184E292E0A3
:101560000E9429048FE291E00E9454048BA19CA167
:101570000E948E0C8FCFE4E2F2E01382128288EE9A
:1015800093E0A0E0B0E084839583A683B7832FE047
:1015900031E03183208325EC30E03587248724EC4B
:1015A00030E03787268720EC30E0318B208B21EC30
:1015B00030E0338B228B22EC30E0358B248B26EC11
:1015C00030E0378B268B118E128E138E148EEDEF3A
:1015D000F2E01382128284839583A683B78381E22B
:1015E00091E09183808382E1E9EDF2E0DF011D92D9
:1015F0008A95E9F786E0E5EAF1E0A9EDB2E001902D
:101600000D928A95E1F786E0EBEAF1E0AFEDB2E00A
:1016100001900D928A95E1F7E1ECF2E087E090E02D
:101620009183808388E090E093838283168280E2B6
:1016300087831086118685E0868785E090E0A0E0AC
:10164000B0E0848B958BA68BB78B12A684E090E0DC
:1016500094A783A784E690E0A0E0B0E086A797A7D0
:10166000A0ABB1AB15A60895BB274A3031F499233E
:1016700022F4BDE2909581959F4F0C94710BBB278E
:101680002A3051F4992342F4BDE2909580957095EB
:1016900061957F4F8F4F9F4F0C944F0BBB27FA01E3
:1016A000A62F6217710581059105330B30FB66F09B
:1016B000AA27660F771F881F991FAA1FA21710F06D
:1016C000A21B63953850A9F7A05DAA3308F0A95D65
:1016D000A19336F7B111B1931082CA010C948A0B11
:1016E000BB27FB015527AA27880F991FAA1FA417FC
:1016F00010F0A41B83955051B9F7A05DAA3308F0F0
:10170000A95DA193009779F7B111B1931192CB0123
:101710000C948A0BDC01FC01672F71917723E1F7B0
:10172000329704C07C916D9370836291AE17BF07AE
:10173000C8F308952F923F924F925F926F927F92DB
:101740008F929F92AF92BF92CF92DF92EF92FF92D1
:101750000F931F93CF93DF93CDB7DEB7CA1BDB0B7D
:101760000FB6F894DEBF0FBECDBF09942A88398822
:1017700048885F846E847D848C849B84AA84B98429
:10178000C884DF80EE80FD800C811B81AA81B98135
:10179000CE0FD11D0FB6F894DEBF0FBECDBFED0149
:1017A0000895A1E21A2EAA1BBB1BFD010DC0AA1FA2
:1017B000BB1FEE1FFF1FA217B307E407F50720F0BA
:1017C000A21BB30BE40BF50B661F771F881F991F35
:1017D0001A9469F760957095809590959B01AC017E
:1017E000BD01CF010895EE0FFF1F0590F491E02D8C
:1017F0000994CF93DF938230910510F482E090E05A
:10180000E0910B03F0910C0320E030E0C0E0D0E069
:10181000309711F14081518148175907C0F048179E
:10182000590761F482819381209719F09B838A8301
:101830002BC090930C0380930B0326C02115310518
:1018400019F04217530718F49A01BE01DF01EF01A6
:101850000280F381E02DDCCF2115310509F1281B31
:10186000390B2430310590F412968D919C91139789
:101870006115710521F0FB019383828304C090936D
:101880000C0380930B03FD01329644C0FD01E20F6F
:10189000F31F81939193225031092D933C933AC0C9
:1018A0002091090330910A03232B41F42091020176
:1018B0003091030130930A03209309032091000122
:1018C000309101012115310541F42DB73EB740910A
:1018D000040150910501241B350BE0910903F0919F
:1018E0000A03E217F307A0F42E1B3F0B2817390752
:1018F00078F0AC014E5F5F4F2417350748F04E0F6C
:101900005F1F50930A03409309038193919302C090
:10191000E0E0F0E0CF01DF91CF9108950F931F93A6
:10192000CF93DF93009709F48CC0FC0132971382A8
:10193000128200910B0310910C030115110581F423
:1019400020813181820F931F2091090330910A0376
:101950002817390779F5F0930A03E093090371C05A
:10196000D80140E050E0AE17BF0750F412962D9119
:101970003C911397AD012115310509F1D901F3CF40
:101980009D01DA013383228360817181860F971F65
:101990008217930769F4EC0128813981260F371FDC
:1019A0002E5F3F4F318320838A819B819383828383
:1019B000452B29F4F0930C03E0930B0342C01396DC
:1019C000FC93EE931297ED01499159919E01240FDA
:1019D000351FE217F30771F480819181840F951F01
:1019E000029611969C938E938281938113969C9379
:1019F0008E931297E0E0F0E0D80112968D919C91C1
:101A00001397009719F0F8018C01F6CF8D919C91F6
:101A100098012E5F3F4F820F931F20910903309151
:101A20000A032817390769F4309729F410920C0338
:101A300010920B0302C01382128210930A030093C8
:101A40000903DF91CF911F910F910895A0E0B0E0BD
:101A5000ECE2FDE00C949E0BEC01009721F4CB012D
:101A60000E94F90BB8C0FC01E60FF71F9C01225041
:101A70003109E217F30708F4ACC0D9010D911C91AC
:101A8000119706171707B0F00530110508F49FC02D
:101A9000C80104978617970708F499C002501109E6
:101AA000061B170B019311936D937C93CF010E943A
:101AB0008E0C8DC05B01A01AB10A4C01800E911EE4
:101AC000A0910B03B0910C0340E050E0E12CF12C0D
:101AD000109709F44AC0A815B905D1F56D907C900E
:101AE0001197630182E0C80ED11CCA14DB0480F197
:101AF000A3014A195B096A0182E0C80ED11C129643
:101B0000BC9012971396AC91B5E0CB16D10440F07F
:101B1000B282A38351834083D9016D937C930AC021
:101B20000E5F1F4FC301800F911FF90191838083C6
:101B3000EB2DFA2FE114F10431F0D7011396FC9349
:101B4000EE93129744C0F0930C03E0930B033FC055
:101B50008D919C9111974817590708F4AC017D01AC
:101B600012960D90BC91A02DB3CF80910903909156
:101B70000A0388159905E1F446175707C8F48091C0
:101B8000000190910101009741F48DB79EB74091FB
:101B9000040150910501841B950BE817F907C8F45F
:101BA000F0930A03E0930903F901718360830FC086
:101BB000CB010E94F90B7C01009759F0A801BE01EE
:101BC0000E94F50DCE010E948E0CC70104C0CE010B
:101BD00002C080E090E0CDB7DEB7EEE00C94BA0B27
:101BE00081E090E0F8940C94050EFB01DC0102C04A
:101BF00001900D9241505040D8F70895FB01DC014F
:0E1C000001900D920020E1F70895F894FFCFB7
:101C0E0000000D03800046525A4255000000007835
:101C1E00072904E203BF071304F1030504000000C3
:101C2E00001D010901D400C500CC00C900C6000D7D
:101C3E000A0053746172742043656E7472616C6530
:101C4E00206174200043656E7472616C652073743C
:101C5E006172746564206C697374656E696E670079
:101C6E0073656E00537461727420436F6D706F6E86
:101C7E00656E74202061742000636F6E6361740062
:101C8E00434F4D502073746172742068616E646CA2
:101C9E0065207265636965766564005061796C6F65
:101CAE0061643A2000314E6F646500324E6F646598
:021CBE00000024
:00000001FF
